:100000000C942E050C9476050C9476050C947605CC
:100010000C9476050C9476050C9476050C94760574
:100020000C9476050C9476050C9476050C94B01D12
:100030000C9476050C94871D0C9476050C9476052B
:100040000C9476050C9476050C9476050C94611D41
:100050000C9476050C9476050C9476050C9413227A
:100060000C9476050C9476050C9476050C94760524
:100070000C9476050631FF0974A101097515002657
:10008000FF009520750881020976150026FF00956E
:100090002075089102C005010902A1010901A10012
:1000A0008501050919012908150025019508750123
:1000B00081020501093009311581257F95027508F6
:1000C000810609381581257F950175088106050C83
:1000D0000A38021581257F950175088106C0C00583
:1000E000010980A10185021601002637001A81004E
:1000F0002AB700751095018100C0050C0901A10106
:100100008503160100269C021A01002A9C02751024
:1001100095018100C005010906A101050719E02923
:10012000E7150025019508750181020508190129C7
:100130000595057501910295017503910105071952
:100140000029F71500250195F875018102C0732576
:1001500030325820007225303458200073656E64A8
:1001600020253032583A20253032580A0073656E07
:10017000642039443A20253032580A007225303242
:1001800058200073656E642037303A20253032588D
:100190000A0073656E642039433A20253032580ACC
:1001A000000A456E61626C652057696E6B65793A2D
:1001B00020000A496E686962697420526570656141
:1001C000743A20005B4F4C445D005B4E45575D0028
:1001D0000A4B6579626F61726420547970653A20C8
:1001E0000025583A2530386225730A000A2020304D
:1001F000313233343536370A00706339385F6C6515
:10020000643A20253032580A007573625F6C656469
:100210003A20253032580A004C45443A20253032E5
:10022000580A000A4C6F6F702073746172742E0A42
:10023000000A55534220636F6E6669677572656484
:100240002E0A000A544D4B3A3839333630622F4C5F
:100250005546413A6436613764660A000902540023
:10026000030100A03209040000010301010009217B
:100270001101000122390007058103200001090452
:1002800001000103010200092111010001227F0088
:1002900007058203080001090402000103000000B1
:1002A000092111010001222200070583032000011A
:1002B0001201100100000008EDFE01980101010289
:1002C00000013003500043003900380020006B006B
:1002D0006500790062006F00610072006400200018
:1002E00063006F006E0076006500720074006500A8
:1002F000720000000E0374002E006D002E006B00D3
:100300002E0000000403090473797374656D3A20AC
:10031000253034580A00636F6E73756D65723A202C
:10032000253034580A003F004D3E2000433E200057
:100330000A00257500363A20776865656C5F746938
:100340006D655F746F5F6D61783A20000A002575F6
:1003500000353A20776865656C5F6D61785F737012
:100360006565643A20000A00257500343A207469F6
:100370006D655F746F5F6D61783A20000A002575C6
:1003800000333A206D61785F73706565643A2000D0
:100390000A00257500323A20696E74657276616CC8
:1003A000286D73293A20000A00257500313A20642F
:1003B000656C6179282A31306D73293A20000A0969
:1003C0002D2056616C756573202D0A004D3E004D41
:1003D00025643E20003F0073657420646566617586
:1003E0006C740A00433E20000A0025303258200079
:1003F0006B6579626F6172643A20006164645F6B5F
:1004000065795F6269743A2063616E277420616464
:10041000643A20253032580A0064656C5F6B657958
:100420005F6269743A2063616E27742064656C3A78
:1004300020253032580A00291E1F2021222324257E
:1004400026272D2E742A2B141A0815171C180C1287
:10045000132F3028041607090A0B0D0E0F33343101
:100460001D1B0619051110363738752C764E4B4971
:100470004C52504F514A4D56545F6061555C5D5E21
:1004800057595A5B6762666377444568696A80704A
:100490007172738080038048463A3B3C3D3E3F404A
:1004A000414243808080807939007A7880807B7FE8
:1004B000658080807D8080290A002575002F0025B9
:1004C00075005D28002564002000256400200025BB
:1004D000640020002564007C0025303258006D6FD8
:1004E0007573656B6579205B62746E7C782079200A
:1004F0007620685D287265702F61636C293A205BF5
:10050000000A6D6F7573653A205B253032587C2583
:10051000642025642025642025645D20000A092DBF
:10052000204D61676963202D0A643A09646562752C
:10053000670A783A096465627567206D617472694B
:10054000780A6B3A096465627567206B6579626F3A
:100550006172640A6D3A096465627567206D6F7532
:1005600073650A763A0976657273696F6E0A733A33
:10057000097374617475730A633A09636F6E736FFC
:100580006C65206D6F64650A302D343A096C6179B1
:100590006572302D34284631302D4634290A506199
:1005A00075733A09626F6F746C6F616465720A6E7D
:1005B0003A094E4B524F0A000A092D20436F6E73C1
:1005C0006F6C65202D0A4553432F713A0971756987
:1005D000740A6D3A096D6F7573656B65790A003F32
:1005E000004E4B524F3A206F66660A004E4B524FF8
:1005F0003A206F6E0A0074696D65725F726561649E
:10060000333228293A202530346C580A006B65793A
:10061000626F6172645F6E6B726F3A2025580A00D8
:100620006B6579626F6172645F69646C653A2025FD
:10063000580A006B6579626F6172645F70726F74E3
:100640006F636F6C3A2025580A00686F73745F6B94
:100650006579626F6172645F6C65647328293A2002
:1006600025580A000A092D20537461747573202DD2
:100670000A004743433A20372E332E30204156524A
:100680002D4C4942433A20322E302E3020415652D2
:100690005F415243483A2061767233350A004F5029
:1006A00054494F4E533A204C554641204D4F5553D7
:1006B000454B45592045585452414B455920434FCD
:1006C0004E534F4C4520434F4D4D414E44204E4BD1
:1006D000524F204B45594D41505F53454354494F6C
:1006E0004E20343039360A004255494C443A2038BD
:1006F0003933363062202830393A35363A303420B2
:100700004465632020352032303235290A005649AD
:10071000443A2030784645454428742E6D2E6B2E81
:1007200029205049443A2030783938303128504314
:100730003938206B6579626F61726420636F6E7601
:10074000657274657229205645523A2030783031EE
:1007500030310A00444553433A20636F6E76657228
:1007600074732050433938206B6579626F6172640D
:100770002070726F746F636F6C20696E746F205598
:1007800053420A000A092D2056657273696F6E2064
:100790002D0A000A6D6F7573653A206F66660A0050
:1007A0000A6D6F7573653A206F6E0A000A6B657982
:1007B000626F6172643A206F66660A000A6B65793F
:1007C000626F6172643A206F6E0A000A6D61747222
:1007D00069783A206F66660A000A6D6174726978FA
:1007E0003A206F6E0A000A64656275673A206F6E80
:1007F0000A000A64656275673A206F66660A000A35
:100800000A626F6F746C6F616465722E2E2E200009
:10081000433E20006D6B5F776865656C5F74696D42
:10082000655F746F5F6D6178203D2025640A006DFF
:100830006B5F776865656C5F6D61785F7370656528
:1008400064203D2025640A006D6B5F74696D655FEF
:10085000746F5F6D6178203D2025640A006D6B5FC9
:100860006D61785F7370656564203D2025640A00C2
:100870006D6B5F696E74657276616C203D202564D6
:100880000A006D6B5F64656C6179203D2025640A08
:10089000006D6B5F776865656C5F74696D655F742B
:1008A0006F5F6D6178203D2025640A006D6B5F7776
:1008B0006865656C5F6D61785F7370656564203D28
:1008C0002025640A006D6B5F74696D655F746F5FEE
:1008D0006D6178203D2025640A006D6B5F6D617845
:1008E0005F7370656564203D2025640A006D6B5F51
:1008F000696E74657276616C203D2025640A006D16
:100900006B5F64656C6179203D2025640A0077681F
:100910006572652064656C74613A20637572736FEB
:10092000723D25642C20776865656C3D25640A530B
:10093000656520687474703A2F2F656E2E77696B29
:100940006970656469612E6F72672F77696B692FB3
:100950004D6F7573655F6B6579730A000A092D2009
:100960004D6F7573656B6579202D0A4553432F7163
:100970003A09717569740A313A0964656C617928BC
:100980002A31306D73290A323A09696E74657276BC
:10099000616C286D73290A333A096D61785F737051
:1009A0006565640A343A0974696D655F746F5F6DDB
:1009B00061780A353A09776865656C5F6D61785FC3
:1009C00073706565640A363A09776865656C5F74AB
:1009D000696D655F746F5F6D61780A0A703A0970BE
:1009E00072696E742076616C7565730A643A097376
:1009F00065742064656661756C74730A75703A0974
:100A00002B310A646F776E3A092D310A7067757061
:100A10003A092B31300A7067646F776E3A092D31CD
:100A2000300A0A7370656564203D2064656C7461EA
:100A3000202A206D61785F7370656564202A202804
:100A4000726570656174202F2074696D655F746FC5
:100A50005F6D6178290A004C25640A0011241FBECD
:100A6000CFEFD4E0DEBFCDBF04B603FE28C0809137
:100A7000070490910804A0910904B0910A048730FA
:100A8000904BA740B04BD9F4109207041092080481
:100A90001092090410920A0414BE0FB6F894A89597
:100AA00080916000886180936000109260000FBEAA
:100AB0001092010810920008E0E0F8E3099511E0B7
:100AC000A0E0B1E0EEE5F7E402C005900D92A4339A
:100AD000B107D9F724E0A4E3B1E001C01D92A7302B
:100AE000B207E1F70E94791E0C94AD230C9400002C
:100AF000FF93EF93E0913401F0913501309709F0C5
:100B00000995EF91FF910895FC018591803011F0D6
:100B1000EFDFFBCF0895FF27E0E230E247FF0CC094
:100B2000419597FF09C0EDE260957095809590958D
:100B3000611D711D811D911D27FF02C0219530E3AC
:100B400050E2AA27660F771F881F991FAA1FA417B4
:100B500010F0A41B63955A95A9F7AA3008F0A95F75
:100B6000A05DAF93F395611571058105910541F77E
:100B7000ED3211F4EF93F395F21718F43F93F395D8
:100B8000FBCF8F91B5DFFA95E1F70895E991F991DF
:100B90008591803021F0853219F0AADFF9CF0895D0
:100BA00020E0E89455915532C1F3503311F4689424
:100BB00055915A3348F4505390F3220F022E220FCE
:100BC000220F200D250FF4CF0EF4219589919991D4
:100BD000533619F3533729F1533559F1BC0188279E
:100BE0009927E8945C3621F48991999168945591FC
:100BF000543639F446EF7EF077FF0DC08FEF9FEF4C
:100C00000AC055374AE039F0583540E121F05236F4
:100C100042E009F00895FF93EF937DDFEF91FF919C
:100C2000B7CFFF93EF93FC0181918030B9F360DF80
:100C3000FBCFFF93EF9368DFF1CFDF93CF93CDB777
:100C4000DEB72596A3DFCF91DF910895803FC1F4F1
:100C50008091F90387FD1092F9038091F8038111C7
:100C60000EC08091F90381110AC08091FA038111AD
:100C700006C08091FB03811102C01092F203089517
:100C8000813F29F48091F90318162CF3E6CF909157
:100C9000F803823F29F497FFE0CF1092F803DDCFED
:100CA000833F19F41916CCF3D8CF893F39F48091DA
:100CB000FA03181694F61092FA03CFCF8A3F29F45C
:100CC0008091FA0387FFC9CFF6CF8B3F39F480912B
:100CD000FB0387FFC2CF1092FB03BFCF8C3F29F4E9
:100CE0008091FB031816BCF3B8CF843F31F4809198
:100CF000F7038E7F8093F703B0CF853F21F4809177
:100D0000F7038D7FF7CF863F21F48091F7038B7F28
:100D1000F1CF873F21F48091F703877FEBCF883FA6
:100D200021F48091F7038F7EE5CF8D3F31F48091E0
:100D3000F1038E7F8093F10390CF8E3F21F4809159
:100D4000F1038D7FF7CF8F3F09F087CF8091F103BB
:100D50008B7FF0CF8091F10380FF0CC06091140174
:100D600070E075956795759567956115710559F1F1
:100D7000862F089581FF06C06091140170E075957B
:100D80006795F3CF6091140170E082FD0CC0609113
:100D9000F2036623A9F0209113018091140190E0E1
:100DA000621730F0BC0160387105F8F28FE70895E2
:100DB00070E00E946E23622F70E00E947F23F3CFC9
:100DC00061E070E0D5CF81E008958091F10380FF6C
:100DD00011C08091160190E065E070E00E946E23E2
:100DE000959587959595879580389105B0F50097ED
:100DF000B1F1089581FF0AC08091160190E065E08D
:100E000070E00E946E2395958795EECF82FF08C013
:100E10008091160190E065E070E00E946E23E4CFBF
:100E20003091F2033323B1F0209115018091160126
:100E300090E065E070E00E946E23BC013217A0F6DE
:100E4000832F90E00E946E23622F70E00E947F2328
:100E5000CB01CACF85E090E008958FE7089581E047
:100E60000895803F31F40E94E50681958093F9034F
:100E70000895813F19F40E94E506F8CF823F31F4CE
:100E80000E94E50681958093F8030895833F19F445
:100E90000E94E506F8CF893F29F40E94AA068093B4
:100EA000FA0308958A3F21F40E94AA068195F7CF9C
:100EB0008B3F31F40E94AA0681958093FB0308952D
:100EC0008C3F19F40E94AA06F8CF843F31F4809138
:100ED000F70381608093F7030895853F21F48091A3
:100EE000F7038260F7CF863F21F48091F703846097
:100EF000F1CF873F21F48091F7038860EBCF883FE3
:100F000021F48091F7038061E5CF8D3F31F480912A
:100F1000F10381608093F10308958E3F21F4809165
:100F2000F1038260F7CF8F3FB9F78091F1038460BE
:100F3000F1CF703180F4683070F4E72FF0E053E0C7
:100F4000EE0FFF1F5A95E1F7E60FF11DE95CFB4F2D
:100F50006491603819F480E090E00895E62FE295FE
:100F6000E77090E023E0880F991F2A95E1F78E0F34
:100F7000911D34E0880F991F3A95E1F7E62FEF7045
:100F8000E80FF92FF11DEE0FFF1FE050F849859192
:100F9000949108952FB7F8948091FC039091FD03EC
:100FA000A091FE03B091FF032FBF08954F925F926F
:100FB0006F927F929F92AF92BF92CF92DF92EF9209
:100FC000FF920F931F93CF93DF9300D000D01F9217
:100FD000CDB7DEB76B837C838D837A018C819D8155
:100FE000892B49F08FEFF81204C081E09FEF491779
:100FF00019F080E001C081E080FD67C00F2D10E096
:10100000CE2CD12C8B81882309F453C040906903E6
:1010100050906A0360906B0370906C03809103049E
:1010200090910404A0910504B0910604482A592A1D
:101030006A2A7B2A2FE1A22EB12C9A2CD301C2015D
:101040000A2C04C0B695A795979587950A94D2F770
:1010500080FD28C081E0A81AB10878F7912CF8012A
:1010600093E0EE0FFF1F9A95E1F7E359FC4FEC0D6B
:10107000FD1D9082B701892D0F900F900F900F905A
:101080000F90DF91CF911F910F91FF90EF90DF9024
:10109000CF90BF90AF909F907F906F905F904F9058
:1010A0000C949907B7018A2D0E949907019791F234
:1010B000D6CFF80183E0EE0FFF1F8A95E1F7E359E1
:1010C000FC4FEC0DFD1D9080D5CF90E080E00F909F
:1010D0000F900F900F900F90DF91CF911F910F9174
:1010E000FF90EF90DF90CF90BF90AF909F907F9058
:1010F0006F905F904F90089541E050E060E070E0A5
:1011000004C0440F551F661F771F8A95D2F740957C
:101110005095609570958091690390916A03A091B4
:101120006B03B0916C0384239523A623B72380938C
:10113000690390936A03A0936B03B0936C030895C3
:1011400041E050E060E070E004C0440F551F661FAE
:10115000771F8A95D2F78091690390916A03A091D5
:101160006B03B0916C03842B952BA62BB72B80932C
:10117000690390936A03A0936B03B0936C03089583
:101180008091680390913703981301C008958F5F91
:101190008770FACF1F93CF93DF9300D000D01F92B8
:1011A000CDB7DEB7942F4983252F5A836B837C8379
:1011B0008D834C815D8181E0452B31F02F3F19F407
:1011C00081E09F3F09F080E0182F117080FD36C04C
:1011D00049815A816B817C818D810E94D607E92FDC
:1011E000E295EF70E250EE30F8F4F0E0E650F74FA1
:1011F0000C9493230F090F09140914090F090F09FF
:101200001409140908090809110914091409110914
:10121000803C28F0803E40F0815F833028F011E070
:1012200003C093FB112710F9812F0F900F900F909F
:101230000F900F90DF91CF911F91089510E0F4CFA0
:10124000E091F303F091F403309721F00190F081E5
:10125000E02D099480E008951092E2001092E100E0
:10126000E0EEF0E0808181608083E8EDF0E0808155
:101270008F77808319BCE3E6F0E080818160808312
:101280001092ED0208950E942C09F89487E797E7E1
:10129000909301088093000887E090EBDC01809335
:1012A000070490930804A0930904B0930A0488E10A
:1012B0009CE00FB6F894A895809360000FBE9093C1
:1012C0006000FFCFFC018091190390911A038617EB
:1012D0009707A0F06115710529F49091E8009E77B9
:1012E0009093E80090E06115710551F4911108C0E8
:1012F0008091E80082FF32C080E00895BC01F2CF07
:1013000080911B038823B1F18530B1F18091E80011
:1013100083FD2EC08091E80082FDEACF8091E80035
:1013200080FFE1CF2091F20030E06115710519F0E6
:101330002830310558F091E02830310509F090E06F
:101340002091E8002E772093E800CDCF8191809303
:10135000F100615071092F5F3F4FE7CF80911B0370
:10136000882341F0853041F08091E80083FFC0CFB1
:1013700081E0089582E0089583E008952091E400DB
:101380003091E50085E69091EC0090FF06C09091C9
:10139000E80090FF06C080E008959091E80092FD7B
:1013A000FACF90911B03992391F0953091F0909191
:1013B000EB0095FD10C04091E4005091E50024172A
:1013C000350709F381509A01F1F684E0089582E02F
:1013D000089583E0089581E008958091130387FFC5
:1013E00013C08091E80082FF06C08091E8008B77EF
:1013F0008093E80004C080911B038111F2CF08950F
:1014000080911B038823D9F38091E80080FFF8CFF7
:101410008091E8008E77ECCF982F9093E900242FED
:10142000762F50E0891731F07091EC002091ED009B
:101430005091F00021FD07C09F5F953071F78093B8
:10144000E90081E008953091EB003E7F3093EB009E
:101450003091ED003D7F3093ED003091EB00316035
:101460003093EB007093EC002093ED005093F0006C
:101470002091EE0027FDE0CF80E008950F931F93A9
:10148000CF93DF93CDB7DEB7AA970FB6F894DEBF40
:101490000FBECDBF80911B03882309F44DC110916D
:1014A000E9001F708091EC0080FF38C080E8182BA5
:1014B0001092E9008091E80083FF3BC1E3E1F3E093
:1014C0008091F100819383E0EB31F807C9F78091B7
:1014D0001403833009F470C018F5813009F447C053
:1014E000823009F4DAC08091E80083FF14C1809152
:1014F0001303909114039A3008F00DC1E92FF0E026
:10150000EC57F54F0C9493235E0B840B8B0B840BE1
:101510008B0BE60B080C8B0B030D100D80E0C7CF77
:101520008A3009F4A9C08B3009F47DC08930D9F61E
:10153000809113038132B9F68091170390911803BB
:10154000892B89F68091E800877F8093E80080915D
:10155000E80082FF2CC08091F1008093EF0280911F
:10156000E8008B778093E8000E94ED09BCCF809162
:101570001303813A09F0B7CF8091E800877F809309
:10158000E8008091170390911803892B61F060E0C7
:1015900090E080E070E00E9462098091E8008B7723
:1015A0008093E800A0CF60E280EF92E0F3CF8091DB
:1015B0001B038111CCCF97CF80911303813A09F09F
:1015C00092CF8091170390911803892BA1F48091F9
:1015D000E800877F8093E8008091E80080FFFCCFDF
:1015E000809112018093F1008091E8008E778093C2
:1015F000E8000E94ED09809117039091180301976C
:1016000009F071CF8091E800877F8093E800809196
:10161000E80080FFFCCF809110018093F100809161
:10162000E8008E779FCF80911303813209F05BCF62
:101630008091170390911803892B59F48091E80049
:10164000877F8093E8000E94ED09809115038093C5
:1016500012018091170390911803019709F043CF6D
:101660008091E800877F8093E8000E94ED098091D7
:1016700015038093100137CF80911303813209F055
:1016800032CF8091E800877F8093E8000E94ED09C7
:10169000809116038093000426CF80911303813A32
:1016A00009F021CF8091E800877F8093E800809146
:1016B000E80080FFFCCF80910004AFCF803889F034
:1016C000823849F5809117038F70853020F580931B
:1016D000E9008091EB0085FB882780F91092E900F2
:1016E00006C0809110039091110391118260909136
:1016F000E800977F9093E8008093F1001092F1004A
:101700008091E8008E7731C0282F2D7F21F4882327
:10171000F1F0823079F18091E80083FF0AC0809176
:10172000E800877F8093E8008091EB0080628093DF
:10173000EB001F701093E900AA960FB6F894DEBF75
:101740000FBECDBFDF91CF911F910F910895809172
:101750001503813001F7933009F080E08093110385
:101760001092E9008091E800877F8093E8000E9452
:10177000ED09D1CF809115038111F2CF809117032C
:101780008F702FEF280F243030F68093E9002091DE
:10179000EB0020FFE5CF933031F48091EB008062C5
:1017A0008093EB00DDCF9091EB0090619093EB0084
:1017B00021E030E001C0220F8A95EAF72093EA0089
:1017C0001092EA008091EB008860EACF8111A3CFEC
:1017D000009115030F778091E3008078802B809330
:1017E000E3008091E800877F8093E8000E94ED0984
:1017F0008091E80080FFFCCF8091E30080688093B7
:10180000E30083E0011101C082E080931B0383CFDA
:101810008058823008F07FCF209115033091160355
:101820002C3DA3E03A07A1F583E08A838AE289830D
:101830004FB7F894DE01139620E03EE051E2E32F2B
:10184000F0E050935700E49120FF03C0E295EF7061
:101850003F5FEF708E2F90E0EA30C0F0C7968D9317
:101860009D932F5F243159F74FBF8091E800877F08
:101870008093E8006AE270E0CE0101960E9462095E
:101880008091E8008B778093E80045CFC096E7CF42
:101890008091170390911803432F5527433051052A
:1018A00009F44FC078F54130510509F445C084E58D
:1018B00090E0ECE5F2E04230510509F02CCF2091A8
:1018C000E800277F2093E8002091190330911A0344
:1018D0008217930708F49C0140E02115310509F0B7
:1018E00063C0411161C08091E80082FDC9CF809141
:1018F0001B03882329F2853019F28091E80083FFC9
:10190000F2CFBECF4132510509F43FC042325105FA
:1019100009F001CF8330910508F0FDCEFC01EE0FF8
:10192000FF1FE35EFE4F0190F081E02D865E9E4F2B
:10193000DC018C9190E01DC082E190E0E0EBF2E0F0
:10194000BECF332721303105C1F060F022303105A0
:1019500009F0E1CEE2ECF2E0E4918E2F90E0E2ECCF
:10196000F2E007C0E4E0F3E0E4918E2F90E0E4E0E1
:10197000F3E0009709F4CFCEA2CFE4EFF2E0E491D8
:101980008E2F90E0E4EFF2E0F4CF8330910508F081
:10199000C2CE880F991FFC01ED5DFE4F0190F081D2
:1019A000E02D89E090E08BCF80911B03882309F420
:1019B00067CF853009F464CF8091E80083FD60CF64
:1019C0008091E80082FD8FCF8091E80080FF85CF75
:1019D0008091F20090E02115310519F088309105D1
:1019E00050F041E0089709F040E08091E8008E77E0
:1019F0008093E80072CF44914093F10031962150DA
:101A000031090196E8CF803809F085CE8091E80051
:101A1000877F8093E800809112038093F10070CE5D
:101A2000811179CE00911503023008F074CE8091B7
:101A3000E800877F8093E800009312030E94ED097D
:101A4000002399F084E080931B0342E261EC81E083
:101A50000E940C0A42E061EC82E00E940C0A46E21D
:101A600061EC83E00E940C0A56CE8091E30087FD72
:101A7000E9CF81E0E8CFEF92FF920F931F93CF93CE
:101A80007C018B010E94BE09C82F811119C0809171
:101A9000E80085FD0DC08091E8008E778093E80016
:101AA0000E943E0A0E94BE09882389F3C82F08C0FD
:101AB000F70181917F018093F1000150110939F7FD
:101AC0008C2FCF911F910F91FF90EF9008958091EF
:101AD000EF0208958091D802811113C09FB7F89446
:101AE0004091FC035091FD036091FE037091FF0350
:101AF0009FBF443C59406105710518F081E0809317
:101B0000D8020895EF92FF920F931F93CF93DF9324
:101B1000D82F0FB607FE46C080911B03843079F0A2
:101B20008091030190E001962091050130E082232D
:101B30009323209104012817190609F0C9C00E94B7
:101B40006A0D81110FC08091030190E001962091F0
:101B5000050130E082239323209104012817190600
:101B600009F0B6C00E94CA078C01C091E900CF708D
:101B70008091EC0080FD37C080E0C82B83E080932B
:101B8000E90085E0E82E8091EB0085FD08C080919A
:101B9000EB0080FF04C08091EE0087FD44C0CF7051
:101BA000C093E900E09103018E2F90E0019620910F
:101BB000050130E0822393232091040128171906A0
:101BC00009F47EC08091010190910201E80FF92F84
:101BD000F11DD083809103018F5F909105018923CE
:101BE000809303016DC080E8C8CFE0910101F091BE
:101BF0000201E80FF11D90818F5F20910501822382
:101C0000809304019093F1008091E80085FD0BC062
:101C10008091E80080FF07C08091E8008E77809374
:101C2000E800E0920001809104019091030198176F
:101C300041F19091E80095FDD8CF80E029C0109245
:101C4000F1002EC08091030190E0019620910501E2
:101C500030E082239323209104012817190609F00C
:101C60009ECFF0900001FF2009F499CF0E94CA078F
:101C70008017910709F487CFFA94F09200018C0144
:101C800082CF8091E80085FFD8CFD093F10081E02A
:101C90009091F200992379F09091E80090FF0BC0A9
:101CA0009091E80095FDCBCF9091E8009E779093BE
:101CB000E800E0920001882329F2CF70C093E90088
:101CC00080E0DF91CF911F910F91FF90EF900895E9
:101CD000E091030177CF9091D6028091D7028917C6
:101CE00051F0E92FF0E0EA52FE4F80819F5F909320
:101CF000D60290E008958FEF9FEF08958330C9F1E9
:101D000028F4813061F0823019F10895853009F4AA
:101D100052C008F43FC0863009F45EC00895809137
:101D20001801681790F4861B8093180180911801A0
:101D30001F928F938FEF98E09F938F930E941D06C1
:101D40000F900F900F900F90089510921801EECF02
:101D500080911701681750F4861B809317018091BA
:101D600017011F928F938DEE98E0E6CF1092170126
:101D7000F6CF80911601681750F4861B80931601E8
:101D8000809116011F928F938AED98E0D5CF109223
:101D90001601F6CF80911501681750F4861B8093C9
:101DA0001501809115011F928F9385EC98E0C4CFA7
:101DB00010921501F6CF80911401681750F4861B1C
:101DC00080931401809114011F928F938CEA98E004
:101DD000B3CF10921401F6CF80911301681750F41D
:101DE000861B80931301809113011F928F9381E9C9
:101DF00098E0A2CF10921301F6CF833009F445C0CA
:101E000028F4813061F0823049F10895853009F479
:101E10006AC008F451C0863009F47CC008958091EE
:101E20001801482F460F5527551F4F3F510594F471
:101E3000680F60931801809118011F928F9382E8B8
:101E400098E09F938F930E941D060F900F900F9024
:101E50000F9008958FEF80931801EDCF80911701B7
:101E6000482F460F5527551F4F3F510554F4680F13
:101E700060931701809117011F928F9380E798E07C
:101E8000E0CF8FEF80931701F5CF80911601482F97
:101E9000460F5527551F4F3F510554F4680F609367
:101EA0001601809116011F928F938DE598E0C9CF9E
:101EB0008FEF80931601F5CF80911501482F460FC3
:101EC0005527551F4F3F510554F4680F6093150176
:101ED000809115011F928F9388E498E0B2CF8FEF25
:101EE00080931501F5CF80911401482F460F552797
:101EF000551F4F3F510554F4680F609314018091B2
:101F000014011F928F938FE298E09BCF8FEF809305
:101F10001401F5CF80911301482F460F5527551F07
:101F20004F3F510554F4680F6093130180911301E2
:101F30001F928F9384E198E084CF8FEF80931301F9
:101F4000F5CF90911201992369F190911101992394
:101F500049F1E82FE695E695E695EF3191F0F0E04E
:101F6000EA54FE4F877021E030E0A90102C0440F1F
:101F7000551F8A95E2F7CA01809591818923818353
:101F800008959091020490FF19C01F928F9389E1E8
:101F900094E09F938F930E941D060F900F900F90D7
:101FA0000F900895E6EBF1E024ED31E09281891382
:101FB00001C0128231962E173F07C1F70895909104
:101FC0001201992349F190911101992329F1E82FE8
:101FD000E695E695E695EF3171F0F0E0EA54FE4FB4
:101FE000877021E030E001C0220F8A95EAF78181F5
:101FF000822B818308959091020490FF1EC01F924E
:102000008F938BEF93E09F938F930E941D060F9009
:102010000F900F900F900895A8EBB1E0EFEF90E0D4
:102020002D91821751F0EF3F19F4211101C0E92FD2
:102030009F5F9E31A9F7EF3F09F408950E2E000C23
:10204000FF0BEA54FE4F82830895CF93DF932091D4
:102050001E0330911F032817390701F190931F03C6
:1020600080931E03E091F303F091F4033097B1F0F5
:10207000EC010084F185E02D0995809102048570C2
:10208000853061F4DF93CF9386E193E09F938F9344
:102090000E941D060F900F900F900F90DF91CF912F
:1020A0000895CF93DF9320911C0330911D032817CF
:1020B000390701F190931D0380931C03E091F30312
:1020C000F091F4033097B1F0EC010680F781E02D38
:1020D0000995809102048570853061F4DF93CF9378
:1020E00088E093E09F938F930E941D060F900F90BE
:1020F0000F900F90DF91CF9108958CE599E00E94A9
:1021000084051F9281E08F931F9285E08F938EE06C
:1021100099E09F938F930E941D060F900F900F9050
:102120000F900F900F900895CF93DF9300D000D0C1
:102130001F92CDB7DEB78091020483FF7BC08EED86
:1021400094E00E9484058091F7031F928F9389ED9C
:1021500094E09F938F930E941D0687ED94E00E9468
:1021600084058091F803282F082E000C330B3F9331
:102170008F9384ED94E09F938F930E941D0682EDD0
:1021800094E00E9484058091F903282F082E000C0A
:10219000330B3F938F938FEC94E09F938F930E9428
:1021A0001D068DEC94E00E9484058091FA03282F8F
:1021B000082E000C330B3F938F938AEC94E09F938F
:1021C0008F930E941D0688EC94E00E948405809104
:1021D000FB03282F082E000C330B3F938F9385ECC5
:1021E00094E09F938F930E941D0682EC94E00E94DE
:1021F00084058091F2031F928F938FEB94E09F935D
:102200008F930E941D068DEB94E00E9484058091BF
:10221000F1031F928F938AEB94E09F938F930E9418
:102220001D0687EB94E00E9484050FB6F894DEBF8C
:102230000FBECDBF85E0E7EFF3E0DE011196019020
:102240000D928A95E1F7E091F303F091F403309752
:10225000A1F10480F581E02DCE01019609958091D0
:10226000020483FF2AC08D81282F082E000C330B17
:102270003F938F938C81282F082E000C330B3F93B4
:102280008F938B81282F082E000C330B3F938F9355
:102290008A81282F082E000C330B3F938F9389815E
:1022A0001F928F9381E095E09F938F930E941D066C
:1022B0000FB6F894DEBF0FBECDBF0E94CA07909341
:1022C000F6038093F5030F900F900F900F900F90EF
:1022D000DF91CF9108950F931F93CF93DF93809158
:1022E000EF039091EE03892B8093B6019091ED035B
:1022F000992389F0892B8093B601E7EBF1E026ED75
:1023000031E080E0919191118F5F2E173F07D1F757
:1023100081111092ED03E091F303F091F4033097F3
:10232000B1F10280F381E02D86EB91E00995809177
:10233000020482FF2CC080FF04C080EF93E00E9463
:102340008405D0E0C0E00AEE13E08091020480FF33
:102350000EC0FE01EA54FE4F80811F928F931F939F
:102360000F930E941D060F900F900F900F902196D3
:10237000C032D10551F78091020480FF08C088EE79
:1023800093E0DF91CF911F910F910C948405DF9121
:10239000CF911F910F9108951092EF031092EE03C9
:1023A000E7EBF1E0119281E0E63DF807D9F70E94F2
:1023B0006B1185E0E7EFF3E0DF011D928A95E9F705
:1023C0001092F2031092F1030E94941090E080E0CA
:1023D0000E94511090E080E00C942510CF93C82FFC
:1023E0001F928F9387E59AE09F938F930E941D061B
:1023F00081E090E0A0E0B0E004C0880F991FAA1F20
:10240000BB1FCA95D2F78093030490930404A09352
:102410000504B09306040F900F900F900F90CF918A
:102420000C94CC11882341F080959091EF0389237F
:102430008093EF030C946B110895882339F09091E9
:10244000EF03892B8093EF030C946B110895CF93C6
:10245000873208F050C08E3108F020C1803109F475
:10246000A9C0F8F4873009F488C048F4863009F42C
:1024700071C08FED95E00E948405C0E027C08B30CD
:1024800009F463C08E30A9F790910204892F8B7FE5
:1024900092FF84608093020482FF89C08CEB97E0F6
:1024A0007DC0863109F4ADC0A0F4813111F70E94DE
:1024B000CC11C091110181E0C827C0931101CC2338
:1024C00009F4E9C08CEE95E00E9484058C2FCF9131
:1024D0000895893109F47EC08B3159F69091020438
:1024E000892F8D7F91FF82608093020481FF5CC001
:1024F00089ED97E053C0883341F158F4893229F0CF
:10250000853319F0873209F0B4CF80E00E94EE11D4
:1025100032C08334D1F328F48A3308F4AACF895324
:10252000F5CF883409F0A5CF0E94CC118FEF97E04A
:102530000E9484052FEF83ED90E32150804090406E
:10254000E1F700C000000E9443098DE195E00E9480
:10255000840511C080910204817F8E7F80930204E4
:1025600088EB95E00E94840580E198E00E94840554
:1025700081E080930104C1E0A9CF8091020480FF33
:102580000BC082EF97E00E94840580910204817F56
:102590008E7F80930204EFCF86EE97E00E94840541
:1025A000809102048160F5CF8BEC97E0D0CF8CEA6C
:1025B00097E0CDCF90910204892F877F93FF8860A9
:1025C0008093020483FF03C080EA97E0E7CF83E9AA
:1025D00097E0BDCF84E897E00E94840584E597E00A
:1025E0000E9484058EE097E00E94840588EE96E0C4
:1025F0000E9484058EE996E00E94840582E796E0B9
:10260000A6CF84E696E00E9484050E9420091F92CE
:102610008F938AE496E09F938F930E941D0680918A
:1026200012011F928F9383E396E09F938F930E94F2
:102630001D06809100041F928F9380E296E09F9385
:102640008F930E941D06809111011F928F938DE040
:1026500096E09F938F930E941D062FB7F894809168
:10266000FC039091FD03A091FE03B091FF032FBFE7
:10267000BF93AF939F938F9386EF95E09F938F9334
:102680000E941D068DB79EB746960FB6F8949EBF62
:102690000FBE8DBF70CF81EE95E059CF8D5136CFF3
:1026A000CF93DF93882309F45DC09EE7980F9330A2
:1026B00020F5C2E0D9E3823831F0C4E0D7E48338B2
:1026C00011F4C1E0D3E50E9420098C2309F44AC02B
:1026D0008D2F0E94DF0F0E946B112FEF41EE54E00F
:1026E000215040405040E1F700C000008D2F0E9473
:1026F000A10FDF91CF910C946B119CEF980F913A41
:10270000B0F390E2980F983088F4877021E030E0C1
:10271000A90102C0440F551F8A95E2F7CA018095AE
:102720009091EF0389238093EF03E3CF9BE5980F0C
:10273000933030F490E080E0DF91CF910C94511011
:1027400098E5980F973130F490E080E0DF91CF91D9
:102750000C942510803F30F00E942606DF91CF9127
:102760000C949410DF91CF910895CF93DF93882339
:1027700009F4C6C0C82F8EE78C0F833030F5C238FD
:10278000F1F0C338F9F0C4E0D7E40E9420098C23AB
:1027900009F0B6C08D2F0E94DF0F0E946B112FEF42
:1027A00081EE94E0215080409040E1F700C00000AD
:1027B0008D2F0E94A10FDF91CF910C946B11C2E07D
:1027C000D9E3E3CFC1E0D3E5E0CF8CEF8C0F813AC2
:1027D00008F043C1809101048130C1F048F082309B
:1027E00009F445C0109201048C2F0E94DF0FE3CF43
:1027F00080912C0380FD04C08091B6018434A1F740
:102800008C2F0E94271281117BC0EECF80912C0368
:1028100080FDF6CF8091B601843491F3C431C9F0C4
:1028200048F4CB3059F0C031C1F086E293E00E9409
:10283000840511C0C93269F0C833B9F788EB95E057
:102840000E9484058CE293E00E94840581E08170FF
:10285000DACF1092010480E0FACF0E947D1088E266
:1028600093E00E94840582E080930104EFCFC4329C
:10287000D0F4CE3108F0C0C0CB30E9F048F4C73016
:1028800009F4D1C085ED93E0DF91CF910C948405DC
:10289000C331C9F1C431B1F780913003882349F1C4
:1028A000109230030AC0CB3409F4BBC0C0F4C93263
:1028B00099F3C83339F70E947D1080913003882343
:1028C00009F4C8C01F928F938FEC93E09F938F936E
:1028D0000E941D060F900F900F900F9011C0C135F0
:1028E00009F499C0C23509F490C0CE3459F66AE0B3
:1028F00093C084EE93E00E94840581E080930104FC
:10290000DF91CF9108958EEB93E00E9484058CEACD
:1029100093E00E948405809118011F928F9389EAA9
:1029200093E09F938F930E941D0687EA93E00E9495
:10293000840585E993E00E948405809117011F9228
:102940008F9382E993E09F938F930E941D0680E905
:1029500093E00E94840581E893E00E9484058091C1
:1029600016011F928F938EE793E09F938F930E949F
:102970001D068CE793E00E9484058BE693E00E949D
:102980008405809115011F928F9388E693E09F93B1
:102990008F930E941D0686E693E00E94840581E5E0
:1029A00093E00E948405809114011F928F938EE41E
:1029B00093E09F938F930E941D068CE493E00E9406
:1029C000840585E393E00E948405809113011F92A2
:1029D0008F9382E393E09F938F930E941D0680E381
:1029E00093E00E9484058DB79EB748960FB6F89481
:1029F0009EBF0FBE8DBF61CFCE51EC2FF0E0E75DE3
:102A0000FE4F80818093300358CF61E08091300386
:102A10000E94FD0E52CF61E0809130030E947E0E35
:102A20004CCF6AE0F3CF8EE18093180182E380936C
:102A300017018AE08093160184E18093150188E0F4
:102A40008093140188E28093130187ED93E00E9444
:102A5000840533CF8CEC93E017CF80E28C0F883065
:102A600068F4C77021E030E001C0220FCA95EAF790
:102A70008091EF03822B8093EF039DCE8BE58C0F2B
:102A8000833070F481E890E0C53A31F083E890E05B
:102A9000C63A11F482E890E0DF91CF910C94511086
:102AA00088E58C0F873108F069C082EE90E0C83A63
:102AB00009F460C089EE90E0C93A09F45BC08AEE7F
:102AC00090E0CA3A09F456C085EB90E0CB3A09F49D
:102AD00051C086EB90E0CC3A09F44CC083EB90E017
:102AE000CD3A09F447C084EB90E0CE3A09F442C0F5
:102AF00087EB90E0CF3AF1F188EB90E0C13BD1F168
:102B00008DEC90E0C03BB1F183E891E0C23B91F1E4
:102B10008AE891E0C33B71F182E991E0C43B51F155
:102B200084E991E0C53B31F181E292E0C63B11F1CD
:102B300083E292E0C73BF1F084E292E0C83BD1F03F
:102B400085E292E0C93BB1F086E292E0CA3B91F0A7
:102B500087E292E0CB3B71F08AE292E0CC3B51F00D
:102B60008FE690E0CD3B31F090E080E0CE3B11F479
:102B700080E790E0DF91CF910C942510CF3B69F472
:102B80000E94CC119FEF20E782E0915020408040CE
:102B9000E1F700C000000E944309C03F08F4B0CE36
:102BA0008C2F0E943107DF91CF910C949410CF921B
:102BB000DF92EF92FF920F931F93CF93DF9300D09A
:102BC00000D01F92CDB7DEB76C0185E0F601DE01C3
:102BD000119601900D928A95E1F7F601408151819D
:102BE0002381348191E02115310531F05F3F19F4E3
:102BF00091E04F3F09F090E090FD99C0F60102810D
:102C0000F580F2949FE0F92249835A830B83722F57
:102C10003D832C83602F8D810E94D607182FE92FCA
:102C2000E295EF70EF3008F082C0F0E0E65EF94E1A
:102C30000C9493232916291667166716FA162C1773
:102C4000CB16CB1642179716181818189716971602
:102C5000C318F92FFF70FF2E907F19F0F29480EFC8
:102C6000F8220023C9F0FF2039F08091EE03F82A02
:102C7000F092EE030E946B11812F0F900F900F9036
:102C80000F900F90DF91CF911F910F91FF90EF90D8
:102C9000DF90CF900C94B513812F0E945013FF202A
:102CA00009F445C0F0948091EE03F822F092EE030F
:102CB0000F900F900F900F900F90DF91CF911F9179
:102CC0000F91FF90EF90DF90CF900C946B11892FB4
:102CD0008F70907F903211F08295807F112379F070
:102CE000113009F449C0002309F471C0FF2059F0E4
:102CF000F601958190FF5BC09F70958304C000230F
:102D000021F1F1100FC00F900F900F900F900F90C6
:102D1000DF91CF911F910F91FF90EF90DF90CF90B7
:102D20000C941D1221E0F212EECF8093ED030F9070
:102D30000F900F900F900F90DF91CF911F910F91F7
:102D4000FF90EF90DF90CF900895F11011C0109296
:102D5000ED030F900F900F900F900F90DF91CF9198
:102D60001F910F91FF90EF90DF90CF900C94121273
:102D700091E0F912ECCFDBCF002349F0E5E0EF154D
:102D8000B0F29091EF03982309F4BDCFE2CFF4E0C5
:102D9000FF1568F2DECF892F8F70907F903611F08B
:102DA0008295807F002399F0FF2009F4ACCF812F1A
:102DB0000E94B513193309F0DAC1FFEF21EE84E068
:102DC000F15020408040E1F700C00000B0CFFF206C
:102DD00009F4BFCF812F0F900F900F900F900F909D
:102DE000DF91CF911F910F91FF90EF90DF90CF90E7
:102DF0000C945013892F869586958370C1F081308D
:102E000009F095CF812F9370011102C090E080E00E
:102E10000F900F900F900F900F90DF91CF911F9117
:102E20000F91FF90EF90DF90CF900C942510812FA1
:102E30009370011102C090E080E00F900F900F900E
:102E40000F900F90DF91CF911F910F91FF90EF9016
:102E5000DF90CF900C945110002389F00E9431072D
:102E60000F900F900F900F900F90DF91CF911F91C7
:102E70000F91FF90EF90DF90CF900C9494100E94F0
:102E80002606EECF892F837009F064C001114FCF61
:102E9000812F829586958770880F880F412F4F70FC
:102EA000C42ED12CF12CE12C082E04C0CC0CDD1C3E
:102EB000EE1CFF1C0A94D2F740E050E0BA0114FF68
:102EC00011C00FE010E020E030E004C0000F111F3F
:102ED000221F331F8A95D2F7B901A801409550955A
:102EE00060957095009103041091040420910504ED
:102EF000309106049695969593709230E9F028F5F6
:102F0000913089F04C295D296E297F294023512376
:102F100062237323409303045093040460930504D5
:102F20007093060404CFC02AD12AE22AF32A4C293E
:102F30005D296E297F29EECF4C295D296E297F29D5
:102F40004027512762277327E5CF4023512362236F
:102F50007323EDCF8695002311F0892F817088238C
:102F600009F4E5CE812F829586958770880F880FAA
:102F7000412F4F70C42ED12CF12CE12C082E04C00F
:102F8000CC0CDD1CEE1CFF1C0A94D2F740E050E094
:102F9000BA0114FF11C00FE010E020E030E004C0DF
:102FA000000F111F221F331F8A95D2F7B901A80104
:102FB00040955095609570950091690310916A0352
:102FC00020916B0330916C03969596959370923097
:102FD000E9F028F5913089F04C295D296E297F2987
:102FE00040235123622373234093690350936A0360
:102FF00060936B0370936C039ACE0C291D292E29C4
:103000003F29402B512B622B732BEECF4C295D298E
:103010006E297F294027512762277327E5CF402358
:103020005123622373234C295D296E297F29DCCF2C
:10303000803F09F440C060F480E4810F803200F1E9
:10304000002309F49BC0F110B2CE892F8F7164C0A8
:10305000823F09F470C008F45BC0833F89F7002306
:1030600009F47CC0292F2F7181E090E0A0E0B0E04E
:1030700004C0880F991FAA1FBB1F2A95D2F73AC018
:10308000E12FE071FE2E892F8F71002351F00E94F5
:10309000A008812F8295807FF11035CE812F8F700F
:1030A00032CE0E947C08812F8295807FF11051CE14
:1030B000812F8F704ECE002331F1F4E0FF1508F41C
:1030C00036CE292F2F7181E090E0A0E0B0E004C05F
:1030D000880F991FAA1FBB1F2A95D2F74091690339
:1030E00050916A0360916B0370916C03842795275C
:1030F000A627B7278093690390936A03A0936B0375
:10310000B0936C0314CE25E02F1508F410CED9CF60
:10311000892F8F71002399F00F900F900F900F90CF
:103120000F90DF91CF911F910F91FF90EF90DF9063
:10313000CF900C94A008892F8F71002369F30F9012
:103140000F900F900F900F90DF91CF911F910F91E3
:10315000FF90EF90DF90CF900C947C081092690361
:1031600010926A0310926B0310926C03E0CD13353A
:1031700009F423CE173409F0DACD1FCEF1102ACE90
:10318000892F8F71DCCF8111D2CD002309F4CFCDEF
:103190000E94CC118FEF90E7E2E081509040E04038
:1031A000E1F700C000000E9443091F93CF93DF9313
:1031B00080913603807FB1F480913303882391F0AE
:1031C0002091680310913703C0913103D0913203ED
:1031D000A0913403B091350341E0CF3F09F040E0C6
:1031E000121304C0DF91CF911F91089581E01097D1
:1031F00021F0842FDF3F09F080E030E080FD33C014
:10320000C90166E070E00E946E23FC01E85CFC4F9F
:1032100081818D1328C080818C1325C0828181110A
:1032200022C0838194818A1B9B0B883C9105D8F432
:10323000809136038F70806180933603C90166E008
:1032400070E00E946E23FC01E35CFC4F90819F7054
:103250009061908381E393E00E94D715DF91CF9135
:103260001F910C94C0082F5F3F4F2770B9CF9F92DA
:10327000AF92BF92CF92DF92EF92FF920F931F9384
:10328000CF93DF93CDB7DEB761970FB6F894DEBF6B
:103290000FBECDBF8C0185E0F801DE011D960190C7
:1032A0000D928A95E1F7F80140812181F280C38077
:1032B000D480909131033091320360913403709146
:1032C000350381E06115710531F03F3F19F481E06C
:1032D0009F3F09F080E0F82FF1709F2E80FD4EC1D6
:1032E00081E3A82E83E0B82EE0903303F601E61BBD
:1032F000F70BEE2009F404C180913603582F507F5C
:10330000E83CF10508F0BDC0511183C0EF2C321329
:1033100022C0941320C0F1101EC08F708061809372
:103320003603C5010E94D71580913603F8018583C5
:103330008E2D61960FB6F894DEBF0FBECDBFDF9124
:10334000CF911F910F91FF90EF90DF90CF90BF90A2
:10335000AF909F90089581E0C114D10431F02F3FC8
:1033600019F481E04F3F09F080E080FD14C081E056
:103370008F25F82FF170BF2EE0916803309137034D
:1033800080FD22C0FF20A1F28091360381608093EE
:103390003603E12CCDCF80E0ECCFF0E0CF0166E04A
:1033A00070E00E946E23DC01A85CBC4F11968C91EA
:1033B0001197281307C08C91481304C012968C9162
:1033C0008F11E0CF3196E770E313E7CF7C2DD98AD8
:1033D000C88A522F6F2D89890E94D607292F2295DE
:1033E0002F70223050F0243078F49F7051F0F801A3
:1033F0009581907F31F4E92C9BCF9F7011F0882349
:10340000D1F3805E8830B8F3C8010E94D7159B2C99
:10341000F2CF321306C0941304C0F801FF2009F460
:103420008AC04D872E87FF867C2DD98AC88A522F65
:103430006F2D89890E94CA08882309F4AEC0FF2035
:1034400009F4ABC080913603803270F020913103D3
:103450003091320338872F831986DB86CA868C87A2
:10346000CE0107960E94D71586E0F801A1E3B3E0EC
:1034700001900D928A95E1F70E94D518EE24E3940D
:1034800057CF51110AC081E393E00E94D71586E01F
:10349000F50111928A95E9F77CCF32130FC094138E
:1034A0000DC0F1100BC0F8018583C8010E94D7152B
:1034B00086E0F50111928A95E9F73ACF4D872E877C
:1034C000FF867C2DD98AC88A522F6F2D89890E9448
:1034D000CA08882309F461C0FF2009F45EC0809106
:1034E0003603803208F220913103309132033A835F
:1034F00029831B82DD82CC828E83CE010196B2CFDE
:10350000E83CF105A8F6EF2CFF2009F446C0321381
:103510001FC094131DC08091360380FD10C0982FEA
:10352000907F69F0F8018583903F31F0982F907F6C
:10353000905F8F70892B8583C8010E94D71586E024
:10354000F801A1E3B3E001900D928A95E1F7F0CE86
:103550004D872E87FF867C2DD98AC88A522F6F2DE2
:1035600089890E94CA0881117FCF809136038160CA
:1035700080933603C8010E94D715DACEFF2069F088
:103580004D872E87FF867C2DD98AC88A522F6F2DB2
:1035900089890E94CA08811167CFC8010E94D71586
:1035A0006DCFCF93DF93CDB7DEB767970FB6F894A3
:1035B000DEBF0FBECDBF4B8B5C8B6D8B7E8B8F8B3D
:1035C0001A8A198A85E0FE017396DE011D96019024
:1035D0000D928A95E1F786E0FE013D96DE01179691
:1035E00001900D928A95E1F7CE0107960E94371956
:1035F000811138C086E0FE013796DE0111960190F8
:103600000D928A95E1F79F8188852A853B85232B3A
:1036100039F08F3F19F481E09F3F19F080E001C03D
:1036200081E080FD1FC08091370390E09C012F5FF7
:103630003F4F27703327409168034217130661F10B
:1036400066E070E00E946E23DC01A85CBC4F96E04F
:10365000FE01319601900D929A95E1F72093370380
:103660000E94C0088091680390913703891709F17F
:1036700090E066E070E00E946E23885C9C4F0E94A0
:1036800037198823B1F08091680390E00196877024
:10369000992780936803E6CF0E94CC1110923703DC
:1036A0001092680386E0E1E3F3E0DF011D928A9562
:1036B000E9F767960FB6F894DEBF0FBECDBFDF9176
:1036C000CF910895CF93DF9300D01F92CDB7DEB78F
:1036D00020911B03243041F520911001222321F178
:1036E00023E029839B838A8382E08093E9008FEF24
:1036F0009091E800815095FD06C095ED9A95F1F7FF
:1037000000008111F5CF8091E80085FF0DC050E0E9
:1037100040E063E070E0CE0101960E943B0D809195
:10372000E8008E778093E8000F900F900F90DF9164
:10373000CF910895CF93DF9300D01F92CDB7DEB71E
:1037400020911B03243081F520911001222361F187
:1037500019821A821B8222E029838138910520F088
:10376000805891099B838A8382E08093E9008FEFE0
:103770009091E800815095FD06C095ED9A95F1F77E
:1037800000008111F5CF8091E80085FF0DC050E069
:1037900040E063E070E0CE0101960E943B0D809115
:1037A000E8008E778093E8000F900F900F90DF91E4
:1037B000CF91089520911B03243049F522E02093F6
:1037C000E9002FEF3091E800215035FD06C035EDBE
:1037D0003A95F1F700002111F5CF2091E80025FF7F
:1037E00016C02091100150E040E063E070E0222319
:1037F00039F021E02093F10050E040E065E070E016
:103800000E943B0D8091E8008E778093E800089538
:10381000CF93DF9320911B032430D9F4EC018091E6
:1038200012018823F1F0809111018823D1F081E009
:103830008093E90081E8815021F09091E80095FFA4
:103840000BC08091E80050E040E060E270E085FD50
:103850001AC0DF91CF9108959AE29A95F1F700C0CE
:10386000EACF81E08093E90081E8815021F09091D6
:10387000E80095FF19C08091E80085FFEACF50E08D
:1038800040E068E070E0CE010E943B0D8091E800CE
:103890008E778093E80080E2FE01A0EFB2E0019015
:1038A0000D928A95E1F7D5CFEFE3F1E03197F1F78B
:1038B00000C00000DACFEF92FF921F93CF93DF9307
:1038C00085E5E82E81E0F82E1FEF0E946B0EEC01DB
:1038D0001150CF3FDC0741F48FE99FE00197F1F7EA
:1038E00000C000001111F1CF5C9A85ED8A95F1F7C7
:1038F00000005C98DF93CF93FF92EF920E941D0629
:103900000F900F900F900F90CB3FD105E9F2CE01B1
:10391000DF91CF911F91FF90EF900895CF93C82F23
:103920001F928F938EE491E09F938F930E941D06C8
:103930005C9A8FE99FE00197F1F700C000000F90BB
:103940000F900F900F908091C80085FFFCCFC0931F
:10395000CE008FE99FE00197F1F700C000005C986E
:10396000CF910895EF92FF920F931F93CF93DF9320
:103970000E946B0E182FC82FD92FCF3FDC0709F0FC
:1039800050C08091D902882309F444C00DE611E0AB
:103990002CE5E22E21E0F22E8DE90E948E1C0E9481
:1039A0005B1CEC01CF3FDC0791F18091020480FFAA
:1039B0000AC0DF93CF931F930F930E941D060F90B1
:1039C0000F900F900F90CA3FD10509F58091D90251
:1039D0000E948E1C0E945B1CEC01CF3FDC07E1F2D1
:1039E0008091020480FF10C0DF93CF938091D902B1
:1039F0001F928F93FF92EF920E941D060F900F90DF
:103A00000F900F900F900F90CA3FD10529F610929A
:103A1000D90280E0DF91CF911F910F91FF90EF903D
:103A200008959F931F938CE791E09F938F930E943B
:103A30001D06812F9E0193E0369527959A95E1F713
:103A40009C2F977061E070E0DB0102C0AA0FBB1FE2
:103A50009A95E2F7E22FEF70F0E00F900F900F9041
:103A60000F90E05EFC4F408150E04A235B2317FF3C
:103A700018C0452B79F02F703327F901E05EFC4F19
:103A8000C770DD2701C0660FCA95EAF7609590817F
:103A9000692360835C9A95ED9A95F1F700005C9834
:103AA000B9CF452BB9F72F703327F901E05EFC4FF2
:103AB000C770DD2701C0660FCA95EAF79081692BB0
:103AC000E8CF78941F920F920FB60F9211248F9324
:103AD0009F93AF93BF938091FC039091FD03A091BE
:103AE000FE03B091FF030196A11DB11D8093FC035D
:103AF0009093FD03A093FE03B093FF03BF91AF919A
:103B00009F918F910F900FBE0F901F9018951F924D
:103B10000F920FB60F9211248F939F93AF93BF9381
:103B20008091F003811113C08091FC039091FD03FB
:103B3000A091FE03B091FF034196A11DB11D80939A
:103B4000FC039093FD03A093FE03B093FF03BF918A
:103B5000AF919F918F910F900FBE0F901F9018956E
:103B60001F920F920FB60F9211242F933F934F93F2
:103B70005F936F937F938F939F93AF93BF93EF93D5
:103B8000FF938091E10082FF09C08091E20082FFF3
:103B900005C08091E1008B7F8093E1008091E1007E
:103BA00080FF1FC08091E20080FF1BC08091E20077
:103BB0008E7F8093E2008091E20080618093E2003A
:103BC0008091D80080628093D80019BC85E08093F2
:103BD0001B038091EF028093EE021092EF020E948D
:103BE000CC118091E10084FF2DC08091E20084FF20
:103BF00029C084E089BD86E089BD09B400FEFDCFFF
:103C00008091D8008F7D8093D8008091E1008F7ED5
:103C10008093E1008091E2008F7E8093E2008091AA
:103C2000E20081608093E20080911203882309F40E
:103C300058C084E080931B030E94CC118091EE0257
:103C40008093EF028091E10083FF3AC08091E2000F
:103C500083FF36C08091E100877F8093E10082E09E
:103C600080931B03109212038091E1008E7F80935A
:103C7000E1008091E2008E7F8093E2008091E2007B
:103C800080618093E20042E060E080E00E940C0AE4
:103C900081E080931201109200041092EF0280E202
:103CA000E0EFF2E0DF011D928A95E9F7E7EBF1E042
:103CB0001192B1E0E63DFB07D9F781E08093100156
:103CC000FF91EF91BF91AF919F918F917F916F91F4
:103CD0005F914F913F912F910F900FBE0F901F90CA
:103CE00018958091E30087FD02C081E0A3CF83E0B7
:103CF000A1CFCF93DF93CDB7DEB72C970FB6F89453
:103D0000DEBF0FBECDBF84B7877F84BF0FB6F894E8
:103D1000A895809160008861809360001092600097
:103D20000FBE80E890E00FB6F89480936100909306
:103D300061000FBE82E89DE09093350180933401CD
:103D400086E091E09093F4038093F30383E492E0A0
:103D50000E9484050E942C09809163008E7F8093CD
:103D6000630081E08093ED021092E2001092E10086
:103D70008091D8008F778093D8008091D800806898
:103D80008093D8008091D8008F7D8093D80084E004
:103D900089BD86E089BD09B400FEFDCF10921B03EA
:103DA00010921203109211031092100342E060E08F
:103DB00080E00E940C0A8091E1008E7F8093E100F8
:103DC0008091E20081608093E2008091E20088604F
:103DD0008093E2008091E0008E7F8093E0007894F1
:103DE00082E084BD93E095BD9AEF97BD80936E000D
:103DF0005B9A539A5C9A549A599A519A5C9A5B9836
:103E000020E52A95F1F75B9A83E38093CC0010922A
:103E1000CD008091C90080698093C9008091C9005C
:103E200088608093C9008091CA0080638093CA0033
:103E300052985A9A78943FEF49E688E131504040D1
:103E40008040E1F700C0000080ED91E09F938F93E8
:103E50000E941D068FE90E948E1C0E945B1C0F9021
:103E60000F908A3F910509F0DAC10E945B1C803AED
:103E7000910509F0D4C10E945B1C8038910509F0BE
:103E8000CEC18AEC91E09F938F930E941D060F9004
:103E90000F9082EB91E09F938F930E941D060F90ED
:103EA0000F9012E9E12E11E0F12E03E8C02E01E09F
:103EB000D02E8CE90E948E1C0E945B1C8C010F3F4F
:103EC000100751F18091020480FF0AC01F930F93E5
:103ED000FF92EF920E941D060F900F900F900F908F
:103EE0000A3F1105C9F480E70E948E1C0E945B1CEA
:103EF0008C010196F1F28091020480FF0AC01F93A9
:103F00000F93DF92CF920E941D060F900F900F909B
:103F10000F900A3F110569F681EA91E09F938F9314
:103F20000E941D060F900F9085E90E948E1C0E9432
:103F30005B1C8A3F910541F483E00E948E1C0E9425
:103F40005B1C8A3F910581F780E393E0B0E2CB2EC2
:103F5000B3E0DB2EF60111926F018E179F07D1F7A8
:103F60005C9880911B03843009F05CC10E946A0D4B
:103F7000882309F457C181E392E00E94840583E21B
:103F800092E00E948405F9E04F2EF2E05F2EA8E156
:103F90006A2EA2E07A2E80911B03853009F445C178
:103FA0000E94B21C0BED12E0E0E2AE2EE3E0BE2E6A
:103FB000312CF50121905F01F8019080921409F4F1
:103FC00068C08091020481FF40C08CEE91E00E94A5
:103FD000840520E233E03C872B87F12CE12CEB8534
:103FE000FC852191FC87EB87229530E0C901880F81
:103FF000991F880F991F8C7C3595279535952795A6
:104000002373822B90E029E131E03F932F939C01B1
:10401000220F331F2A7A959587958575822B1F92DB
:104020008F93FF92EF9281EE91E09F938F930E9486
:104030001D06FFEFEF1AFF0A0FB6F894DEBF0FBEA2
:10404000CDBF30E1E316F10451F6E12CFF24F394E7
:104050009224892D8F21C1F0EE823F8291E0822D42
:104060008F2109F490E098870E94CA078160782F19
:104070009A8789874E815F8168858A850E94D11AD7
:10408000F80180818F258083E394FF0CF8E0EF1224
:10409000E0CF33940F5F1F4F20E132128ACF8FEFB2
:1040A00089838A831B820E94CA078160782F9D833F
:1040B0008C8349815A816B818D810E94D11A8091B4
:1040C000F5039091F6032FB7F8944091FC035091BB
:1040D000FD036091FE037091FF032FBFFA01E81BFF
:1040E000F90B2091F2038091170190E0211107C094
:1040F0008091180190E06AE070E00E946E23E8175A
:10410000F90780F08091F8031091F9030091FA0308
:10411000F090FB038111C1C0111181C101117FC158
:10412000F1107DC10E9420099091DA02891709F4EB
:1041300041C00E9420098093DA0290910204957098
:10414000953051F41F928F937F926F920E941D06BB
:104150000F900F900F900F908091DA0290E780FD02
:1041600091E79093D90281FF05C09091D9029460A4
:104170009093D9029091020490FF0AC01F928F93EE
:104180005F924F920E941D060F900F900F900F901C
:104190008091020480FF0EC08091D9021F928F93FC
:1041A00089EF91E09F938F930E941D060F900F90CF
:1041B0000F900F902091E4003091E5008091EB0288
:1041C0009091EC022817390739F18091E400909121
:1041D000E5009093EC028093EB020E946A0D882325
:1041E000D9F080911B038430B9F48091E9008F707D
:1041F0009091EC0090FFBFC090E8892B93E09093E2
:10420000E9009091EB0090FF04C09091EE0097FDC3
:10421000D0C08F708093E9000E943E0ABCCE84EC2F
:1042200091E031CE0E943E0A9CCE80911B038430E7
:1042300021F11092F00388E190E020E40FB6F894A9
:10424000A895809360000FBE2093600083B7817FA4
:10425000846083BF83B7816083BF7894889583B778
:104260008E7F83BF0FB6F894A89580916000886117
:1042700080936000109260000FBE8091110388232C
:1042800009F489CE0E94B21CE0E2F3E08191811131
:10429000B0C0CE16DF06D1F77ECE2F3F19F02F5FCC
:1042A0002093F203181624F40E94E5068093F80385
:1042B0008091F80387FF05C00E94E50681958093F1
:1042C000F803111624F40E94E5068093F903809107
:1042D000F90387FF05C00E94E50681958093F903E5
:1042E0006091F803662331F11091F903112311F164
:1042F000062E000C770B880B990B0E946D2223E38E
:1043000033E343E35FE30E94D1220E9435226093AE
:10431000F803612F110F770B880B990B0E946D2208
:1043200023E333E343E35FE30E94D1220E9435227B
:104330006093F903101624F40E94AA068093FA03EE
:104340008091FA0387FF05C00E94AA068195809399
:10435000FA031F1424F40E94AA068093FB038091A1
:10436000FB0387FF05C00E94AA0681958093FB038B
:104370000E949410D7CE90E040CFE0910101F091DF
:104380000201E90FF11D20819F5F30910501932308
:10439000909304012093F1009091E80095FD09C0ED
:1043A0009091E80090FF05C09091E8009E7790936F
:1043B000E8009091040120910301291721F0209138
:1043C000E80025FDDACF9091F200992309F421CF7E
:1043D0009091E80090FF1DCF9091E80095FD06C0F8
:1043E0009091E8009E779093E80013CF1092F1002F
:1043F000F3CF84E089BD86E089BD09B400FEFDCF1E
:104400008091D8008F7D8093D8008091E0008260F9
:104410008093E0008091E00081FDFCCFBCCD2F3F78
:1044200009F03DCF4ECF1F920F920FB60F9211247D
:104430008F939F93EF93FF938091D702E82FF0E043
:104440008F5F9091D602981739F09091CE00EA5282
:10445000FE4F90838093D702FF91EF919F918F91B0
:104460000F900FBE0F901F9018950E943C226894E9
:10447000B1110C94CB2208950E94B02288F09F576E
:1044800098F0B92F9927B751B0F0E1F0660F771F78
:10449000881F991F1AF0BA95C9F714C0B13091F06E
:1044A0000E94CA22B1E008950C94CA22672F782F87
:1044B0008827B85F39F0B93FCCF386957795679533
:1044C000B395D9F73EF490958095709561957F4F9F
:1044D0008F4F9F4F0895E89409C097FB3EF4909545
:1044E0008095709561957F4F8F4F9F4F9923A9F0CD
:1044F000F92F96E9BB279395F6958795779567955C
:10450000B795F111F8CFFAF4BB0F11F460FF1BC09F
:104510006F5F7F4F8F4F9F4F16C0882311F096E932
:1045200011C0772321F09EE8872F762F05C06623E0
:1045300071F096E8862F70E060E02AF09A95660F99
:10454000771F881FDAF7880F9695879597F9089552
:1045500057FD9058440F551F59F05F3F71F0479534
:10456000880F97FB991F61F09F3F79F08795089519
:10457000121613061406551FF2CF4695F1DF08C038
:10458000161617061806991FF1CF86957105610555
:1045900008940895E894BB2766277727CB0197F9FD
:1045A00008950E94E3220C945D230E944F2338F06B
:1045B0000E94562320F0952311F00C9446230C946E
:1045C0004C230C94CB220E94A82278F39923C9F3A0
:1045D0005523B9F3950F50E0551FAA27EE27FF2763
:1045E000BB2700240894679520F4E20FF31FB41F43
:1045F0000A1E220F331F441FAA1F6695A9F777953D
:1046000030F4F30FB41F0A1E121E08F46395330F23
:10461000441FAA1F221F769599F7879520F4B40F9F
:104620000A1E121E631F440FAA1F221F331F8695E6
:10463000A9F7862F712D602D11249F5750409AF0B5
:10464000F1F088234AF0EE0FFF1FBB1F661F771F94
:10465000881F91505040A9F79E3F510580F00C945F
:1046600046230C94CB225F3FE4F3983ED4F3869527
:1046700077956795B795F795E7959F5FC1F7FE2BFF
:10468000880F911D9695879597F9089597F99F67DB
:1046900080E870E060E008959FEF80EC08950024CA
:1046A0000A941616170618060906089500240A9497
:1046B00012161306140605060895092E0394000C1D
:1046C00011F4882352F0BB0F40F4BF2B11F460FFAC
:1046D00004C06F5F7F4F8F4F9F4F08950024552771
:1046E00004C0080E591F880F991F009729F076956E
:1046F0006795B8F37105B9F7802D952F089597FB4D
:10470000072E16F4009407D077FD09D00E94992354
:1047100007FC05D03EF4909581959F4F08957095C4
:1047200061957F4F0895EE0FFF1F0590F491E02DE6
:104730000994AA1BBB1B51E107C0AA1FBB1FA617E8
:10474000B70710F0A61BB70B881F991F5A95A9F73A
:0E47500080959095BC01CD010895F894FFCF9F
:10475E0005360100007F670D081CDA1B9A1B621BD1
:10476E000101012808140A321E00397F2215019614
:10477E000074006E028702A0020102030405060700
:04478E000809000016
:10680000880000000000E2440400050006000700C4
:10681000080009000A000B000C000D000E000F001C
:1068200010001100120013001400150016001700CC
:10683000180019001A001B001C001D001E001F007C
:10684000200021002200230024002500260027002C
:10685000280029002A002B002C002D002E002F00DC
:1068600030003100000033003400000036003700F3
:10687000380082003A003B003C003D003E003F00F3
:106880004000410042004300440045004600000033
:10689000000049004A004B004C004D004E004F00E4
:1068A000500051005200000054005500560057009F
:1068B000000059005A005B005C005D005E005F0054
:1068C00060006100620063000000650085006700F1
:1068D000680069006A00000000000000000000007D
:1068E0000000000000000000890087008A008B0083
:1068F000E000E100E200E3000000E5000000E70046
:00000001FF
