:100000000C944A050C9492050C9492050C9492055C
:100010000C9492050C9492050C9492050C94920504
:100020000C9492050C9492050C94331E0C9492053A
:100030000C940A1E0C9492050C9492050C94920553
:100040000C9492050C9492050C9492050C949205D4
:100050000C9492050C94E41D0C9492050C9492055A
:100060000C9492050C9481220C9492050C949205A8
:100070000C9492050C9492050C9492050C949205A4
:100080000C9492050C9492050C9492050C94920594
:100090000C9492050C9492050C9492050C94920584
:1000A0000C9492050C9492050C9492050631FF096C
:1000B00074A1010975150026FF00952075088102BD
:1000C0000976150026FF00952075089102C00501EC
:1000D0000902A1010901A1008501050919012908E9
:1000E00015002501950875018102050109300931C6
:1000F0001581257F95027508810609381581257FB0
:10010000950175088106050C0A38021581257F9531
:100110000175088106C0C005010980A1018502168C
:1001200001002637001A81002AB700751095018159
:1001300000C0050C0901A1018503160100269C02DF
:100140001A01002A9C02751095018100C005010961
:1001500006A101050719E029E71500250195087595
:10016000018102050819012905950575019102957E
:1001700001750391010507190029F715002501955F
:10018000F875018102C07325303258200072253085
:100190003458200073656E6420253032583A20258B
:1001A0003032580A0073656E642039443A20253095
:1001B00032580A007225303258200073656E642070
:1001C00037303A20253032580A0073656E64203982
:1001D000433A20253032580A000A456E61626C6548
:1001E0002057696E6B65793A20000A496E6869622A
:1001F0006974205265706561743A20005B4F4C440D
:100200005D005B4E45575D000A4B6579626F617218
:100210006420547970653A200025583A25303862B8
:1002200025730A000A202030313233343536370A3C
:1002300000706339385F6C65643A20253032580AA3
:10024000007573625F6C65643A20253032580A008D
:100250004C45443A20253032580A000A4C6F6F70E2
:100260002073746172742E0A000A55534220636F22
:100270006E666967757265642E0A000A544D4B3AC2
:100280003031316530312F4C5546413A6436613753
:1002900064660A0009025400030100A03209040048
:1002A00000010301010009211101000122390007A9
:1002B0000581032000010904010001030102000976
:1002C0002111010001227F000705820308000109B6
:1002D0000402000103000000092111010001222293
:1002E000000705830320000112011001000000082F
:1002F000EDFE0198010101020001300350004300AE
:100300003900380020006B006500790062006F0042
:10031000610072006400200063006F006E007600D0
:100320006500720074006500720000000E03740026
:100330002E006D002E006B002E0000000403090447
:1003400073797374656D3A20253034580A00636FF1
:100350006E73756D65723A20253034580A003F007F
:100360004D3E2000433E20000A00257500363A200D
:10037000776865656C5F74696D655F746F5F6D61EB
:10038000783A20000A00257500353A2077686565BF
:100390006C5F6D61785F73706565643A20000A0078
:1003A000257500343A2074696D655F746F5F6D6107
:1003B000783A20000A00257500333A206D61785F95
:1003C00073706565643A20000A00257500323A2092
:1003D000696E74657276616C286D73293A20000A23
:1003E00000257500313A2064656C6179282A313026
:1003F0006D73293A20000A092D2056616C756573CA
:10040000202D0A004D3E004D25643E20003F007324
:1004100065742064656661756C740A00433E200053
:100420000A002530325820006B6579626F61726472
:100430003A20006164645F6B65795F6269743A2099
:1004400063616E2774206164643A20253032580A53
:100450000064656C5F6B65795F6269743A20636103
:100460006E27742064656C3A20253032580A0029C2
:100470001E1F20212223242526272D2E742A2B14EB
:100480001A0815171C180C12132F30280416070908
:100490000A0B0D0E0F3334311D1B061905111036D2
:1004A0003738752C764E4B494C52504F514A4D5669
:1004B000545F6061555C5D5E57595A5B6762666365
:1004C00077444568696A80707172738080038048E0
:1004D000463A3B3C3D3E3F404142438080808079EC
:1004E00039007A7880807B7F658080807D8080295C
:1004F0000A002575002F002575005D280025640081
:100500002000256400200025640020002564007C74
:100510000025303258006D6F7573656B6579205B0F
:1005200062746E7C782079207620685D2872657010
:100530002F61636C293A205B000A6D6F7573653A11
:10054000205B253032587C256420256420256420DA
:1005500025645D20000A092D204D61676963202D07
:100560000A643A0964656275670A783A09646562E3
:100570007567206D61747269780A6B3A0964656207
:100580007567206B6579626F6172640A6D3A096400
:1005900065627567206D6F7573650A763A097665D1
:1005A0007273696F6E0A733A097374617475730AB2
:1005B000633A09636F6E736F6C65206D6F64650AD3
:1005C000302D343A096C61796572302D342846310A
:1005D000302D4634290A506175733A09626F6F7481
:1005E0006C6F616465720A6E3A094E4B524F0A0095
:1005F0000A092D20436F6E736F6C65202D0A4553D9
:10060000432F713A09717569740A6D3A096D6F75F6
:1006100073656B65790A003F004E4B524F3A206F6D
:1006200066660A004E4B524F3A206F6E0A0074699C
:100630006D65725F72656164333228293A20253016
:10064000346C580A006B6579626F6172645F6E6B1F
:10065000726F3A2025580A006B6579626F61726487
:100660005F69646C653A2025580A006B6579626F92
:100670006172645F70726F746F636F6C3A2025589B
:100680000A00686F73745F6B6579626F6172645F93
:100690006C65647328293A2025580A000A092D2020
:1006A000537461747573202D0A004743433A203711
:1006B0002E332E30204156522D4C4942433A20329F
:1006C0002E302E30204156525F415243483A20612D
:1006D0007672350A004F5054494F4E533A204C55CC
:1006E0004641204D4F5553454B455920455854528E
:1006F000414B455920434F4E534F4C4520434F4D9E
:100700004D414E44204E4B524F204B45594D415088
:100710005F53454354494F4E20343039360A004226
:1007200055494C443A20303131653031202831323E
:100730003A31353A34332044656320203520323055
:100740003235290A005649443A2030784645454416
:1007500028742E6D2E6B2E29205049443A20307873
:10076000393830312850433938206B6579626F61F0
:10077000726420636F6E76657274657229205645C7
:10078000523A203078303130310A00444553433AF0
:1007900020636F6E76657274732050433938206B16
:1007A0006579626F6172642070726F746F636F6CD1
:1007B00020696E746F205553420A000A092D205695
:1007C000657273696F6E202D0A000A6D6F7573650F
:1007D0003A206F66660A000A6D6F7573653A206F7E
:1007E0006E0A000A6B6579626F6172643A206F6607
:1007F000660A000A6B6579626F6172643A206F6EF7
:100800000A000A6D61747269783A206F66660A00A0
:100810000A6D61747269783A206F6E0A000A646525
:100820006275673A206F6E0A000A64656275673AFE
:10083000206F66660A000A0A626F6F746C6F6164EB
:1008400065722E2E2E2000433E20006D6B5F776870
:1008500065656C5F74696D655F746F5F6D6178204D
:100860003D2025640A006D6B5F776865656C5F6D80
:1008700061785F7370656564203D2025640A006DB2
:100880006B5F74696D655F746F5F6D6178203D208B
:1008900025640A006D6B5F6D61785F7370656564D8
:1008A000203D2025640A006D6B5F696E7465727669
:1008B000616C203D2025640A006D6B5F64656C618E
:1008C00079203D2025640A006D6B5F776865656C53
:1008D0005F74696D655F746F5F6D6178203D202581
:1008E000640A006D6B5F776865656C5F6D61785F4A
:1008F0007370656564203D2025640A006D6B5F742C
:10090000696D655F746F5F6D6178203D2025640AB5
:10091000006D6B5F6D61785F7370656564203D206D
:1009200025640A006D6B5F696E74657276616C2078
:100930003D2025640A006D6B5F64656C6179203D24
:100940002025640A0077686572652064656C7461AF
:100950003A20637572736F723D25642C2077686549
:10096000656C3D25640A53656520687474703A2F80
:100970002F656E2E77696B6970656469612E6F7281
:10098000672F77696B692F4D6F7573655F6B65793D
:10099000730A000A092D204D6F7573656B65792008
:1009A0002D0A4553432F713A09717569740A313A1A
:1009B0000964656C6179282A31306D73290A323AED
:1009C00009696E74657276616C286D73290A333A11
:1009D000096D61785F73706565640A343A097469FA
:1009E0006D655F746F5F6D61780A353A0977686588
:1009F000656C5F6D61785F73706565640A363A098E
:100A0000776865656C5F74696D655F746F5F6D6154
:100A1000780A0A703A097072696E742076616C7592
:100A200065730A643A097365742064656661756C60
:100A300074730A75703A092B310A646F776E3A093C
:100A40002D310A706775703A092B31300A7067646E
:100A50006F776E3A092D31300A0A7370656564202C
:100A60003D2064656C7461202A206D61785F73702D
:100A7000656564202A2028726570656174202F20C6
:100A800074696D655F746F5F6D6178290A004C252C
:100A9000640A000011241FBECFEFDAE0DEBFCDBF35
:100AA00004B603FE28C08091870490918804A09129
:100AB0008904B0918A048730904BA740B04BD9F499
:100AC00010928704109288041092890410928A046C
:100AD00014BE0FB6F894A895809160008861809349
:100AE0006000109260000FBE109201081092000882
:100AF000E0E0F8E3099511E0A0E0B1E0E8E0F8E417
:100B000002C005900D92A433B107D9F724E0A4E305
:100B1000B1E001C01D92A738B207E1F70E94251F7E
:100B20000C9402240C940000FF93EF93E0913401A5
:100B3000F0913501309709F00995EF91FF910895F3
:100B4000FC018591803011F0EFDFFBCF0895FF2786
:100B5000E0E230E247FF0CC0419597FF09C0EDE2AB
:100B60006095709580959095611D711D811D911DF9
:100B700027FF02C0219530E350E2AA27660F771FB6
:100B8000881F991FAA1FA41710F0A41B63955A95DC
:100B9000A9F7AA3008F0A95FA05DAF93F39561159E
:100BA00071058105910541F7ED3211F4EF93F3954D
:100BB000F21718F43F93F395FBCF8F91B5DFFA95B9
:100BC000E1F70895E991F9918591803021F085321E
:100BD00019F0AADFF9CF089520E0E8945591553235
:100BE000C1F3503311F4689455915A3348F450537B
:100BF00090F3220F022E220F220F200D250FF4CF8B
:100C00000EF4219589919991533619F3533729F1AF
:100C1000533559F1BC0188279927E8945C3621F4B3
:100C20008991999168945591543639F446EF7EF044
:100C300077FF0DC08FEF9FEF0AC055374AE039F0BC
:100C4000583540E121F0523642E009F00895FF9313
:100C5000EF937DDFEF91FF91B7CFFF93EF93FC010F
:100C600081918030B9F360DFFBCFFF93EF9368DFB2
:100C7000F1CFDF93CF93CDB7DEB72596A3DFCF912A
:100C8000DF910895803FC1F48091790487FD10922F
:100C900079048091780481110EC0809179048111CA
:100CA0000AC080917A04811106C080917B04811171
:100CB00002C0109272040895813F29F48091790452
:100CC00018162CF3E6CF90917804823F29F497FF11
:100CD000E0CF10927804DDCF833F19F41916CCF3DE
:100CE000D8CF893F39F480917A04181694F610927F
:100CF0007A04CFCF8A3F29F480917A0487FFC9CF45
:100D0000F6CF8B3F39F480917B0487FFC2CF1092DE
:100D10007B04BFCF8C3F29F480917B041816BCF371
:100D2000B8CF843F31F4809177048E7F809377042D
:100D3000B0CF853F21F4809177048D7FF7CF863F38
:100D400021F4809177048B7FF1CF873F21F480914C
:100D50007704877FEBCF883F21F4809177048F7EE3
:100D6000E5CF8D3F31F4809171048E7F80937104C3
:100D700090CF8E3F21F4809171048D7FF7CF8F3F0C
:100D800009F087CF809171048B7FF0CF809171043F
:100D900080FF0CC06091140170E0759567957595A2
:100DA00067956115710549F1862F089581FF06C089
:100DB0006091140170E075956795F3CF609114010F
:100DC00082FD0BC0909172049923A1F060911301F0
:100DD00080911401961738F0682F70E06038710523
:100DE00000F38FE70895899FC001112470E00E94ED
:100DF000D423F4CF61E070E0D7CF81E008958091F3
:100E0000710480FF12C06091160185E0689FB001F7
:100E10001124759567957595679560387105A8F5E6
:100E200061157105A1F1862F089581FF09C06091B8
:100E3000160185E0689FB001112475956795EDCF87
:100E400082FF07C06091160185E0689FB001112400
:100E5000E4CF209172042223A9F0909115016091B2
:100E6000160185E0689FB00111242917B0F6269F6E
:100E7000A001279F500D1124692F70E0CA010E9424
:100E8000D423CBCF65E070E0CECF8FE7089581E02B
:100E90000895803F31F40E94FF0681958093790484
:100EA0000895813F19F40E94FF06F8CF823F31F484
:100EB0000E94FF068195809378040895833F19F47A
:100EC0000E94FF06F8CF893F29F40E94C60680934E
:100ED0007A0408958A3F21F40E94C6068195F7CFCF
:100EE0008B3F31F40E94C606819580937B04089560
:100EF0008C3F19F40E94C606F8CF843F31F48091EC
:100F000077048160809377040895853F21F4809170
:100F100077048260F7CF863F21F480917704846064
:100F2000F1CF873F21F4809177048860EBCF883F31
:100F300021F4809177048061E5CF8D3F31F4809179
:100F4000710481608093710408958E3F21F4809133
:100F500071048260F7CF8F3FB9F78091710484608C
:100F6000F1CF703168F4683058F428E0729FF001D6
:100F70001124E60FF11DE159FB4F6491603819F41B
:100F800080E090E00895E62FE295E77028E0829FE8
:100F9000C00111248E0F911D24E0880F991F2A95FE
:100FA000E1F7E62FEF70E80FF92FF11DEE0FFF1FAD
:100FB000E050F8498591949108952FB7F894809165
:100FC0007C0490917D04A0917E04B0917F042FBF9A
:100FD00008954F925F926F927F929F92AF92BF92CD
:100FE000CF92DF92EF92FF920F931F93CF93DF93F5
:100FF00000D000D01F92CDB7DEB76B837C838D838A
:101000007A018C819D81892B49F08FEFF81204C001
:1010100081E09FEF491719F080E001C081E080FD79
:1010200067C00F2D10E0CE2CD12C8B81882309F4C2
:1010300053C04090E9035090EA036090EB03709036
:10104000EC038091830490918404A0918504B09175
:101050008604482A592A6A2A7B2A2FE1A22EB12C1B
:101060009A2CD301C2010A2C04C0B695A795979576
:1010700087950A94D2F780FD28C081E0A81AB108AC
:1010800078F7912CF80193E0EE0FFF1F9A95E1F7A6
:10109000E351FC4FEC0DFD1D9082B701892D0F909F
:1010A0000F900F900F900F90DF91CF911F910F91A4
:1010B000FF90EF90DF90CF90BF90AF909F907F9088
:1010C0006F905F904F900C94B107B7018A2D0E94EA
:1010D000B107019791F2D6CFF80183E0EE0FFF1F21
:1010E0008A95E1F7E351FC4FEC0DFD1D9080D5CFC3
:1010F00090E080E00F900F900F900F900F90DF9195
:10110000CF911F910F91FF90EF90DF90CF90BF9004
:10111000AF909F907F906F905F904F90089541E0C7
:1011200050E060E070E004C0440F551F661F771F59
:101130008A95D2F740955095609570958091E90316
:101140009091EA03A091EB03B091EC0384239523E3
:10115000A623B7238093E9039093EA03A093EB03BC
:10116000B093EC03089541E050E060E070E004C00B
:10117000440F551F661F771F8A95D2F78091E903A8
:101180009091EA03A091EB03B091EC03842B952B93
:10119000A62BB72B8093E9039093EA03A093EB036C
:1011A000B093EC0308958091E8039091B7039813EE
:1011B00001C008958F5F8770FACF1F93CF93DF939D
:1011C00000D000D01F92CDB7DEB7942F4983252FD2
:1011D0005A836B837C838D834C815D8181E0452BB9
:1011E00031F02F3F19F481E09F3F09F080E0182F84
:1011F000117080FD36C049815A816B817C818D815F
:101200000E94E907E92FE295EF70E250EE30F8F422
:10121000F0E0E35FF64F0C94E82322092209270946
:10122000270922092209270927091B091B09240963
:10123000270927092409803C28F0803E40F0815F7F
:10124000833028F011E003C093FB112710F9812FA0
:101250000F900F900F900F900F90DF91CF911F91F3
:10126000089510E0F4CFE0917304F0917404309786
:1012700021F00190F081E02D099480E00895E8EDDF
:10128000F0E080818E7F80831092E2001092DA007D
:101290001092E100A0EEB0E08C9181608C9380818F
:1012A0008F77808319BCA7EDB0E08C918E7F8C93F3
:1012B00080818F7E808310926D0308950E943F0984
:1012C000F89487E797E7909301088093000887E0F8
:1012D00090EBDC018093870490938804A0938904A9
:1012E000B0938A0488E19CE00FB6F894A8958093A7
:1012F00060000FBE90936000FFCFFC0180919903C6
:1013000090919A0386179707A0F06115710529F44B
:101310009091E8009E779093E80090E06115710548
:1013200051F4911108C08091E80082FF35C080E03F
:101330000895BC01F2CF80919B038823C9F18530C9
:10134000C9F18091E80083FD31C08091E80082FD01
:10135000EACF8091E80080FFE1CF2091F3008091F7
:10136000F200322F282F6115710519F02830310550
:1013700058F091E02830310509F090E02091E80024
:101380002E772093E800CACF81918093F1006150BD
:1013900071092F5F3F4FE7CF80919B03882341F076
:1013A000853041F08091E80083FFBDCF81E0089552
:1013B00082E0089583E008952091E4003091E500F3
:1013C00085E69091EC0090FF06C09091E80090FFB8
:1013D00006C080E008959091E80092FDFACF9091C8
:1013E0009B03992391F0953091F09091EB0095FD3E
:1013F00010C04091E4005091E5002417350709F32F
:1014000081509A01F1F684E0089582E0089583E026
:10141000089581E008958091930387FF13C0809120
:10142000E80082FF06C08091E8008B778093E80097
:1014300004C080919B038111F2CF089580919B039A
:101440008823D9F38091E80080FFF8CF8091E800ED
:101450008E77ECCF982F9093E900242F762F50E0D1
:10146000891731F07091EC002091ED005091F0005F
:1014700021FD07C09F5F973071F78093E90081E0FD
:1014800008953091EB003E7F3093EB003091ED00FA
:101490003D7F3093ED003091EB0031603093EB00F5
:1014A0007093EC002093ED005093F0002091EE003B
:1014B00027FDE0CF80E008950F931F93CF93DF9334
:1014C000CDB7DEB7AA970FB6F894DEBF0FBECDBF7B
:1014D00080919B03882309F44DC11091E9001F708E
:1014E0008091EC0080FF38C080E8182B1092E90052
:1014F0008091E80083FF3BC1E3E9F3E08091F100D4
:10150000819383E0EB39F807C9F780919403833026
:1015100009F470C018F5813009F447C0823009F42D
:10152000DAC08091E80083FF14C180919303909109
:1015300094039A3008F00DC1E92FF0E0EE55F54F15
:101540000C94E8237C0BA20BA90BA20BA90B040C97
:10155000260CA90B250D320D80E0C7CF8A3009F487
:10156000A9C08B3009F47DC08930D9F680919303EE
:101570008132B9F68091970390919803892B89F66F
:101580008091E800877F8093E8008091E80082FFE7
:101590002CC08091F10080936F038091E8008B77DD
:1015A0008093E8000E940B0ABCCF80919303813A9C
:1015B00009F0B7CF8091E800877F8093E8008091A1
:1015C000970390919803892B61F060E090E080E0B0
:1015D00070E00E947D098091E8008B778093E8009D
:1015E000A0CF60E280E793E0F3CF80919B0381116D
:1015F000CCCF97CF80919303813A09F092CF80911D
:10160000970390919803892BA1F48091E800877F3C
:101610008093E8008091E80080FFFCCF8091120168
:101620008093F1008091E8008E778093E8000E941B
:101630000B0A8091970390919803019709F071CF5D
:101640008091E800877F8093E8008091E80080FF28
:10165000FCCF809110018093F1008091E8008E779B
:101660009FCF80919303813209F05BCF80919703E4
:1016700090919803892B59F48091E800877F80939B
:10168000E8000E940B0A80919503809312018091DB
:10169000970390919803019709F043CF8091E80058
:1016A000877F8093E8000E940B0A809195038093C6
:1016B000100137CF80919303813209F032CF8091AE
:1016C000E800877F8093E8000E940B0A80919603D0
:1016D0008093800426CF80919303813A09F021CF33
:1016E0008091E800877F8093E8008091E80080FF88
:1016F000FCCF80918004AFCF803889F0823849F5E3
:10170000809197038F70873020F58093E900809156
:10171000EB0085FB882780F91092E90006C08091D4
:10172000900390919103911182609091E800977FCE
:101730009093E8008093F1001092F1008091E8000E
:101740008E7731C0282F2D7F21F48823F1F082304D
:1017500079F18091E80083FF0AC08091E800877FDB
:101760008093E8008091EB0080628093EB001F7013
:101770001093E900AA960FB6F894DEBF0FBECDBF56
:10178000DF91CF911F910F91089580919503813042
:1017900001F7933009F080E0809391031092E90003
:1017A0008091E800877F8093E8000E940B0AD1CFE8
:1017B000809195038111F2CF809197038F702FEF65
:1017C000280F263030F68093E9002091EB0020FFAF
:1017D000E5CF933031F48091EB0080628093EB0091
:1017E000DDCF9091EB0090619093EB0021E030E031
:1017F00001C0220F8A95EAF72093EA001092EA00CE
:101800008091EB008860EACF8111A3CF009195030E
:101810000F778091E3008078802B8093E3008091A4
:10182000E800877F8093E8000E940B0A8091E8001F
:1018300080FFFCCF8091E30080688093E30083E029
:10184000011101C082E080939B0383CF80588230D6
:1018500008F07FCF20919503309196032C3DA3E0B3
:101860003A07A1F583E08A838AE289834FB7F89427
:10187000DE01139620E03EE051E2E32FF0E05093CA
:101880005700E49120FF03C0E295EF703F5FEF70D7
:101890008E2F90E0EA30C0F0C7968D939D932F5F16
:1018A000243159F74FBF8091E800877F8093E8008B
:1018B0006AE270E0CE0101960E947D098091E80005
:1018C0008B778093E80045CFC096E7CF8091970350
:1018D00090919803432F55274330510509F44FC089
:1018E00078F54130510509F445C084E590E0E4E91C
:1018F000F2E04230510509F02CCF2091E800277F1B
:101900002093E8002091990330919A03821793075E
:1019100008F49C0140E02115310509F063C0411134
:1019200061C08091E80082FDC9CF80919B0388232C
:1019300029F2853019F28091E80083FFF2CFBECF03
:101940004132510509F43FC04232510509F001CF3F
:101950008330910508F0FDCEFC01EE0FFF1FE35E22
:10196000FE4F0190F081E02D865E9E4FDC018C9150
:1019700090E01DC082E190E0E8EEF2E0BECF3327B8
:1019800021303105C1F060F02230310509F0E1CE9F
:10199000EAEFF2E0E4918E2F90E0EAEFF2E007C088
:1019A000ECE3F3E0E4918E2F90E0ECE3F3E00097BA
:1019B00009F4CFCEA2CFECE2F3E0E4918E2F90E0D9
:1019C000ECE2F3E0F4CF8330910508F0C2CE880F4B
:1019D000991FFC01ED5DFE4F0190F081E02D89E043
:1019E00090E08BCF80919B03882309F467CF8530EB
:1019F00009F464CF8091E80083FD60CF8091E80016
:101A000082FD8FCF8091E80080FF85CF8091F30029
:101A10009091F2008927982789272115310519F01F
:101A20008830910550F041E0089709F040E080913E
:101A3000E8008E778093E8006ECF44914093F100E8
:101A40003196215031090196E8CF803809F081CED6
:101A50008091E800877F8093E800809192038093D3
:101A6000F1006CCE811175CE00919503023008F023
:101A700070CE8091E800877F8093E8000093920306
:101A80000E940B0A002399F084E080939B0342E2BA
:101A900061EC81E00E942A0A42E061EC82E00E944F
:101AA0002A0A46E261EC83E00E942A0A52CE809123
:101AB000E30087FDE9CF81E0E8CFEF92FF920F933B
:101AC0001F93CF937C018B010E94DC09C82F8111E9
:101AD00019C08091E80085FD0DC08091E8008E77E7
:101AE0008093E8000E945C0A0E94DC09882389F345
:101AF000C82F08C0F70181917F018093F100015048
:101B0000110939F78C2FCF911F910F91FF90EF9012
:101B10000895CF92DF92EF92FF920F931F93CF938E
:101B2000DF93C8EDD0E088818F7E8883E7EDF0E019
:101B300080818160808384E082BF81E080936D0337
:101B400088818E7F888302EE10E0F8011082109267
:101B5000DA0081EEC82ED12CF601108288818F77B1
:101B6000888388818068888388818F7D888319BC79
:101B700010929B0310929203109291031092900383
:101B800090EEE92EF12CF70180818B7F8083888194
:101B90008160888342E060E080E00E942A0AF601CA
:101BA00080818E7F8083F801808181608083808145
:101BB00088608083F70180818E7F80838881806147
:101BC0008883DF91CF911F910F91FF90EF90DF906D
:101BD000CF90089580916F030895809158038111EB
:101BE00013C09FB7F89440917C0450917D0460919C
:101BF0007E0470917F049FBF443C5940610571058C
:101C000018F081E0809358030895EF92FF920F93AC
:101C10001F93CF93DF93D82F0FB607FE46C0809156
:101C20009B03843079F08091030190E0019620912C
:101C3000050130E08223932320910401281719061F
:101C400009F0CDC00E94ED0D81110FC080910301FC
:101C500090E001962091050130E0822393232091AA
:101C600004012817190609F0BAC00E94DD078C018B
:101C7000C091E900CF708091EC0080FD37C080E01A
:101C8000C82B83E08093E90085E0E82E8091EB008B
:101C900085FD08C08091EB0080FF04C08091EE00BC
:101CA00087FD44C0CF70C093E900E09103018E2FFF
:101CB00090E001962091050130E08223932320914A
:101CC00004012817190609F482C08091010190913E
:101CD0000201E80FF92FF11DD083809103018F5F7E
:101CE0009091050189238093030171C080E8C8CFDA
:101CF000E0910101F0910201E80FF11D90818F5FE9
:101D0000209105018223809304019093F10080913A
:101D1000E80085FD0BC08091E80080FF07C080913E
:101D2000E8008E778093E800E09200018091040142
:101D300090910301981741F19091E80095FDD8CF5B
:101D400080E029C01092F10032C08091030190E040
:101D500001962091050130E0822393232091040114
:101D60002817190609F09ECFF0900001FF2009F412
:101D700099CF0E94DD078017910709F487CFFA9465
:101D8000F09200018C0182CF8091E80085FFD8CFCE
:101D9000D093F10081E02091F3009091F200322F76
:101DA000292F232B79F09091E80090FF0BC09091A0
:101DB000E80095FDC7CF9091E8009E779093E800EA
:101DC000E0920001882309F2CF70C093E90080E01F
:101DD000DF91CF911F910F91FF90EF900895E091C7
:101DE000030173CF9091560380915703891751F0E7
:101DF000E92FF0E0EA5AFD4F80819F5F90935603F0
:101E000090E008958FEF9FEF08958330C9F128F493
:101E1000813061F0823019F10895853009F452C0A3
:101E200008F43FC0863009F45EC00895809118011F
:101E3000681790F4861B80931801809118011F92F7
:101E40008F9386E399E09F938F930E9439060F90BA
:101E50000F900F900F90089510921801EECF80917F
:101E60001701681750F4861B8093170180911701A2
:101E70001F928F9384E299E0E6CF10921701F6CF7C
:101E800080911601681750F4861B8093160180918B
:101E900016011F928F9381E199E0D5CF1092160120
:101EA000F6CF80911501681750F4861B80931501B9
:101EB000809115011F928F938CEF98E0C4CF109200
:101EC0001501F6CF80911401681750F4861B80939A
:101ED0001401809114011F928F9383EE98E0B3CF89
:101EE00010921401F6CF80911301681750F4861BED
:101EF00080931301809113011F928F9388EC98E0D7
:101F0000A2CF10921301F6CF833009F445C028F414
:101F1000813061F0823049F10895853009F46AC05A
:101F200008F451C0863009F47CC0089580911801EE
:101F3000482F460F5527551F4F3F510594F4680F02
:101F400060931801809118011F928F9389EB98E09C
:101F50009F938F930E9439060F900F900F900F90D0
:101F600008958FEF80931801EDCF80911701482FCE
:101F7000460F5527551F4F3F510554F4680F609386
:101F80001701809117011F928F9387EA98E0E0CFA5
:101F90008FEF80931701F5CF80911601482F460FE0
:101FA0005527551F4F3F510554F4680F6093160194
:101FB000809116011F928F9384E998E0C9CF8FEF2B
:101FC00080931601F5CF80911501482F460F5527B4
:101FD000551F4F3F510554F4680F609315018091D0
:101FE00015011F928F938FE798E0B2CF8FEF809308
:101FF0001501F5CF80911401482F460F5527551F25
:102000004F3F510554F4680F6093140180911401FF
:102010001F928F9386E698E09BCF8FEF80931401F9
:10202000F5CF80911301482F460F5527551F4F3F7D
:10203000510554F4680F60931301809113011F92AE
:102040008F938BE498E084CF8FEF80931301F5CFCB
:1020500090911201992369F190911101992349F10D
:10206000E82FE695E695E695EF3191F0F0E0EA5C31
:10207000FD4F877021E030E0A90102C0440F551FD9
:102080008A95E2F7CA018095918189238183089519
:102090009091820490FF19C01F928F9381E594E084
:1020A0009F938F930E9439060F900F900F900F907F
:1020B0000895E6E3F2E024E532E09281891301C05D
:1020C000128231962E173F07C1F7089590911201A1
:1020D000992349F190911101992329F1E82FE6956F
:1020E000E695E695EF3171F0F0E0EA5CFD4F877020
:1020F00021E030E001C0220F8A95EAF78181822B2E
:10210000818308959091820490FF1EC01F928F9347
:1021100083E394E09F938F930E9439060F900F9072
:102120000F900F900895A8E3B2E0EFEF90E02D91AB
:10213000821751F0EF3F19F4211101C0E92F9F5F81
:102140009E31A9F7EF3F09F408950E2E000CFF0B06
:10215000EA5CFD4F82830895CF93DF9320919E0325
:1021600030919F032817390701F190939F038093C3
:102170009E03E0917304F09174043097B1F0EC0188
:102180000084F185E02D0995809182048570853069
:1021900061F4DF93CF938EE493E09F938F930E943B
:1021A00039060F900F900F900F90DF91CF91089507
:1021B000CF93DF9320919C0330919D03281739071B
:1021C00001F190939D0380939C03E0917304F0913F
:1021D00074043097B1F0EC010680F781E02D099589
:1021E000809182048570853061F4DF93CF9380E421
:1021F00093E09F938F930E9439060F900F900F905A
:102200000F90DF91CF91089583E999E00E94A00596
:102210001F9281E08F931F9285E08F9385E499E070
:102220009F938F930E9439060F900F900F900F90FD
:102230000F900F900895CF93DF9300D000D01F929E
:10224000CDB7DEB78091820483FF7BC086E195E045
:102250000E94A005809177041F928F9381E195E001
:102260009F938F930E9439068FE095E00E94A0050E
:1022700080917804282F082E000C330B3F938F9306
:102280008CE095E09F938F930E9439068AE095E059
:102290000E94A00580917904282F082E000C330B92
:1022A0003F938F9387E095E09F938F930E94390629
:1022B00085E095E00E94A00580917A04282F082EE1
:1022C000000C330B3F938F9382E095E09F938F93A5
:1022D0000E94390680E095E00E94A00580917B0471
:1022E000282F082E000C330B3F938F938DEF94E033
:1022F0009F938F930E9439068AEF94E00E94A00575
:10230000809172041F928F9387EF94E09F938F9335
:102310000E94390685EF94E00E94A0058091710427
:102320001F928F9382EF94E09F938F930E943906C0
:102330008FEE94E00E94A0050FB6F894DEBF0FBEAA
:10234000CDBF85E0E7E7F4E0DE01119601900D9244
:102350008A95E1F7E0917304F09174043097A1F14C
:102360000480F581E02DCE010196099580918204CB
:1023700083FF2AC08D81282F082E000C330B3F933A
:102380008F938C81282F082E000C330B3F938F9353
:102390008B81282F082E000C330B3F938F938A815B
:1023A000282F082E000C330B3F938F9389811F92A7
:1023B0008F9389E395E09F938F930E9439060FB620
:1023C000F894DEBF0FBECDBF0E94DD079093760468
:1023D000809375040F900F900F900F900F90DF91E6
:1023E000CF9108950F931F93CF93DF9380916F0444
:1023F00090916E04892B8093360290916D049923FD
:1024000089F0892B80933602E7E3F2E026E532E09B
:1024100080E0919191118F5F2E173F07D1F78111C5
:1024200010926D04E0917304F09174043097B1F14F
:102430000280F381E02D86E392E009958091820489
:1024400082FF2CC080FF04C088E294E00E94A005B7
:10245000D0E0C0E002E214E08091820480FF0EC070
:10246000FE01EA5CFD4F80811F928F931F930F93B3
:102470000E9439060F900F900F900F902196C03256
:10248000D10551F78091820480FF08C080E294E07A
:10249000DF91CF911F910F910C94A005DF91CF9107
:1024A0001F910F91089510926F0410926E04E7E34C
:1024B000F2E0119282E0E635F807D9F70E94F211B6
:1024C00085E0E7E7F4E0DF011D928A95E9F71092D5
:1024D0007204109271040E941B1190E080E00E942F
:1024E000D81090E080E00C94AC10CF93C82F1F92CE
:1024F0008F938EE89AE09F938F930E94390681E034
:1025000090E0A0E0B0E004C0880F991FAA1FBB1F95
:10251000CA95D2F78093830490938404A093850492
:10252000B09386040F900F900F900F90CF910C9462
:102530005312882341F0809590916F0489238093F2
:102540006F040C94F2110895882339F090916F0470
:10255000892B80936F040C94F2110895CF938732E6
:1025600008F050C08E3108F020C1803109F4A9C0B4
:10257000F8F4873009F488C048F4863009F471C053
:1025800087E196E00E94A005C0E027C08B3009F4E7
:1025900063C08E30A9F790918204892F8B7F92FFC0
:1025A00084608093820482FF89C083EF97E07DC0BE
:1025B000863109F4ADC0A0F4813111F70E945312A5
:1025C000C091110181E0C827C0931101CC2309F407
:1025D000E9C084E296E00E94A0058C2FCF91089577
:1025E000893109F47EC08B3159F690918204892F8C
:1025F0008D7F91FF82608093820481FF5CC080E1C7
:1026000098E053C0883341F158F4893229F085337A
:1026100019F0873209F0B4CF80E00E94751232C001
:102620008334D1F328F48A3308F4AACF8953F5CF41
:10263000883409F0A5CF0E94531286E398E00E94E7
:10264000A0052FEF83ED90E3215080409040E1F70B
:1026500000C000000E945E0985E595E00E94A0058B
:1026600011C080918204817F8E7F8093820480EFED
:1026700095E00E94A00587E498E00E94A00581E013
:1026800080938104C1E0A9CF8091820480FF0BC0B8
:1026900089E298E00E94A00580918204817F8E7F6C
:1026A00080938204EFCF8DE198E00E94A005809195
:1026B00082048160F5CF82E098E0D0CF83EE97E08E
:1026C000CDCF90918204892F877F93FF886080937C
:1026D000820483FF03C087ED97E0E7CF8AEC97E0A1
:1026E000BDCF8BEB97E00E94A0058BE897E00E949E
:1026F000A00585E497E00E94A0058FE197E00E9485
:10270000A00585ED96E00E94A0058AEA96E0A6CF96
:102710008CE996E00E94A0050E9433091F928F93D6
:1027200082E896E09F938F930E9439068091120170
:102730001F928F938BE696E09F938F930E943906AA
:10274000809180041F928F9388E596E09F938F93EA
:102750000E943906809111011F928F9385E496E0C3
:102760009F938F930E9439062FB7F89480917C0431
:1027700090917D04A0917E04B0917F042FBFBF9300
:10278000AF939F938F938EE296E09F938F930E94D7
:1027900039068DB79EB746960FB6F8949EBF0FBE0A
:1027A0008DBF70CF89E196E059CF8D5136CFCF9351
:1027B000DF93882309F45DC09EE7980F933020F5DE
:1027C000C2E0D9E3823831F0C4E0D7E4833811F4B1
:1027D000C1E0D3E50E9433098C2309F44AC08D2F50
:1027E0000E9466100E94F2112FEF41EE54E021503A
:1027F00040405040E1F700C000008D2F0E9428109B
:10280000DF91CF910C94F2119CEF980F913AB0F3B5
:1028100090E2980F983088F4877021E030E0A901A9
:1028200002C0440F551F8A95E2F7CA018095909126
:102830006F04892380936F04E3CF9BE5980F933057
:1028400030F490E080E0DF91CF910C94D81098E5BF
:10285000980F973130F490E080E0DF91CF910C94A5
:10286000AC10803F30F00E944206DF91CF910C9473
:102870001B11DF91CF910895CF93DF93882309F443
:10288000C6C0C82F8EE78C0F833030F5C238F1F008
:10289000C338F9F0C4E0D7E40E9433098C2309F06F
:1028A000B6C08D2F0E9466100E94F2112FEF81EEAC
:1028B00094E0215080409040E1F700C000008D2F4F
:1028C0000E942810DF91CF910C94F211C2E0D9E35D
:1028D000E3CFC1E0D3E5E0CF8CEF8C0F813A08F075
:1028E00043C1809181048130C1F048F0823009F405
:1028F00045C0109281048C2F0E946610E3CF809116
:10290000AC0380FD04C0809136028434A1F78C2F83
:102910000E94AE1281117BC0EECF8091AC0380FD8E
:10292000F6CF80913602843491F3C431C9F048F473
:10293000CB3059F0C031C1F08EE593E00E94A00584
:1029400011C0C93269F0C833B9F780EF95E00E9431
:10295000A00584E693E00E94A00581E08170DACFB3
:102960001092810480E0FACF0E94041180E693E087
:102970000E94A00582E080938104EFCFC432D0F49E
:10298000CE3108F0C0C0CB30E9F048F4C73009F4CC
:10299000D1C08DE094E0DF91CF910C94A005C331BC
:1029A000C9F1C431B1F78091B003882349F1109285
:1029B000B0030AC0CB3409F4BBC0C0F4C93299F3E8
:1029C000C83339F70E9404118091B003882309F4B9
:1029D000C8C01F928F9387E094E09F938F930E94CB
:1029E00039060F900F900F900F9011C0C13509F468
:1029F00099C0C23509F490C0CE3459F66AE093C04C
:102A00008CE194E00E94A00581E080938104DF9135
:102A1000CF91089586EF93E00E94A00584EE93E0A5
:102A20000E94A005809118011F928F9381EE93E080
:102A30009F938F930E9439068FED93E00E94A0052B
:102A40008DEC93E00E94A005809117011F928F9357
:102A50008AEC93E09F938F930E94390688EC93E071
:102A60000E94A00589EB93E00E94A00580911601C9
:102A70001F928F9386EB93E09F938F930E9439066A
:102A800084EB93E00E94A00583EA93E00E94A005F6
:102A9000809115011F928F9380EA93E09F938F930B
:102AA0000E9439068EE993E00E94A00589E893E030
:102AB0000E94A005809114011F928F9386E893E0F5
:102AC0009F938F930E94390684E893E00E94A005AB
:102AD0008DE693E00E94A005809113011F928F93D1
:102AE0008AE693E09F938F930E94390688E693E0ED
:102AF0000E94A0058DB79EB748960FB6F8949EBF6A
:102B00000FBE8DBF61CFCE51EC2FF0E0E75DFE4FE1
:102B100080818093B00358CF61E08091B0030E9420
:102B2000840F52CF61E08091B0030E94050F4CCF1B
:102B30006AE0F3CF8EE18093180182E3809317015E
:102B40008AE08093160184E18093150188E08093E8
:102B5000140188E2809313018FE094E00E94A005A5
:102B600033CF84E094E017CF80E28C0F883068F494
:102B7000C77021E030E001C0220FCA95EAF78091CA
:102B80006F04822B80936F049DCE8BE58C0F833076
:102B900070F481E890E0C53A31F083E890E0C63AFD
:102BA00011F482E890E0DF91CF910C94D81088E581
:102BB0008C0F873108F069C082EE90E0C83A09F4C2
:102BC00060C089EE90E0C93A09F45BC08AEE90E0FB
:102BD000CA3A09F456C085EB90E0CB3A09F451C0EB
:102BE00086EB90E0CC3A09F44CC083EB90E0CD3A10
:102BF00009F447C084EB90E0CE3A09F442C087EB79
:102C000090E0CF3AF1F188EB90E0C13BD1F18DEC4F
:102C100090E0C03BB1F183E891E0C23B91F18AE8DA
:102C200091E0C33B71F182E991E0C43B51F184E949
:102C300091E0C53B31F181E292E0C63B11F183E2C4
:102C400092E0C73BF1F084E292E0C83BD1F085E22C
:102C500092E0C93BB1F086E292E0CA3B91F087E294
:102C600092E0CB3B71F08AE292E0CC3B51F08FE6F0
:102C700090E0CD3B31F090E080E0CE3B11F480E776
:102C800090E0DF91CF910C94AC10CF3B69F40E949F
:102C900053129FEF20E782E0915020408040E1F7FF
:102CA00000C000000E945E09C03F08F4B0CE8C2F27
:102CB0000E944907DF91CF910C941B11CF92DF92B4
:102CC000EF92FF920F931F93CF93DF9300D000D02A
:102CD0001F92CDB7DEB76C0185E0F601DE011196DB
:102CE00001900D928A95E1F7F6014081518123818F
:102CF000348191E02115310531F05F3F19F491E005
:102D00004F3F09F090E090FD99C0F6010281F580F7
:102D1000F2949FE0F92249835A830B83722F3D83FB
:102D20002C83602F8D810E94E907182FE92FE295EF
:102D3000EF70EF3008F082C0F0E0EF55F94E0C94E0
:102D4000E823B016B016EE16EE168117B317521719
:102D50005217C9171E179F189F181E171E174A19BA
:102D6000F92FFF70FF2E907F19F0F29480EFF82278
:102D70000023C9F0FF2039F080916E04F82AF09208
:102D80006E040E94F211812F0F900F900F900F9000
:102D90000F90DF91CF911F910F91FF90EF90DF90F7
:102DA000CF900C943C14812F0E94D713FF2009F47C
:102DB00045C0F09480916E04F822F0926E040F905A
:102DC0000F900F900F900F90DF91CF911F910F9167
:102DD000FF90EF90DF90CF900C94F211892F8F70BD
:102DE000907F903211F08295807F112379F011301D
:102DF00009F449C0002309F471C0FF2059F0F6011D
:102E0000958190FF5BC09F70958304C0002321F1E2
:102E1000F1100FC00F900F900F900F900F90DF9157
:102E2000CF911F910F91FF90EF90DF90CF900C9476
:102E3000A41221E0F212EECF80936D040F900F9058
:102E40000F900F900F90DF91CF911F910F91FF90F6
:102E5000EF90DF90CF900895F11011C010926D04A3
:102E60000F900F900F900F900F90DF91CF911F91C7
:102E70000F91FF90EF90DF90CF900C94991291E01A
:102E8000F912ECCFDBCF002349F0E5E0EF15B0F20B
:102E900090916F04982309F4BDCFE2CFF4E0FF15C1
:102EA00068F2DECF892F8F70907F903611F0829577
:102EB000807F002399F0FF2009F4ACCF812F0E947E
:102EC0003C14193309F0DAC1FFEF21EE84E0F15030
:102ED00020408040E1F700C00000B0CFFF2009F49F
:102EE000BFCF812F0F900F900F900F900F90DF9119
:102EF000CF911F910F91FF90EF90DF90CF900C94A6
:102F0000D713892F869586958370C1F0813009F09B
:102F100095CF812F9370011102C090E080E00F9057
:102F20000F900F900F900F90DF91CF911F910F9105
:102F3000FF90EF90DF90CF900C94AC10812F9370A6
:102F4000011102C090E080E00F900F900F900F9061
:102F50000F90DF91CF911F910F91FF90EF90DF9035
:102F6000CF900C94D810002389F00E9449070F904D
:102F70000F900F900F900F90DF91CF911F910F91B5
:102F8000FF90EF90DF90CF900C941B110E944206AF
:102F9000EECF892F837009F064C001114FCF812FCC
:102FA000829586958770880F880F412F4F70C42EA9
:102FB000D12CF12CE12C082E04C0CC0CDD1CEE1C15
:102FC000FF1C0A94D2F740E050E0BA0114FF11C090
:102FD0000FE010E020E030E004C0000F111F221FBE
:102FE000331F8A95D2F7B901A80140955095609595
:102FF0007095009183041091840420918504309190
:1030000086049695969593709230E9F028F5913064
:1030100089F04C295D296E297F29402351236223A1
:1030200073234093830450938404609385047093C6
:10303000860404CFC02AD12AE22AF32A4C295D292A
:103040006E297F29EECF4C295D296E297F294027E3
:10305000512762277327E5CF40235123622373232F
:10306000EDCF8695002311F0892F8170882309F414
:10307000E5CE812F829586958770880F880F412F26
:103080004F70C42ED12CF12CE12C082E04C0CC0C96
:10309000DD1CEE1CFF1C0A94D2F740E050E0BA01A0
:1030A00014FF11C00FE010E020E030E004C0000F7A
:1030B000111F221F331F8A95D2F7B901A80140952D
:1030C0005095609570950091E9031091EA03209165
:1030D000EB033091EC039695969593709230E9F05E
:1030E00028F5913089F04C295D296E297F294023EC
:1030F0005123622373234093E9035093EA036093BF
:10310000EB037093EC039ACE0C291D292E293F293D
:10311000402B512B622B732BEECF4C295D296E294E
:103120007F294027512762277327E5CF402351236A
:10313000622373234C295D296E297F29DCCF803FD0
:1031400009F440C060F480E4810F803200F1002374
:1031500009F49BC0F110B2CE892F8F7164C0823FF9
:1031600009F470C008F45BC0833F89F7002309F4B9
:103170007CC0292F2F7181E090E0A0E0B0E004C076
:10318000880F991FAA1FBB1F2A95D2F73AC0E12FBB
:10319000E071FE2E892F8F71002351F00E94B30839
:1031A000812F8295807FF11035CE812F8F7032CEA6
:1031B0000E948F08812F8295807FF11051CE812F40
:1031C0008F704ECE002331F1F4E0FF1508F436CEB7
:1031D000292F2F7181E090E0A0E0B0E004C0880FBB
:1031E000991FAA1FBB1F2A95D2F74091E90350915E
:1031F000EA036091EB037091EC0384279527A627DF
:10320000B7278093E9039093EA03A093EB03B0936D
:10321000EC0314CE25E02F1508F410CED9CF892F5A
:103220008F71002399F00F900F900F900F900F90D7
:10323000DF91CF911F910F91FF90EF90DF90CF9092
:103240000C94B308892F8F71002369F30F900F90AE
:103250000F900F900F90DF91CF911F910F91FF90E2
:10326000EF90DF90CF900C948F081092E9031092AA
:10327000EA031092EB031092EC03E0CD133509F44E
:1032800023CE173409F0DACD1FCEF1102ACE892FC4
:103290008F71DCCF8111D2CD002309F4CFCD0E94F4
:1032A00053128FEF90E7E2E081509040E040E1F769
:1032B00000C000000E945E090F931F93CF93DF931D
:1032C0008091B603807FB9F48091B303882399F08D
:1032D0008091E8031091B7036091B1037091B2033C
:1032E000C091B403D091B50321E06F3F09F020E015
:1032F00006E0181305C0DF91CF911F910F9108953B
:1033000031E0209721F0322F7F3F09F030E090E04C
:1033100030FD33C0089FF001099FF00D1124DF013B
:10332000A854BC4F11963C911197371326C03C917D
:10333000361323C012963C91129731111EC013967A
:103340004D915C914C1B5D0B483C5105B0F4809154
:10335000B6038F7080618093B603E354FC4F808185
:103360008F708061808381EB93E00E945E16DF9115
:10337000CF911F910F910C94D30801968770B9CF0C
:103380009F92AF92BF92CF92DF92EF92FF920F93F4
:103390001F93CF93DF93CDB7DEB761970FB6F89445
:1033A000DEBF0FBECDBF8C0185E0F801DE011D96AA
:1033B00001900D928A95E1F7F80140815181F280E8
:1033C000C380D4809091B1036091B2032091B40383
:1033D0003091B50381E02115310531F06F3F19F4CB
:1033E00081E09F3F09F080E0F82FF1709F2E80FD73
:1033F00049C181EBA82E83E0B82EE090B303F6011B
:10340000E21BF30BEE2009F400C18091B603782F84
:10341000707FE83CF10508F0BAC0711181C0EF2C53
:10342000651322C0941320C0F1101EC08F708061FC
:103430008093B603C5010E945E168091B603F80121
:1034400085838E2D61960FB6F894DEBF0FBECDBF7B
:10345000DF91CF911F910F91FF90EF90DF90CF9070
:10346000BF90AF909F90089581E0C114D10431F0D6
:103470005F3F19F481E04F3F09F080E080FD24C0F8
:1034800081E08F25F82FF170BF2E80FF3FC0809123
:10349000E8032091B70336E0821318C07C2DD98A47
:1034A000C88A6F2D89890E94E907292F22952F70DC
:1034B000223000F1243028F59F7001F1F801958148
:1034C000907FE1F4E92CBDCF80E0DCCF90E0389F25
:1034D000F001399FF00D1124E854FC4F618156131F
:1034E00006C06081461303C062816F110FC0019650
:1034F0008770D2CF9F7011F0882321F3805E8830CF
:1035000008F3C8010E945E169B2CDCCFFF2009F453
:1035100098CF8091B60381608093B603E12C91CF60
:10352000651306C0941304C0F801FF2009F488C095
:103530004D875E87FF867C2DD98AC88A6F2D898941
:103540000E94DD08882309F4ABC0FF2009F4A8C05D
:103550008091B603803270F02091B1033091B203B4
:1035600038872F831986DB86CA868C87CE0107961B
:103570000E945E1686E0F801A1EBB3E001900D9287
:103580008A95E1F70E945C19EE24E3945ACF7111F9
:103590000AC081EB93E00E945E1686E0F50111926D
:1035A0008A95E9F7BBCF65130FC094130DC0F110D6
:1035B0000BC0F8018583C8010E945E1686E0F50104
:1035C00011928A95E9F73DCF4D875E87FF867C2D66
:1035D000D98AC88A6F2D89890E94DD08882309F459
:1035E0005FC0FF2009F45CC08091B603803210F206
:1035F0002091B1033091B2033A8329831B82DD828B
:10360000CC828E83CE010196B3CFE83CF105B0F6B3
:10361000EF2CFF2009F444C065131FC094131DC094
:103620008091B60380FD10C0982F907F69F0F8015B
:103630008583903F31F0982F907F905F8F70892B1A
:103640008583C8010E945E1686E0F801A1EBB3E015
:1036500001900D928A95E1F7F4CE4D875E87FF8643
:103660007C2DD98AC88A6F2D89890E94DD08811135
:1036700081CF8091B60381608093B603C8010E9418
:103680005E16DFCEFF2061F04D875E87FF867C2DC2
:10369000D98AC88A6F2D89890E94DD0881116ACF75
:1036A000C8010E945E1670CF1F93CF93DF93CDB7F2
:1036B000DEB767970FB6F894DEBF0FBECDBF4B8B5A
:1036C0005C8B6D8B7E8B8F8B1A8A198A85E0FE014D
:1036D0007396DE011D9601900D928A95E1F786E0C2
:1036E000FE013D96DE01179601900D928A95E1F755
:1036F000CE0107960E94C019811137C086E0FE01F5
:103700003796DE01119601900D928A95E1F79F811F
:1037100088852A853B85232B39F08F3F19F481E07A
:103720009F3F19F080E001C081E080FD1EC0209124
:10373000B70330E0C9010196877099274091E803EB
:103740004817190659F196E0929FD001939FB00D4A
:103750001124A854BC4FFE01319601900D929A9508
:10376000E1F78093B7030E94D30816E08091E80345
:103770009091B7038917F9F0819FC00111248854F3
:103780009C4F0E94C0198823B1F08091E80390E01B
:103790000196877099278093E803E8CF0E9453121F
:1037A0001092B7031092E80386E0E1EBF3E0DF014B
:1037B0001D928A95E9F767960FB6F894DEBF0FBEA3
:1037C000CDBFDF91CF911F910895CF93DF9300D0AC
:1037D0001F92CDB7DEB720919B03243041F5209195
:1037E0001001222321F123E029839B838A8382E035
:1037F0008093E9008FEF9091E800815095FD06C01D
:1038000095ED9A95F1F700008111F5CF8091E800D0
:1038100085FF0DC050E040E063E070E0CE0101960E
:103820000E945D0D8091E8008E778093E8000F90F4
:103830000F900F90DF91CF910895CF93DF9300D039
:103840001F92CDB7DEB720919B03243081F52091E4
:103850001001222361F119821A821B8222E029833E
:103860008138910520F0805891099B838A8382E0FA
:103870008093E9008FEF9091E800815095FD06C09C
:1038800095ED9A95F1F700008111F5CF8091E80050
:1038900085FF0DC050E040E063E070E0CE0101968E
:1038A0000E945D0D8091E8008E778093E8000F9074
:1038B0000F900F90DF91CF91089520919B032430BA
:1038C00049F522E02093E9002FEF3091E8002150E4
:1038D00035FD06C035ED3A95F1F700002111F5CF21
:1038E0002091E80025FF16C02091100150E040E033
:1038F00063E070E0222339F021E02093F10050E0F2
:1039000040E065E070E00E945D0D8091E8008E77F8
:103910008093E8000895CF93DF9320919B03243098
:10392000D9F4EC01809112018823F1F0809111010A
:103930008823D1F081E08093E90081E8815021F073
:103940009091E80095FF0BC08091E80050E040E0C6
:1039500060E270E085FD1AC0DF91CF9108959AE290
:103960009A95F1F700C0EACF81E08093E90081E801
:10397000815021F09091E80095FF19C08091E800F6
:1039800085FFEACF50E040E068E070E0CE010E94A1
:103990005D0D8091E8008E778093E80080E2FE0163
:1039A000A0E7B3E001900D928A95E1F7D5CFEFE360
:1039B000F1E03197F1F700C00000DACFEF92FF920B
:1039C0001F93CF93DF938DE8E82E81E0F82E1FEF51
:1039D0000E94F20EEC011150CF3FDC0741F48FE959
:1039E0009FE00197F1F700C000001111F1CF5C9A40
:1039F00085ED8A95F1F700005C98DF93CF93FF92F5
:103A0000EF920E9439060F900F900F900F90CB3FCE
:103A1000D105E9F2CE01DF91CF911F91FF90EF9098
:103A20000895CF93C82F1F928F9386E891E09F93BC
:103A30008F930E9439065C9A8FE99FE00197F1F716
:103A400000C000000F900F900F900F908091C80061
:103A500085FFFCCFC093CE008FE99FE00197F1F77F
:103A600000C000005C98CF910895EF92FF920F93F1
:103A70001F93CF93DF930E94F20E182FC82FD92FD8
:103A8000CF3FDC0709F050C080915903882309F427
:103A900044C005EA11E024E9E22E21E0F22E8DE98E
:103AA0000E94111D0E94DE1CEC01CF3FDC0791F14A
:103AB0008091820480FF0AC0DF93CF931F930F93FE
:103AC0000E9439060F900F900F900F90CA3FD105BA
:103AD00009F5809159030E94111D0E94DE1CEC0122
:103AE000CF3FDC07E1F28091820480FF10C0DF93BA
:103AF000CF93809159031F928F93FF92EF920E9470
:103B000039060F900F900F900F900F900F90CA3FB3
:103B1000D10529F61092590380E0DF91CF911F91D2
:103B20000F91FF90EF9008959F931F9384EB91E086
:103B30009F938F930E943906812F9E0193E03695C3
:103B400027959A95E1F79C2F977061E070E0DB0173
:103B500002C0AA0FBB1F9A95E2F7E22FEF70F0E0C8
:103B60000F900F900F900F90E056FC4F408150E067
:103B70004A235B2317FF18C0452B79F02F7033279A
:103B8000F901E056FC4FC770DD2701C0660FCA95EA
:103B9000EAF760959081692360835C9A95ED9A9528
:103BA000F1F700005C98B9CF452BB9F72F70332798
:103BB000F901E056FC4FC770DD2701C0660FCA95BA
:103BC000EAF79081692BE8CF78941F920F920FB695
:103BD0000F9211248F939F93AF93BF9380917C0496
:103BE00090917D04A0917E04B0917F040196A11D67
:103BF000B11D80937C0490937D04A0937E04B093C8
:103C00007F04BF91AF919F918F910F900FBE0F9046
:103C10001F9018951F920F920FB60F9211248F9339
:103C20009F93AF93BF9380917004811113C08091D3
:103C30007C0490917D04A0917E04B0917F04419614
:103C4000A11DB11D80937C0490937D04A0937E04FC
:103C5000B0937F04BF91AF919F918F910F900FBE52
:103C60000F901F9018951F920F920FB60F9211246C
:103C70002F933F934F935F936F937F938F939F9374
:103C8000AF93BF93EF93FF938091E10082FF09C050
:103C90008091E20082FF05C08091E1008B7F8093DC
:103CA000E1008091DA0080FF1FC08091D80080FF82
:103CB0001BC08091DA008E7F8093DA008091D9005A
:103CC00080FFB5C080E189BD82E189BD09B400FEF5
:103CD000FDCF81E080939B0380916D03811104C02F
:103CE0000E943F090E94890D8091E10080FF1FC062
:103CF0008091E20080FF1BC08091E2008E7F809364
:103D0000E2008091E20080618093E2008091D8001F
:103D100080628093D80019BC85E080939B038091DA
:103D20006F0380936E0310926F030E945312809171
:103D3000E10084FF2DC08091E20084FF29C080E172
:103D400089BD82E189BD09B400FEFDCF8091D80014
:103D50008F7D8093D8008091E1008F7E8093E10079
:103D60008091E2008F7E8093E2008091E20081608A
:103D70008093E20080919203882309F45EC084E07E
:103D800080939B030E94531280916E0380936F0374
:103D90008091E10083FF3AC08091E20083FF36C04A
:103DA0008091E100877F8093E10082E080939B0314
:103DB000109292038091E1008E7F8093E1008091C8
:103DC000E2008E7F8093E2008091E2008061809328
:103DD000E20042E060E080E00E942A0A81E08093F5
:103DE00012011092800410926F0380E2E0E7F3E08A
:103DF000DF011D928A95E9F7E7E3F2E01192B2E064
:103E0000E635FB07D9F781E080931001FF91EF9130
:103E1000BF91AF919F918F917F916F915F914F91E2
:103E20003F912F910F900FBE0F901F90189519BCC6
:103E300010929B0310926D0357CF8091E30087FD92
:103E400002C081E09DCF83E09BCFCF93DF93CDB7BE
:103E5000DEB72C970FB6F894DEBF0FBECDBF84B788
:103E6000877F84BF0FB6F894A89580916000886121
:103E700080936000109260000FBE80E890E00FB663
:103E8000F89480936100909361000FBE85E09EE0FE
:103E9000909335018093340186E091E0909374040F
:103EA000809373048BE792E00E94A0050E943F0973
:103EB0000E94890D789482E084BD93E095BD9AEFCD
:103EC00097BD80936E005B9A539A5C9A549A599A64
:103ED000519A5C9A5B9820E52A95F1F75B9A83E307
:103EE0008093CC001092CD008091C90080698093AE
:103EF000C9008091C90088608093C9008091CA0080
:103F000080638093CA0052985A9A78943FEF49E6AA
:103F100088E1315040408040E1F700C0000088E077
:103F200092E09F938F930E9439068FE90E94111DA2
:103F30000E94DE1C0F900F908A3F910509F0D9C1B5
:103F40000E94DE1C803A910509F0D3C10E94DE1C5C
:103F50008038910509F0CDC182E092E09F938F9364
:103F60000E9439060F900F908AEE91E09F938F93F5
:103F70000E9439060F900F901AECE12E11E0F12EFD
:103F80000BEBC02E01E0D02E8CE90E94111D0E9487
:103F9000DE1C8C010F3F100751F18091820480FFDD
:103FA0000AC01F930F93FF92EF920E9439060F9061
:103FB0000F900F900F900A3F1105C9F480E70E94FF
:103FC000111D0E94DE1C8C010196F1F28091820489
:103FD00080FF0AC01F930F93DF92CF920E94390691
:103FE0000F900F900F900F900A3F110569F689ED21
:103FF00091E09F938F930E9439060F900F9085E96F
:104000000E94111D0E94DE1C8A3F910541F483E04D
:104010000E94111D0E94DE1C8A3F910581F780EBF2
:1040200093E0B0EACB2EB3E0DB2EF60111926F01E4
:104030008E179F07D1F75C9880919B03843009F01D
:104040005BC10E94ED0D882309F456C189E692E018
:104050000E94A0058BE592E00E94A005F1E44F2E9E
:10406000F2E05F2EA0E56A2EA2E07A2E80919B03FB
:10407000853009F444C10E94351D0BE513E0E0EAE8
:10408000AE2EE3E0BE2E312CF50121905F01F80148
:104090009080921409F468C08091820481FF40C02E
:1040A00084E292E00E94A00520EA33E03C872B875F
:1040B000F12CE12CEB85FC852191FC87EB87229587
:1040C00030E0C901880F991F880F991F8C7C3595A6
:1040D0002795359527952373822B90E029E131E0D0
:1040E0003F932F939C01220F331F2A7A9595879532
:1040F0008575822B1F928F93FF92EF9289E192E058
:104100009F938F930E943906FFEFEF1AFF0A0FB6B5
:10411000F894DEBF0FBECDBF30E1E316F10451F6D7
:10412000E12CFF24F3949224892D8F21C1F0EE829B
:104130003F8291E0822D8F2109F490E098870E94C0
:10414000DD078160782F9A8789874E815F81688536
:104150008A850E94541BF80180818F258083E39417
:10416000FF0CF8E0EF12E0CF33940F5F1F4F20E118
:1041700032128ACF8FEF89838A831B820E94DD07E8
:104180008160782F9D838C8349815A816B818D81D9
:104190000E94541B20917504309176044FB7F89417
:1041A00080917C0490917D04A0917E04B0917F0465
:1041B0004FBFAC01421B530B809172042091170139
:1041C00030E0811106C0209118019AE0299F9001EA
:1041D00011244217530780F09091780410917904CC
:1041E00000917A04F0907B049111C1C0111185C136
:1041F000011183C1F11081C10E94330990915A03CA
:10420000891709F441C00E94330980935A039091A1
:1042100082049570953051F41F928F937F926F9224
:104220000E9439060F900F900F900F9080915A03C3
:1042300090E780FD91E79093590381FF05C090912D
:1042400059039460909359039091820490FF0AC09F
:104250001F928F935F924F920E9439060F900F909A
:104260000F900F908091820480FF0EC080915903BF
:104270001F928F93E1E3F2E0FF93EF930E943906E0
:104280000F900F900F900F902091E4003091E50077
:1042900080916B0390916C032817390739F1809155
:1042A000E4009091E50090936C0380936B030E946F
:1042B000ED0D8823D9F080919B038430B9F480916F
:1042C000E9008F709091EC0090FFBFC090E8892BBF
:1042D00093E09093E9009091EB0090FF04C09091DF
:1042E000EE0097FDD0C08F708093E9000E945C0AB9
:1042F000BDCE8CEF91E032CE0E945C0A9DCE8091C3
:104300009B03843021F11092700488E190E020E456
:104310000FB6F894A895809360000FBE20936000BC
:1043200083B7817F846083BF83B7816083BF7894C4
:10433000889583B78E7F83BF0FB6F894A895809138
:104340006000886180936000109260000FBE8091D1
:104350009103882309F48ACE0E94351DE0EAF3E038
:1043600081918111B4C0CE16DF06D1F77FCE8F3F89
:1043700019F08F5F80937204191624F40E94FF06CF
:10438000809378048091780487FF05C00E94FF061F
:10439000819580937804111624F40E94FF0680937F
:1043A00079048091790487FF05C00E94FF068195FA
:1043B0008093790460917804662331F11091790437
:1043C000112311F1062E000C770B880B990B0E941C
:1043D000DB2223E333E343E35FE30E943F230E94B6
:1043E000A32260937804612F110F770B880B990B30
:1043F0000E94DB2223E333E343E35FE30E943F2396
:104400000E94A32260937904101624F40E94C60629
:1044100080937A0480917A0487FF05C00E94C606C3
:10442000819580937A041F1424F40E94C606809319
:104430007B0480917B0487FF05C00E94C60681959E
:1044400080937B040E941B11D7CE90E040CFE09177
:104450000101F0910201E90FF11D20819F5F309170
:1044600005019323909304012093F1009091E800BB
:1044700095FD09C09091E80090FF05C09091E8007B
:104480009E779093E80090910401209103012917F1
:1044900021F02091E80025FDDACF2091F3009091E2
:1044A000F200322F292F232B09F41DCF9091E80021
:1044B00090FF19CF9091E80095FD06C09091E8001B
:1044C0009E779093E8000FCF1092F100F3CF80E138
:1044D00089BD82E189BD09B400FEFDCF8091D8007D
:1044E0008F7D8093D8008091E00082608093E0000F
:1044F0008091E00081FDFCCFB9CD8F3F09F039CF2D
:104500004ACF1F920F920FB60F9211248F939F9351
:10451000EF93FF9380915703E82FF0E08F5F909126
:104520005603981739F09091CE00EA5AFD4F9083C8
:1045300080935703FF91EF919F918F910F900FBE42
:104540000F901F9018950E94AA226894B1110C94A4
:10455000392308950E941E2388F09F5798F0B92FA1
:104560009927B751B0F0E1F0660F771F881F991FA8
:104570001AF0BA95C9F714C0B13091F00E943823EF
:10458000B1E008950C943823672F782F8827B85FFF
:1045900039F0B93FCCF3869577956795B395D9F700
:1045A0003EF490958095709561957F4F8F4F9F4F0A
:1045B0000895E89409C097FB3EF490958095709516
:1045C00061957F4F8F4F9F4F9923A9F0F92F96E95F
:1045D000BB279395F695879577956795B795F111D4
:1045E000F8CFFAF4BB0F11F460FF1BC06F5F7F4F71
:1045F0008F4F9F4F16C0882311F096E911C0772383
:1046000021F09EE8872F762F05C0662371F096E88B
:10461000862F70E060E02AF09A95660F771F881F5A
:10462000DAF7880F9695879597F9089557FD905872
:10463000440F551F59F05F3F71F04795880F97FB66
:10464000991F61F09F3F79F0879508951216130620
:104650001406551FF2CF4695F1DF08C0161617064F
:104660001806991FF1CF8695710561050894089584
:10467000E894BB2766277727CB0197F908950E9416
:1046800052230C94C3230E94B52338F00E94BC230C
:1046900020F0952311F00C94AC230C94B223112438
:1046A0000C9439230E94162370F3959FC1F3950F44
:1046B00050E0551F629FF001729FBB27F00DB11DA6
:1046C000639FAA27F00DB11DAA1F649F6627B00D36
:1046D000A11D661F829F2227B00DA11D621F739F1F
:1046E000B00DA11D621F839FA00D611D221F749F2D
:1046F0003327A00D611D231F849F600D211D822F74
:10470000762F6A2F11249F5750409AF0F1F088239A
:104710004AF0EE0FFF1FBB1F661F771F881F9150C7
:104720005040A9F79E3F510580F00C94AC230C94A7
:1047300039235F3FE4F3983ED4F3869577956795E8
:10474000B795F795E7959F5FC1F7FE2B880F911DF1
:104750009695879597F9089597F99F6780E870E097
:1047600060E008959FEF80EC089500240A941616E7
:10477000170618060906089500240A94121613064F
:10478000140605060895092E0394000C11F48823DD
:1047900052F0BB0F40F4BF2B11F460FF04C06F5FF9
:1047A0007F4F8F4F9F4F089597FB072E16F400946D
:1047B00007D077FD09D00E94EE2307FC05D03EF418
:1047C000909581959F4F0895709561957F4F0895BD
:1047D000EE0FFF1F0590F491E02D0994AA1BBB1B5F
:1047E00051E107C0AA1FBB1FA617B70710F0A61BF1
:1047F000B70B881F991F5A95A9F780959095BC0112
:08480000CD010895F894FFCFEB
:104808000536010000FFEA0D8B1C5D1C1D1CE51B15
:104818000101012808140A321E00397F224D01CEF9
:1048280000AC00A602BF02D8020102030405060775
:04483800080900006B
:10680000880000000000E2440400050006000700C4
:10681000080009000A000B000C000D000E000F001C
:1068200010001100120013001400150016001700CC
:10683000180019001A001B001C001D001E001F007C
:10684000200021002200230024002500260027002C
:10685000280029002A002B002C002D002E002F00DC
:1068600030003100000033003400000036003700F3
:10687000380082003A003B003C003D003E003F00F3
:106880004000410042004300440045004600000033
:10689000000049004A004B004C004D004E004F00E4
:1068A000500051005200000054005500560057009F
:1068B000000059005A005B005C005D005E005F0054
:1068C00060006100620063000000650085006700F1
:1068D000680069006A00000000000000000000007D
:1068E0000000000000000000890087008A008B0083
:1068F000E000E100E200E3000000E5000000E70046
:00000001FF
