:100000000C94E9040C944A050C94B3210C944A0511
:100010000C944A050C944A050C944A050C944A0524
:100020000C944A050C944A050C944A050C94FD1D49
:100030000C944A050C94D41D0C944A050C944A0562
:100040000C944A050C944A050C944A050C94AE1D78
:100050000C944A050C944A050C944A050C944A05E4
:100060000C944A050C944A050C944A050C944A05D4
:100070000C944A050631FF0974A101097515002683
:10008000FF009520750881020976150026FF00956E
:100090002075089102C005010902A1010901A10012
:1000A0008501050919012908150025019508750123
:1000B00081020501093009311581257F95027508F6
:1000C000810609381581257F950175088106050C83
:1000D0000A38021581257F950175088106C0C00583
:1000E000010980A10185021601002637001A81004E
:1000F0002AB700751095018100C0050C0901A10106
:100100008503160100269C021A01002A9C02751024
:1001100095018100C005010906A101050719E02923
:10012000E7150025019508750181020508190129C7
:100130000595057501910295017503910105071952
:100140000029F71500250195F875018102C0722577
:100150003032582000732530325820005B6D253036
:1001600032642C253032645D20005B6B25303258C0
:100170005D200041726368696D6564657320737406
:10018000617274732E0A0025583A25303136622583
:10019000730A000A2020303132333435363738398B
:1001A0004142434445460A005B4C45443A253032BF
:1001B000583A253032585D20004C45443A202530CD
:1001C00032580A000A4C6F6F702073746172742E7B
:1001D0000A000A55534220636F6E6669677572653F
:1001E000642E0A000A544D4B3A6230333061312F8D
:1001F0004C5546413A6436613764660A0009025438
:1002000000030100A03209040000010301010009FC
:100210002111010001223900070581032000010995
:100220000401000103010200092111010001227FE4
:100230000007058203080001090402000103000011
:10024000000921110100012222000705830320007B
:10025000011201100100000008EDFEACAC0001012C
:100260000200013C03410072006300680069006DF8
:1002700000650064006500730020006B0065007974
:100280000062006F00610072006400200063006F74
:10029000006E007600650072007400650072000058
:1002A00000080354004D004B000000040309040A39
:1002B0006D6F7573653A205B253032587C2564205C
:1002C00025642025642025645D200073797374659E
:1002D0006D3A20253034580A00636F6E73756D6572
:1002E000723A20253034580A003F004D3E2000432A
:1002F0003E20000A00257500363A20776865656C57
:100300005F74696D655F746F5F6D61783A20000A94
:1003100000257500353A20776865656C5F6D6178FA
:100320005F73706565643A20000A00257500343AF1
:100330002074696D655F746F5F6D61783A20000AA3
:1003400000257500333A206D61785F7370656564D0
:100350003A20000A00257500323A20696E746572F1
:1003600076616C286D73293A20000A0025750031EA
:100370003A2064656C6179282A31306D73293A20FE
:10038000000A092D2056616C756573202D0A004DF9
:100390003E004D25643E20003F0073657420646577
:1003A0006661756C740A00433E20000A00253032F5
:1003B0005820006B6579626F6172643A2000293AB7
:1003C0003B3C3D3E3F404142434445464748351E45
:1003D0001F20212223242526272D2E742A494A4B0B
:1003E000535455672B141A0815171C180C12132F89
:1003F00030314C4D4E5F60615678041607090A0B88
:100400000D0E0F3334285C5D5E5779641D1B061991
:100410000511103637387D52595A5B397A2C7E7C5B
:1004200050514F62635880808080808080808080BF
:100430008080808080808080808080808080290A89
:10044000002575002F002575005D2800256400201B
:1004500000256400200025640020002564007C0045
:1004600025303258006D6F7573656B6579205B625E
:10047000746E7C782079207620685D287265702FF4
:1004800061636C293A205B000A092D204D61676980
:1004900063202D0A643A0964656275670A783A092F
:1004A0006465627567206D61747269780A6B3A09D8
:1004B0006465627567206B6579626F6172640A6D4D
:1004C0003A096465627567206D6F7573650A763ADF
:1004D0000976657273696F6E0A733A097374617491
:1004E00075730A633A09636F6E736F6C65206D6F85
:1004F00064650A302D343A096C61796572302D34A7
:10050000284631302D4634290A506175733A096204
:100510006F6F746C6F616465720A6E3A094E4B526C
:100520004F0A000A092D20436F6E736F6C65202DF2
:100530000A4553432F713A09717569740A6D3A0976
:100540006D6F7573656B65790A003F004E4B524FB6
:100550003A206F66660A004E4B524F3A206F6E0A81
:100560000074696D65725F72656164333228293A7F
:10057000202530346C580A006B6579626F617264B3
:100580005F6E6B726F3A2025580A006B6579626F57
:100590006172645F69646C653A2025580A006B6576
:1005A00079626F6172645F70726F746F636F6C3ABF
:1005B0002025580A00686F73745F6B6579626F61FC
:1005C00072645F6C65647328293A2025580A000A12
:1005D000092D20537461747573202D0A004743431D
:1005E0003A20372E332E30204156522D4C4942436B
:1005F0003A20322E302E30204156525F415243482D
:100600003A2061767233350A004F5054494F4E53A9
:100610003A204C554641204D4F5553454B455920A6
:1006200045585452414B455920434F4E534F4C452A
:1006300020434F4D4D414E44204E4B524F204B4591
:10064000594D41505F53454354494F4E20424F4FFF
:10065000544C4F414445525F53495A450A00425554
:10066000494C443A20623033306131202831303AED
:1006700032343A3130204465632032342032303213
:1006800035290A005649443A2030784645454428E1
:10069000544D4B29205049443A203078414341433E
:1006A0002841726368696D65646573206B65796262
:1006B0006F61726420636F6E766572746572292053
:1006C0005645523A203078303130300A0044455394
:1006D000433A20636F6E766572747320417263686B
:1006E000696D65646573206B6579626F6172642002
:1006F000696E746F205553420A000A092D20566511
:100700007273696F6E202D0A000A6D6F7573653AFA
:10071000206F66660A000A6D6F7573653A206F6E0A
:100720000A000A6B6579626F6172643A206F6666CF
:100730000A000A6B6579626F6172643A206F6E0A13
:10074000000A6D61747269783A206F66660A000A61
:100750006D61747269783A206F6E0A000A6465628E
:1007600075673A206F6E0A000A64656275673A2001
:100770006F66660A000A0A626F6F746C6F61646567
:10078000722E2E2E2000433E20006D6B5F77686531
:10079000656C5F74696D655F746F5F6D6178203D36
:1007A0002025640A006D6B5F776865656C5F6D611D
:1007B000785F7370656564203D2025640A006D6B69
:1007C0005F74696D655F746F5F6D6178203D202592
:1007D000640A006D6B5F6D61785F7370656564209E
:1007E0003D2025640A006D6B5F696E7465727661E9
:1007F0006C203D2025640A006D6B5F64656C617937
:10080000203D2025640A006D6B5F776865656C5F2D
:1008100074696D655F746F5F6D6178203D2025643C
:100820000A006D6B5F776865656C5F6D61785F73FB
:1008300070656564203D2025640A006D6B5F7469F6
:100840006D655F746F5F6D6178203D2025640A00DF
:100850006D6B5F6D61785F7370656564203D202509
:10086000640A006D6B5F696E74657276616C203D21
:100870002025640A006D6B5F64656C6179203D2002
:1008800025640A0077686572652064656C74613A56
:1008900020637572736F723D25642C2077686565DF
:1008A0006C3D25640A53656520687474703A2F2F77
:1008B000656E2E77696B6970656469612E6F72670A
:1008C0002F77696B692F4D6F7573655F6B657973F2
:1008D0000A000A092D204D6F7573656B6579202D0F
:1008E0000A4553432F713A09717569740A313A09FF
:1008F00064656C6179282A31306D73290A323A09AE
:10090000696E74657276616C286D73290A333A09D1
:100910006D61785F73706565640A343A0974696D56
:10092000655F746F5F6D61780A353A097768656550
:100930006C5F6D61785F73706565640A363A09773C
:100940006865656C5F74696D655F746F5F6D617814
:100950000A0A703A097072696E742076616C756566
:10096000730A643A097365742064656661756C7412
:10097000730A75703A092B310A646F776E3A092D44
:10098000310A706775703A092B31300A7067646FED
:10099000776E3A092D31300A0A7370656564203D1F
:1009A0002064656C7461202A206D61785F737065C6
:1009B0006564202A2028726570656174202F207478
:1009C000696D655F746F5F6D6178290A004C2564FD
:1009D0000A0011241FBECFEFD4E0DEBFCDBF04B6A6
:1009E00003FE41C08091130490911404A09115045A
:1009F000B09116048730904BA740B04BA1F51092F0
:100A0000130410921404109215041092160414BECC
:100A10000FB6F894A895809160008861809360007B
:100A2000109260000FBE109201081092000889E039
:100A3000E3E0F0E080935700E491E695E370E15045
:100A400080E090E1E33040F4F0E0EE0FFF1FED5C5A
:100A5000FE4F8081918100C0E0E0F0E8E81BF90BD7
:100A6000F695E795099511E0A0E0B1E0E0EEF6E437
:100A700002C005900D92AA33B107D9F724E0AAE38A
:100A8000B1E001C01D92A331B207E1F70E94CA1E76
:100A90000C946E230C940000FF93EF93E0913A01C5
:100AA000F0913B01309709F00995EF91FF9108957E
:100AB000FC018591803011F0EFDFFBCF0895FF2717
:100AC000E0E230E247FF0CC0419597FF09C0EDE23C
:100AD0006095709580959095611D711D811D911D8A
:100AE00027FF02C0219530E350E2AA27660F771F47
:100AF000881F991FAA1FA41710F0A41B63955A956D
:100B0000A9F7AA3008F0A95FA05DAF93F39561152E
:100B100071058105910541F7ED3211F4EF93F395DD
:100B2000F21718F43F93F395FBCF8F91B5DFFA9549
:100B3000E1F70895E991F9918591803021F08532AE
:100B400019F0AADFF9CF089520E0E89455915532C5
:100B5000C1F3503311F4689455915A3348F450530B
:100B600090F3220F022E220F220F200D250FF4CF1B
:100B70000EF4219589919991533619F3533729F140
:100B8000533559F1BC0188279927E8945C3621F444
:100B90008991999168945591543639F446EF7EF0D5
:100BA00077FF0DC08FEF9FEF0AC055374AE039F04D
:100BB000583540E121F0523642E009F00895FF93A4
:100BC000EF937DDFEF91FF91B7CFFF93EF93FC01A0
:100BD00081918030B9F360DFFBCFFF93EF9368DF43
:100BE000F1CFDF93CF93CDB7DEB72596A3DFCF91BB
:100BF000DF910895803FC1F48091050487FD109234
:100C000005048091040481110EC0809105048111B6
:100C10000AC080910604811106C0809107048111E9
:100C200002C0109200040895813F29F480910504C8
:100C300018162CF3E6CF90910404823F29F497FF15
:100C4000E0CF10920404DDCF833F19F41916CCF3E2
:100C5000D8CF893F39F480910604181694F6109283
:100C60000604CFCF8A3F29F48091060487FFC9CFBD
:100C7000F6CF8B3F39F48091070487FFC2CF1092E3
:100C80000704BFCF8C3F29F4809107041816BCF3EA
:100C9000B8CF843F31F4809103048E7F80930304A6
:100CA000B0CF853F21F4809103048D7FF7CF863F3D
:100CB00021F4809103048B7FF1CF873F21F4809151
:100CC0000304877FEBCF883F21F4809103048F7E5C
:100CD000E5CF8D3F31F48091FF038E7F8093FF033A
:100CE00090CF8E3F21F48091FF038D7FF7CF8F3F10
:100CF00009F087CF8091FF038B7FF0CF8091FF03B6
:100D000080FF0CC06091140170E075956795759532
:100D100067956115710559F1862F089581FF06C009
:100D20006091140170E075956795F3CF609114019F
:100D300070E082FD0CC0609100046623A9F0209150
:100D400013018091140190E0621730F0BC0160380B
:100D50007105F8F28FE7089570E00E942F23622F4B
:100D600070E00E944023F3CF61E070E0D5CF81E0D6
:100D700008958091FF0380FF11C08091160190E0DB
:100D800065E070E00E942F2395958795959587954E
:100D900080389105B0F50097B1F1089581FF0AC040
:100DA0008091160190E065E070E00E942F239595F8
:100DB0008795EECF82FF08C08091160190E065E034
:100DC00070E00E942F23E4CF309100043323B1F070
:100DD000209115018091160190E065E070E00E947D
:100DE0002F23BC013217A0F6832F90E00E942F23FF
:100DF000622F70E00E944023CB01CACF85E090E0D3
:100E000008958FE7089581E00895803F31F40E94AE
:100E1000B9068195809305040895813F19F40E94D5
:100E2000B906F8CF823F31F40E94B90681958093CC
:100E300004040895833F19F40E94B906F8CF893F4E
:100E400029F40E947E068093060408958A3F21F4C7
:100E50000E947E068195F7CF8B3F31F40E947E067B
:100E600081958093070408958C3F19F40E947E06B3
:100E7000F8CF843F31F480910304816080930304B0
:100E80000895853F21F4809103048260F7CF863F67
:100E900021F4809103048460F1CF873F21F4809195
:100EA00003048860EBCF883F21F4809103048061C4
:100EB000E5CF8D3F31F48091FF0381608093FF0384
:100EC00008958E3F21F48091FF038260F7CF8F3F1A
:100ED000B9F78091FF038460F1CF783080F46031FE
:100EE00070F4E72FF0E054E0EE0FFF1F5A95E1F7A2
:100EF000E60FF11DE254FC4F6491603819F480E074
:100F000090E00895E62FE295E77090E023E0880FE7
:100F1000991F2A95E1F78E0F911D34E0880F991FD4
:100F20003A95E1F7E62FEF70E80FF92FF11DEE0F7C
:100F3000FF1FE050F8498591949108952FB7F894D8
:100F40008091080490910904A0910A04B0910B04C7
:100F50002FBF0895829590E09C01220F331F220F2E
:100F6000331F2C7C95958795959587958373282BB2
:100F700030E0C901880F991F8A7A35952795257524
:100F8000822B08954F925F926F927F929F92AF92C1
:100F9000BF92CF92DF92EF92FF920F931F93CF9366
:100FA000DF9300D000D01F92CDB7DEB76B837C8378
:100FB0008D837A018C819D81892B49F08FEFF81206
:100FC00004C081E09FEF491719F080E001C081E083
:100FD00080FD67C00F2D10E0CE2CD12C8B81882393
:100FE00009F453C0409075035090760360907703E6
:100FF0007090780380910F0490911004A0911104D7
:10100000B0911204482A592A6A2A7B2A2FE1A22E7B
:10101000B12C9A2CD301C2010A2C04C0B695A79515
:10102000979587950A94D2F780FD28C081E0A81A89
:10103000B10878F7912CF80194E0EE0FFF1F9A9514
:10104000E1F7E758FC4FEC0DFD1D9082B701892DAB
:101050000F900F900F900F900F90DF91CF911F91F5
:101060000F91FF90EF90DF90CF90BF90AF909F9047
:101070007F906F905F904F900C946D07B7018A2D11
:101080000E946D07019791F2D6CFF80184E0EE0F30
:10109000FF1F8A95E1F7E758FC4FEC0DFD1D90808E
:1010A000D5CF90E080E00F900F900F900F900F90B1
:1010B000DF91CF911F910F91FF90EF90DF90CF9034
:1010C000BF90AF909F907F906F905F904F900895EA
:1010D00041E050E060E070E004C0440F551F661F1F
:1010E000771F8A95D2F740955095609570958091BD
:1010F000750390917603A0917703B09178038423D0
:101100009523A623B7238093750390937603A0932A
:101110007703B0937803089541E050E060E070E019
:1011200004C0440F551F661F771F8A95D2F7809120
:10113000750390917603A0917703B0917803842B87
:10114000952BA62BB72B8093750390937603A093D2
:101150007703B093780308958091740390914303CB
:10116000981301C008958F5F8770FACF1F93CF93B4
:10117000DF9300D000D01F92CDB7DEB7942F498304
:10118000252F5A836B837C838D834C815D8181E025
:10119000452B31F02F3F19F481E09F3F09F080E0AB
:1011A000182F117080FD36C049815A816B817C8176
:1011B0008D810E94C207E92FE295EF70E250EE3078
:1011C000F8F4F0E0EA51F74F0C945423FB08FB08C5
:1011D00000090009FB08FB0800090009F408F408ED
:1011E000FD0800090009FD08803C28F0803E40F021
:1011F000815F833028F011E003C093FB112710F9C1
:10120000812F0F900F900F900F900F90DF91CF9143
:101210001F91089510E0F4CFE091F903F091FA03E3
:10122000309721F00190F081E02D099480E008953D
:101230001092E2001092E100E0EEF0E08081816027
:101240008083E8EDF0E080818F77808319BCE3E64E
:10125000F0E08081816080831092090308950E94EC
:101260001809F89487E797E790930108809300089E
:1012700087E090EBDC018093130490931404A09317
:101280001504B093160488E19CE00FB6F894A89575
:10129000809360000FBE90936000FFCFFC018091AF
:1012A00035039091360386179707A0F061157105F5
:1012B00029F49091E8009E779093E80090E0611502
:1012C000710551F4911108C08091E80082FF32C08D
:1012D00080E00895BC01F2CF809137038823B1F1FB
:1012E0008530B1F18091E80083FD2EC08091E80047
:1012F00082FDEACF8091E80080FFE1CF2091F200EB
:1013000030E06115710519F02830310558F091E091
:101310002830310509F090E02091E8002E772093E5
:10132000E800CDCF81918093F100615071092F5F6A
:101330003F4FE7CF80913703882341F0853041F05C
:101340008091E80083FFC0CF81E0089582E0089596
:1013500083E008952091E4003091E50085E69091C6
:10136000EC0090FF06C09091E80090FF06C080E07E
:1013700008959091E80092FDFACF90913703992358
:1013800091F0953091F09091EB0095FD10C0409157
:10139000E4005091E5002417350709F381509A01C4
:1013A000F1F684E0089582E0089583E0089581E0F5
:1013B000089580912F0387FF13C08091E80082FF7A
:1013C00006C08091E8008B778093E80004C080918C
:1013D00037038111F2CF0895809137038823D9F321
:1013E0008091E80080FFF8CF8091E8008E77ECCF05
:1013F000982F9093E900242F762F50E0891731F031
:101400007091EC002091ED005091F00021FD07C09B
:101410009F5F953071F78093E90081E008953091E6
:10142000EB003E7F3093EB003091ED003D7F309339
:10143000ED003091EB0031603093EB007093EC00E5
:101440002093ED005093F0002091EE0027FDE0CFB7
:1014500080E008950F931F93CF93DF93CDB7DEB74E
:10146000AA970FB6F894DEBF0FBECDBF80913703A9
:10147000882309F44DC11091E9001F708091EC00A0
:1014800080FF38C080E8182B1092E9008091E800B6
:1014900083FF3BC1EFE2F3E08091F100819383E0B1
:1014A000E733F807C9F780913003833009F470C03F
:1014B00018F5813009F447C0823009F4DAC0809110
:1014C000E80083FF14C180912F03909130039A307C
:1014D00008F00DC1E92FF0E0E059F54F0C945423CA
:1014E0004A0B700B770B700B770BD20BF40B770B4F
:1014F000EF0CFC0C80E0C7CF8A3009F4A9C08B3018
:1015000009F47DC08930D9F680912F038132B9F674
:101510008091330390913403892B89F68091E80000
:10152000877F8093E8008091E80082FF2CC0809143
:10153000F10080930B038091E8008B778093E800A3
:101540000E94D909BCCF80912F03813A09F0B7CF0F
:101550008091E800877F8093E80080913303909129
:101560003403892B61F060E090E080E070E00E943D
:101570004E098091E8008B778093E800A0CF60E26D
:101580008CE093E0F3CF809137038111CCCF97CFDC
:1015900080912F03813A09F092CF8091330390918B
:1015A0003403892BA1F48091E800877F8093E800C1
:1015B0008091E80080FFFCCF809112018093F100C0
:1015C0008091E8008E778093E8000E94D90980918D
:1015D000330390913403019709F071CF8091E800B3
:1015E000877F8093E8008091E80080FFFCCF8091A6
:1015F00010018093F1008091E8008E779FCF809159
:101600002F03813209F05BCF809133039091340333
:10161000892B59F48091E800877F8093E8000E942D
:10162000D909809131038093120180913303909105
:101630003403019709F043CF8091E800877F8093BE
:10164000E8000E94D909809131038093100137CFBF
:1016500080912F03813209F032CF8091E800877F9B
:101660008093E8000E94D9098091320380930C0492
:1016700026CF80912F03813A09F021CF8091E80095
:10168000877F8093E8008091E80080FFFCCF809105
:101690000C04AFCF803889F0823849F5809133034C
:1016A0008F70853020F58093E9008091EB0085FBF9
:1016B000882780F91092E90006C080912C03909150
:1016C0002D03911182609091E800977F9093E8003C
:1016D0008093F1001092F1008091E8008E7731C084
:1016E000282F2D7F21F48823F1F0823079F1809129
:1016F000E80083FF0AC08091E800877F8093E800BC
:101700008091EB0080628093EB001F701093E900E2
:10171000AA960FB6F894DEBF0FBECDBFDF91CF9172
:101720001F910F91089580913103813001F793301B
:1017300009F080E080932D031092E9008091E80089
:10174000877F8093E8000E94D909D1CF809131032F
:101750008111F2CF809133038F702FEF280F243047
:1017600030F68093E9002091EB0020FFE5CF933025
:1017700031F48091EB0080628093EB00DDCF90919B
:10178000EB0090619093EB0021E030E001C0220F6C
:101790008A95EAF72093EA001092EA008091EB0024
:1017A0008860EACF8111A3CF009131030F77809138
:1017B000E3008078802B8093E3008091E800877FAE
:1017C0008093E8000E94D9098091E80080FFFCCF57
:1017D0008091E30080688093E30083E0011101C001
:1017E00082E08093370383CF8058823008F07FCF28
:1017F00020913103309132032C3DA3E03A07A1F54B
:1018000083E08A838AE289834FB7F894DE011396D6
:1018100020E03EE051E2E32FF0E050935700E491E6
:1018200020FF03C0E295EF703F5FEF708E2F90E0D6
:10183000EA30C0F0C7968D939D932F5F243159F7FE
:101840004FBF8091E800877F8093E8006AE270E0F4
:10185000CE0101960E944E098091E8008B7780931B
:10186000E80045CFC096E7CF8091330390913403D1
:10187000432F55274330510509F44FC078F54130C7
:10188000510509F445C084E590E0EDEFF1E0423008
:10189000510509F02CCF2091E800277F2093E80024
:1018A00020913503309136038217930708F49C0189
:1018B00040E02115310509F063C0411161C08091FC
:1018C000E80082FDC9CF80913703882329F2853053
:1018D00019F28091E80083FFF2CFBECF413251056B
:1018E00009F43FC04232510509F001CF8330910520
:1018F00008F0FDCEFC01EE0FFF1FE35EFE4F0190EE
:10190000F081E02D865E9E4FDC018C9190E01DC041
:1019100082E190E0E1E5F2E0BECF332721303105EE
:10192000C1F060F02230310509F0E1CEE3E6F2E0EB
:10193000E4918E2F90E0E3E6F2E007C0EBEAF2E0FC
:10194000E4918E2F90E0EBEAF2E0009709F4CFCE1D
:10195000A2CFE1EAF2E0E4918E2F90E0E1EAF2E03A
:10196000F4CF8330910508F0C2CE880F991FFC0197
:10197000ED5DFE4F0190F081E02D89E090E08BCF8E
:1019800080913703882309F467CF853009F464CF49
:101990008091E80083FD60CF8091E80082FD8FCFC9
:1019A0008091E80080FF85CF8091F20090E02115C2
:1019B000310519F08830910550F041E0089709F0A1
:1019C00040E08091E8008E778093E80072CF4491E8
:1019D0004093F1003196215031090196E8CF8038CB
:1019E00009F085CE8091E800877F8093E8008091A0
:1019F0002E038093F10070CE811179CE00913103D6
:101A0000023008F074CE8091E800877F8093E80070
:101A100000932E030E94D909002399F084E080935B
:101A2000370342E261EC81E00E94F80942E061EC98
:101A300082E00E94F80946E261EC83E00E94F80926
:101A400056CE8091E30087FDE9CF81E0E8CFEF92A9
:101A5000FF920F931F93CF937C018B010E94AA09E1
:101A6000C82F811119C08091E80085FD0DC08091BB
:101A7000E8008E778093E8000E942A0A0E94AA0953
:101A8000882389F3C82F08C0F70181917F018093D3
:101A9000F1000150110939F78C2FCF911F910F914F
:101AA000FF90EF90089580910B0308958091E402D8
:101AB000811113C09FB7F894409108045091090414
:101AC00060910A0470910B049FBF443C594061052A
:101AD000710518F081E08093E4020895EF92FF927F
:101AE0000F931F93CF93DF93D82F0FB607FE46C0F7
:101AF00080913703843079F08091030190E0019662
:101B00002091050130E082239323209104012817BE
:101B1000190609F0C9C00E94560D81110FC08091AD
:101B2000030190E001962091050130E08223932388
:101B3000209104012817190609F0B6C00E949E07DB
:101B40008C01C091E900CF708091EC0080FD37C01E
:101B500080E0C82B83E08093E90085E0E82E809147
:101B6000EB0085FD08C08091EB0080FF04C08091F0
:101B7000EE0087FD44C0CF70C093E900E0910301FF
:101B80008E2F90E001962091050130E0822393236F
:101B9000209104012817190609F47EC080910101E3
:101BA00090910201E80FF92FF11DD083809103017C
:101BB0008F5F909105018923809303016DC080E8B8
:101BC000C8CFE0910101F0910201E80FF11D908171
:101BD0008F5F209105018223809304019093F1008F
:101BE0008091E80085FD0BC08091E80080FF07C070
:101BF0008091E8008E778093E800E0920001809168
:101C0000040190910301981741F19091E80095FD2E
:101C1000D8CF80E029C01092F1002EC0809103013E
:101C200090E001962091050130E0822393232091DA
:101C300004012817190609F09ECFF0900001FF203B
:101C400009F499CF0E949E078017910709F487CF66
:101C5000FA94F09200018C0182CF8091E80085FF18
:101C6000D8CFD093F10081E09091F200992379F0E0
:101C70009091E80090FF0BC09091E80095FDCBCFCC
:101C80009091E8009E779093E800E092000188230D
:101C900029F2CF70C093E90080E0DF91CF911F91CE
:101CA0000F91FF90EF900895E091030177CFE5EE5B
:101CB000F2E011821082138212821582148217823E
:101CC000168211861086138612861586148617864C
:101CD000168608958330C9F128F4813061F082308E
:101CE00019F10895853009F452C008F43FC08630D8
:101CF00009F45EC0089580911801681790F4861B5E
:101D000080931801809118011F928F9385E798E0C6
:101D10009F938F930E94F1050F900F900F900F905B
:101D2000089510921801EECF80911701681750F4B2
:101D3000861B80931701809117011F928F9383E672
:101D400098E0E6CF10921701F6CF80911601681740
:101D500050F4861B80931601809116011F928F9379
:101D600080E598E0D5CF10921601F6CF809115014D
:101D7000681750F4861B80931501809115011F92FE
:101D80008F938BE398E0C4CF10921501F6CF80912A
:101D90001401681750F4861B80931401809114017C
:101DA0001F928F9382E298E0B3CF10921401F6CF86
:101DB00080911301681750F4861B80931301809162
:101DC00013011F928F9387E098E0A2CF1092130126
:101DD000F6CF833009F445C028F4813061F08230B9
:101DE00049F10895853009F46AC008F451C086307D
:101DF00009F47CC0089580911801482F460F55279B
:101E0000551F4F3F510594F4680F6093180180915E
:101E100018011F928F9388EF97E09F938F930E94F2
:101E2000F1050F900F900F900F9008958FEF809312
:101E30001801EDCF80911701482F460F5527551FE8
:101E40004F3F510554F4680F6093170180911701BB
:101E50001F928F9386EE97E0E0CF8FEF809317016C
:101E6000F5CF80911601482F460F5527551F4F3F3C
:101E7000510554F4680F60931601809116011F926A
:101E80008F9383ED97E0C9CF8FEF80931601F5CF45
:101E900080911501482F460F5527551F4F3F51057B
:101EA00054F4680F60931501809115011F928F9370
:101EB0008EEB97E0B2CF8FEF80931501F5CF809135
:101EC0001401482F460F5527551F4F3F510554F415
:101ED000680F60931401809114011F928F9385EA1B
:101EE00097E09BCF8FEF80931401F5CF8091130182
:101EF000482F460F5527551F4F3F510554F4680F83
:101F000060931301809113011F928F938AE897E0E9
:101F100084CF8FEF80931301F5CFCF93DF93209180
:101F20003A0330913B032817390701F190933B03A3
:101F300080933A03E091F903F091FA033097B1F0FE
:101F4000EC010084F185E02D099580910E048570E7
:101F5000853061F4DF93CF9389ED92E09F938F9367
:101F60000E94F1050F900F900F900F90DF91CF918D
:101F70000895CF93DF9320913803309139032817C8
:101F8000390701F19093390380933803E091F90305
:101F9000F091FA033097B1F0EC010680F781E02D63
:101FA000099580910E048570853061F4DF93CF939D
:101FB0008BEC92E09F938F930E94F1050F900F900E
:101FC0000F900F90DF91CF910895CF93DF93E09121
:101FD000F903F091FA033097B1F1EC010480F58137
:101FE000E02D099580910E0483FF2DC08C81282F50
:101FF000082E000C330B3F938F938B81282F082ED4
:10200000000C330B3F938F938A81282F082E000CEE
:10201000330B3F938F938981282F082E000C330BAD
:102020003F938F9388811F928F938FEA92E09F93C3
:102030008F930E94F1058DB79EB70C960FB6F8945A
:102040009EBF0FBE8DBFDF91CF910895CF93DF93D9
:102050008091E2029091E302CFEFDFEF9817D9F081
:10206000E82FF0E0EE51FE4F90818F5F8093E20207
:10207000C92FD0E01F929F938EE491E09F938F939E
:102080000E94F1050F900F900F900F90CF3FD10558
:1020900011F41092E101CE01DF91CF91089582ED0C
:1020A00098E00E9458051F9281E08F931F9285E06F
:1020B0008F9384E898E09F938F930E94F1050F908F
:1020C0000F900F900F900F900F900895CF93DF9384
:1020D00000D000D01F92CDB7DEB780910E0483FFF1
:1020E0007BC085E694E00E945805809103041F920E
:1020F0008F9380E694E09F938F930E94F1058EE585
:1021000094E00E94580580910404282F082E000CAA
:10211000330B3F938F938BE594E09F938F930E94B3
:10212000F10589E594E00E94580580910504282F67
:10213000082E000C330B3F938F9386E594E09F931A
:102140008F930E94F10584E594E00E9458058091E8
:102150000604282F082E000C330B3F938F9381E544
:1021600094E09F938F930E94F1058FE494E00E9486
:10217000580580910704282F082E000C330B3F933D
:102180008F938CE494E09F938F930E94F10589E4F0
:1021900094E00E945805809100041F928F9386E47A
:1021A00094E09F938F930E94F10584E494E00E9451
:1021B00058058091FF031F928F9381E494E09F93D1
:1021C0008F930E94F1058EE394E00E9458050FB6AC
:1021D000F894DEBF0FBECDBF85E0E3E0F4E0DE01A2
:1021E000119601900D928A95E1F7CE0101960E9419
:1021F000E50F0E949E0790930204809301040F90C4
:102200000F900F900F900F90DF91CF9108950F9343
:102210001F93CF93DF938091FD039091FC03892B53
:102220008093BC019091FB03992389F0892B8093C3
:10223000BC01EDEBF1E02CED31E080E091919111EA
:102240008F5F2E173F07D1F781111092FB03E091AA
:10225000F903F091FA033097B1F10280F381E02D98
:102260008CEB91E0099580910E0482FF2CC080FFD9
:1022700004C083EB93E00E945805D0E0C0E00DEA73
:1022800013E080910E0480FF0EC0FE01E454FE4F67
:1022900080811F928F931F930F930E94F1050F90DF
:1022A0000F900F900F902196C032D10551F7809179
:1022B0000E0480FF08C08BEA93E0DF91CF911F915D
:1022C0000F910C945805DF91CF911F910F910895B4
:1022D0001092FD031092FC03EDEBF1E0119281E00E
:1022E000EC3DF807D9F70E94071185E0E3E0F4E040
:1022F000DF011D928A95E9F7109200041092FF0306
:102300000E94661090E080E00E94B90F90E080E0AB
:102310000C948D0FCF93C82F1F928F938DEC99E063
:102320009F938F930E94F10581E090E0A0E0B0E0E0
:1023300004C0880F991FAA1FBB1FCA95D2F78093AC
:102340000F0490931004A0931104B09312040F9003
:102350000F900F900F90CF910C946811882341F04B
:1023600080959091FD0389238093FD030C940711C0
:102370000895882339F09091FD03892B8093FD0304
:102380000C9407110895882309F45BC09CEF980F03
:10239000913A60F5909112019923D9F09091110131
:1023A0009923B9F0E82FE695E695E695F0E0E45438
:1023B000FE4F877021E030E0A90102C0440F551F95
:1023C0008A95E2F7CA0180959181892381830C94D3
:1023D0000711ECEBF1E02AED31E09281891301C0A5
:1023E000128231962E173F07C1F7F1CF90E2980F76
:1023F000983088F4877021E030E0A90102C0440FD2
:10240000551F8A95E2F7CA0180959091FD038923B3
:102410008093FD03DCCF9BE5980F933020F490E090
:1024200080E00C94B90F98E5980F973120F490E074
:1024300080E00C948D0F803F20F00E94FA050C94F0
:1024400066100895CF93873208F050C08E3108F09F
:1024500020C1803109F4A9C0F8F4873009F488C09C
:1024600048F4863009F471C08AE495E00E9458056A
:10247000C0E027C08B3009F463C08E30A9F790917B
:102480000E04892F8B7F92FF846080930E0482FF5D
:1024900089C082E397E07DC0863109F4ADC0A0F425
:1024A000813111F70E946811C091110181E0C827A4
:1024B000C0931101CC2309F4E9C087E595E00E949F
:1024C00058058C2FCF910895893109F47EC08B3146
:1024D00059F690910E04892F8D7F91FF8260809331
:1024E0000E0481FF5CC08FE497E053C0883341F154
:1024F00058F4893229F0853319F0873209F0B4CFC6
:1025000080E00E948A1132C08334D1F328F48A33E8
:1025100008F4AACF8953F5CF883409F0A5CF0E94DB
:10252000681185E797E00E9458052FEF83ED90E34F
:10253000215080409040E1F700C000000E942F0928
:1025400088E894E00E94580511C080910E04817FB4
:102550008E7F80930E0483E295E00E94580586E802
:1025600097E00E94580581E080930D04C1E0A9CF57
:1025700080910E0480FF0BC088E697E00E9458050A
:1025800080910E04817F8E7F80930E04EFCF8CE5C7
:1025900097E00E94580580910E048160F5CF81E498
:1025A00097E0D0CF82E297E0CDCF90910E04892FB3
:1025B000877F93FF886080930E0483FF03C086E1CA
:1025C00097E0E7CF89E097E0BDCF8AEF96E00E94E1
:1025D00058058DEC96E00E94580584E896E00E942C
:1025E00058058EE596E00E94580589E096E00E9425
:1025F00058058DED95E0A6CF8FEC95E00E9458052B
:102600000E940C091F928F9385EB95E09F938F9307
:102610000E94F105809112011F928F938EE995E03F
:102620009F938F930E94F10580910C041F928F93CA
:102630008BE895E09F938F930E94F10580911101A3
:102640001F928F9388E795E09F938F930E94F105E7
:102650002FB7F8948091080490910904A0910A047E
:10266000B0910B042FBFBF93AF939F938F9381E6DD
:1026700095E09F938F930E94F1058DB79EB7469684
:102680000FB6F8949EBF0FBE8DBF70CF8CE495E05F
:1026900059CF8D5136CFCF93882309F4B5C0C82FB9
:1026A0008CEF8C0F813A08F075C180910D04813058
:1026B00091F118F1823009F45FC010920D048091FD
:1026C0001201882309F44CC180911101882309F477
:1026D00047C1EC2FE695E695E695F0E0E454FE4F11
:1026E000C77021E030E001C0220FCA95EAF781816E
:1026F000822B8183CF910C9407118091BC0184348B
:1027000021F0883811F08232D1F68C2F0E942212EB
:1027100081117AC0D4CF8091BC018434B1F3883860
:10272000A1F3823291F3C431C9F048F4CB3059F0AF
:10273000C031C1F089EE92E00E94580511C0C93243
:1027400069F0C833B9F783E295E00E9458058FEE2F
:1027500092E00E94580581E08170DACF10920D045A
:1027600080E0FACF0E944F108BEE92E00E94580555
:1027700082E080930D04EFCFC432C8F4CE3108F06C
:10278000BEC0CB30E1F040F4C73009F4CFC088E9D7
:1027900093E0CF910C945805C331C1F1C431B9F71E
:1027A00080913C03882349F110923C030AC0CB344A
:1027B00009F4BAC0C0F4C93299F3C83341F70E9492
:1027C0004F1080913C03882309F4C7C01F928F9358
:1027D00082E993E09F938F930E94F1050F900F90F1
:1027E0000F900F9011C0C13509F498C0C23509F49B
:1027F0008FC0CE3461F66AE092C087EA93E00E940F
:10280000580581E080930D04CF91089581E893E00D
:102810000E9458058FE693E00E94580580911801A8
:102820001F928F938CE693E09F938F930E94F10504
:102830008AE693E00E94580588E593E00E945805D7
:10284000809117011F928F9385E593E09F938F935B
:102850000E94F10583E593E00E94580584E493E02B
:102860000E945805809116011F928F9381E493E096
:102870009F938F930E94F1058FE393E00E94580588
:102880008EE293E00E945805809115011F928F936C
:102890008BE293E09F938F930E94F10589E293E08E
:1028A0000E94580584E193E00E945805809114012C
:1028B0001F928F9381E193E09F938F930E94F10584
:1028C0008FE093E00E94580588EF92E00E9458053F
:1028D000809113011F928F9385EF92E09F938F93C6
:1028E0000E94F10583EF92E00E9458058DB79EB7D4
:1028F00048960FB6F8949EBF0FBE8DBF62CFCE51E3
:10290000EC2FF0E0E75DFE4F808180933C0359CFD0
:1029100061E080913C030E94E90E53CF61E0809119
:102920003C030E946A0E4DCF6AE0F3CF8EE18093A4
:10293000180182E3809317018AE08093160184E1F5
:102940008093150188E08093140188E2809313013D
:102950008AE993E00E94580534CF8FE893E019CFBD
:10296000AEEBB1E0EFEF80E09D91C91709F4C2CE64
:10297000EF3F19F4911101C0E82F8F5F8E31A1F75D
:10298000EF3F09F4B7CE0E2E000CFF0BE454FE4FC0
:10299000C283B0CE80E28C0F883068F4C77021E02B
:1029A00030E001C0220FCA95EAF78091FD03822B27
:1029B0008093FD039FCE8BE58C0F833068F481E814
:1029C00090E0C53A31F083E890E0C63A11F482E82D
:1029D00090E0CF910C94B90F88E58C0F873108F007
:1029E00068C082EE90E0C83A09F460C089EE90E0D9
:1029F000C93A09F45BC08AEE90E0CA3A09F456C0BD
:102A000085EB90E0CB3A09F451C086EB90E0CC3AEC
:102A100009F44CC083EB90E0CD3A09F447C084EB55
:102A200090E0CE3A09F442C087EB90E0CF3AF1F162
:102A300088EB90E0C13BD1F18DEC90E0C03BB1F16F
:102A400083E891E0C23B91F18AE891E0C33B71F1E8
:102A500082E991E0C43B51F184E991E0C53B31F159
:102A600081E292E0C63B11F183E292E0C73BF1F0D4
:102A700084E292E0C83BD1F085E292E0C93BB1F03C
:102A800086E292E0CA3B91F087E292E0CB3B71F0A4
:102A90008AE292E0CC3B51F08FE690E0CD3B31F002
:102AA00090E080E0CE3B11F480E790E0CF910C9471
:102AB0008D0FCF3B69F40E9468119FEF20E782E001
:102AC000915020408040E1F700C000000E942F0993
:102AD000C03F08F499CE8C2F0E940507CF910C942B
:102AE0006610CF92DF92EF92FF920F931F93CF93D6
:102AF000DF9300D000D01F92CDB7DEB76C0185E028
:102B0000F601DE01119601900D928A95E1F7F6012A
:102B1000408151812381348191E02115310531F0CB
:102B20005F3F19F491E04F3F09F090E090FD99C0AC
:102B3000F6010281F580F2949FE0F92249835A83DD
:102B40000B83722F3D832C83602F8D810E94C207DF
:102B5000182FE92FE295EF70EF3008F082C0F0E017
:102B6000EC54FA4E0C945423C315C31501160116E8
:102B70009416C61665166516DC163116B217B2170E
:102B8000311631165D18F92FFF70FF2E907F19F066
:102B9000F29480EFF8220023C9F0FF2039F08091F1
:102BA000FC03F82AF092FC030E940711812F0F907A
:102BB0000F900F900F900F90DF91CF911F910F9179
:102BC000FF90EF90DF90CF900C944B13812F0E94D9
:102BD000C311FF2009F445C0F0948091FC03F82252
:102BE000F092FC030F900F900F900F900F90DF91D9
:102BF000CF911F910F91FF90EF90DF90CF900C94A9
:102C00000711892F8F70907F903211F08295807F0D
:102C1000112379F0113009F449C0002309F471C07F
:102C2000FF2059F0F601958190FF5BC09F7095835E
:102C300004C0002321F1F1100FC00F900F900F90EE
:102C40000F900F90DF91CF911F910F91FF90EF9018
:102C5000DF90CF900C94B91121E0F212EECF809367
:102C6000FB030F900F900F900F900F90DF91CF917B
:102C70001F910F91FF90EF90DF90CF900895F1108A
:102C800011C01092FB030F900F900F900F900F90B8
:102C9000DF91CF911F910F91FF90EF90DF90CF9038
:102CA0000C94AE1191E0F912ECCFDBCF002349F088
:102CB000E5E0EF15B0F29091FD03982309F4BDCF44
:102CC000E2CFF4E0FF1568F2DECF892F8F70907F9E
:102CD000903611F08295807F002399F0FF2009F44F
:102CE000ACCF812F0E944B13193309F0DAC1FFEFEB
:102CF00021EE84E0F15020408040E1F700C0000068
:102D0000B0CFFF2009F4BFCF812F0F900F900F900D
:102D10000F900F90DF91CF911F910F91FF90EF9047
:102D2000DF90CF900C94C311892F86958695837080
:102D3000C1F0813009F095CF812F9370011102C04D
:102D400090E080E00F900F900F900F900F90DF9128
:102D5000CF911F910F91FF90EF90DF90CF900C9447
:102D60008D0F812F9370011102C090E080E00F90D1
:102D70000F900F900F900F90DF91CF911F910F91B7
:102D8000FF90EF90DF90CF900C94B90F002389F063
:102D90000E9405070F900F900F900F900F90DF91FA
:102DA000CF911F910F91FF90EF90DF90CF900C94F7
:102DB00066100E94FA05EECF892F837009F064C077
:102DC00001114FCF812F829586958770880F880FCC
:102DD000412F4F70C42ED12CF12CE12C082E04C0B1
:102DE000CC0CDD1CEE1CFF1C0A94D2F740E050E036
:102DF000BA0114FF11C00FE010E020E030E004C081
:102E0000000F111F221F331F8A95D2F7B901A801A5
:102E1000409550956095709500910F0410911004A5
:102E200020911104309112049695969593709230EA
:102E3000E9F028F5913089F04C295D296E297F2928
:102E4000402351236223732340930F0450931004B3
:102E5000609311047093120404CFC02AD12AE22A8D
:102E6000F32A4C295D296E297F29EECF4C295D2953
:102E70006E297F294027512762277327E5CF4023FA
:102E8000512362237323EDCF8695002311F0892F00
:102E90008170882309F4E5CE812F8295869587700D
:102EA000880F880F412F4F70C42ED12CF12CE12CAC
:102EB000082E04C0CC0CDD1CEE1CFF1C0A94D2F7BB
:102EC00040E050E0BA0114FF11C00FE010E020E034
:102ED00030E004C0000F111F221F331F8A95D2F764
:102EE000B901A801409550956095709500917503C2
:102EF00010917603209177033091780396959695FB
:102F000093709230E9F028F5913089F04C295D29D1
:102F10006E297F2940235123622373234093750335
:102F20005093760360937703709378039ACE0C29BD
:102F30001D292E293F29402B512B622B732BEECFBD
:102F40004C295D296E297F29402751276227732745
:102F5000E5CF40235123622373234C295D296E2939
:102F60007F29DCCF803F09F440C060F480E4810F0A
:102F7000803200F1002309F49BC0F110B2CE892FFA
:102F80008F7164C0823F09F470C008F45BC0833F56
:102F900089F7002309F47CC0292F2F7181E090E08C
:102FA000A0E0B0E004C0880F991FAA1FBB1F2A959C
:102FB000D2F73AC0E12FE071FE2E892F8F710023E6
:102FC00051F00E948C08812F8295807FF11035CEC0
:102FD000812F8F7032CE0E946808812F8295807F6A
:102FE000F11051CE812F8F704ECE002331F1F4E0DD
:102FF000FF1508F436CE292F2F7181E090E0A0E074
:10300000B0E004C0880F991FAA1FBB1F2A95D2F7F2
:103010004091750350917603609177037091780326
:1030200084279527A627B727809375039093760367
:10303000A0937703B093780314CE25E02F1508F4FE
:1030400010CED9CF892F8F71002399F00F900F9058
:103050000F900F900F90DF91CF911F910F91FF90E4
:10306000EF90DF90CF900C948C08892F8F71002304
:1030700069F30F900F900F900F900F90DF91CF9109
:103080001F910F91FF90EF90DF90CF900C94680804
:1030900010927503109276031092770310927803C2
:1030A000E0CD133509F423CE173409F0DACD1FCE65
:1030B000F1102ACE892F8F71DCCF8111D2CD002360
:1030C00009F4CFCD0E9468118FEF90E7E2E08150C4
:1030D0009040E040E1F700C000000E942F091F93DC
:1030E000CF93DF9380914203807FB1F480913F03BF
:1030F000882391F02091740310914303C0913D0304
:10310000D0913E03A0914003B091410341E0CF3FF5
:1031100009F040E0121304C0DF91CF911F91089590
:1031200081E0109721F0842FDF3F09F080E030E04C
:1031300080FD33C0C90166E070E00E942F23FC01CE
:10314000EC5BFC4F81818D1328C080818C1325C0DE
:103150008281811122C0838194818A1B9B0B883CD0
:103160009105D8F4809142038F708061809342036F
:10317000C90166E070E00E942F23FC01E75BFC4F71
:1031800090819F70906190838DE393E00E94711510
:10319000DF91CF911F910C94AC082F5F3F4F2770A8
:1031A000B9CF9F92AF92BF92CF92DF92EF92FF92F0
:1031B0000F931F93CF93DF93CDB7DEB761970FB611
:1031C000F894DEBF0FBECDBF8C0185E0F801DE01B3
:1031D0001D9601900D928A95E1F7F80140812181B9
:1031E000F280C380D48090913D0330913E03609182
:1031F00040037091410381E06115710531F03F3F5B
:1032000019F481E09F3F09F080E0F82FF1709F2EC4
:1032100080FD4EC18DE3A82E83E0B82EE0903F03E1
:10322000F601E61BF70BEE2009F404C1809142037E
:10323000582F507FE83CF10508F0BDC0511183C004
:10324000EF2C321322C0941320C0F1101EC08F70D7
:10325000806180934203C5010E94711580914203F1
:10326000F80185838E2D61960FB6F894DEBF0FBEF0
:10327000CDBFDF91CF911F910F91FF90EF90DF9025
:10328000CF90BF90AF909F90089581E0C114D1047A
:1032900031F02F3F19F481E04F3F09F080E080FDCD
:1032A00014C081E08F25F82FF170BF2EE0917403D8
:1032B0003091430380FD22C0FF20A1F280914203A0
:1032C000816080934203E12CCDCF80E0ECCFF0E031
:1032D000CF0166E070E00E942F23DC01AC5BBC4FA5
:1032E00011968C911197281307C08C91481304C034
:1032F00012968C918F11E0CF3196E770E313E7CFF0
:103300007C2DD98AC88A522F6F2D89890E94C207C5
:10331000292F22952F70223050F0243078F49F709E
:1033200051F0F8019581907F31F4E92C9BCF9F708B
:1033300011F08823D1F3805E8830B8F3C8010E9471
:1033400071159B2CF2CF321306C0941304C0F80100
:10335000FF2009F48AC04D872E87FF867C2DD98AED
:10336000C88A522F6F2D89890E94B608882309F4D4
:10337000AEC0FF2009F4ABC080914203803270F0F0
:1033800020913D0330913E0338872F831986DB86D9
:10339000CA868C87CE0107960E94711586E0F801D7
:1033A000ADE3B3E001900D928A95E1F70E946F18AA
:1033B000EE24E39457CF51110AC08DE393E00E94AD
:1033C000711586E0F50111928A95E9F77CCF3213E9
:1033D0000FC094130DC0F1100BC0F8018583C80114
:1033E0000E94711586E0F50111928A95E9F73ACFAE
:1033F0004D872E87FF867C2DD98AC88A522F6F2D44
:1034000089890E94B608882309F461C0FF2009F465
:103410005EC080914203803208F220913D033091DA
:103420003E033A8329831B82DD82CC828E83CE01C8
:103430000196B2CFE83CF105A8F6EF2CFF2009F485
:1034400046C032131FC094131DC08091420380FDFB
:1034500010C0982F907F69F0F8018583903F31F07C
:10346000982F907F905F8F70892B8583C8010E9471
:10347000711586E0F801ADE3B3E001900D928A95F5
:10348000E1F7F0CE4D872E87FF867C2DD98AC88A3A
:10349000522F6F2D89890E94B60881117FCF8091AC
:1034A0004203816080934203C8010E947115DACE05
:1034B000FF2069F04D872E87FF867C2DD98AC88A28
:1034C000522F6F2D89890E94B608811167CFC801DC
:1034D0000E9471156DCFCF93DF93CDB7DEB767979D
:1034E0000FB6F894DEBF0FBECDBF4B8B5C8B6D8BE0
:1034F0007E8B8F8B1A8A198A85E0FE017396DE0116
:103500001D9601900D928A95E1F786E0FE013D96A9
:10351000DE01179601900D928A95E1F7CE0107968C
:103520000E94D118811138C086E0FE013796DE0175
:10353000119601900D928A95E1F79F8188852A85E1
:103540003B85232B39F08F3F19F481E09F3F19F021
:1035500080E001C081E080FD1FC08091430390E0C6
:103560009C012F5F3F4F2770332740917403421710
:10357000130661F166E070E00E942F23DC01AC5B72
:10358000BC4F96E0FE01319601900D929A95E1F7BD
:10359000209343030E94AC088091740390914303ED
:1035A000891709F190E066E070E00E942F238C5BA0
:1035B0009C4F0E94D1188823B1F08091740390E051
:1035C00001968770992780937403E6CF0E94681153
:1035D000109243031092740386E0EDE3F3E0DF0101
:1035E0001D928A95E9F767960FB6F894DEBF0FBE75
:1035F000CDBFDF91CF910895CF93DF9300D01F927D
:10360000CDB7DEB720913703243041F5209110016A
:10361000222321F123E029839B838A8382E0809304
:10362000E9008FEF9091E800815095FD06C095ED7F
:103630009A95F1F700008111F5CF8091E80085FFA0
:103640000DC050E040E063E070E0CE0101960E94C2
:10365000270D8091E8008E778093E8000F900F90FF
:103660000F90DF91CF910895CF93DF9300D01F92F9
:10367000CDB7DEB720913703243081F520911001BA
:10368000222361F119821A821B8222E02983813868
:10369000910520F0805891099B838A8382E0809372
:1036A000E9008FEF9091E800815095FD06C095EDFF
:1036B0009A95F1F700008111F5CF8091E80085FF20
:1036C0000DC050E040E063E070E0CE0101960E9442
:1036D000270D8091E8008E778093E8000F900F907F
:1036E0000F90DF91CF91089520913703243049F551
:1036F00022E02093E9002FEF3091E800215035FDC2
:1037000006C035ED3A95F1F700002111F5CF209173
:10371000E80025FF16C02091100150E040E063E072
:1037200070E0222339F021E02093F10050E040E0E6
:1037300065E070E00E94270D8091E8008E7780930D
:10374000E8000895CF93DF93209137032430D9F414
:10375000EC01809112018823F1F0809111018823FE
:10376000D1F081E08093E90081E8815021F09091CF
:10377000E80095FF0BC08091E80050E040E060E277
:1037800070E085FD1AC0DF91CF9108959AE29A9575
:10379000F1F700C0EACF81E08093E90081E8815031
:1037A00021F09091E80095FF19C08091E80085FF15
:1037B000EACF50E040E068E070E0CE010E94270DC3
:1037C0008091E8008E778093E80080E2FE01ACE013
:1037D000B3E001900D928A95E1F7D5CFEFE3F1E0E8
:1037E0003197F1F700C00000DACFCF93C82F1F92B6
:1037F0008F9385E591E09F938F930E94F1053FB7EA
:10380000F8945B9A45EA4A95F1F700000F900F9003
:103810000F900F9088E090E021E04C2F422381F040
:103820005B9845EA4A95F1F70000220F0197A9F746
:103830005B9885EA8A95F1F700003FBFCF91089524
:103840005B9AEFCFCF93DF9300D000D01F92CDB71C
:10385000DEB78091E101813009F44FC078F0823009
:1038600009F490C0833009F432C180E00F900F90CA
:103870000F900F900F90DF91CF9108950E94261026
:103880008FEF0E94F51B8FE99FE00197F1F700C0D1
:1038900000000E9426108F3F910551F09FEFA3ED8D
:1038A000B0E39150A040B040E1F700C00000DDCF90
:1038B0008EEF0E94F51B8FE99FE00197F1F700C0A2
:1038C00000000E9426108E3F910541F78DEF0E9467
:1038D000F51BAFE9BFE01197F1F700C000000E94AF
:1038E00026108D3F9105D1F683E30E94F51B0E94BF
:1038F000261081E08093E101B8CF0E942610803825
:1039000091053CF497FF35C00196E1F01092E1017A
:10391000ACCF9C01205C310920323105B8F744E07E
:10392000880F991F4A95E1F780778093DF01AFE810
:10393000B1E01197F1F700C000008FE30E94F51B82
:1039400082E0D8CF9091F5028091E001981709F4B8
:103950008CCF8FE99FE00197F1F700C000008091C4
:10396000F50287700E94F51B8091F5028093E001BB
:103970007CCF86FD80688093DE018FE30E94F51B7B
:1039800083E0B8CF0E9426108F3FBFEF9B0709F45A
:103990006CCF0CF4BBCF9C01205C31092032310587
:1039A00008F0B4CF282F2F703091DF01232B807DBA
:1039B0009927803D910509F441C02093DF018FE8EC
:1039C00091E00197F1F700C0000083E30E94F51B2E
:1039D00081E08093E1018091DF0187FF4FC0982F44
:1039E0009F779057933060F5837021E030E0D901E4
:1039F00002C0AA0FBB1F8A95E2F7CD018095909176
:103A0000DD0198239093DD01FE01319685E0DF0111
:103A10001D928A95E9F79983CF010E94E50F809165
:103A2000DF011F928F938AE691E09F938F930E940C
:103A3000F1050F900F900F900F9017CF2068BDCF1A
:103A4000E82FF0E033E0F695E7953A95E1F7EE7070
:103A5000FF27EB51FD4F8F7021E030E0A90102C03C
:103A6000440F551F8A95E2F7CA01809590952081F1
:103A700031818223932391838083D1CF90E9980F62
:103A8000933058F4837021E030E001C0220F8A9512
:103A9000EAF79091DD01922BB5CFE82FF0E094E0AA
:103AA000F595E7959A95E1F7EE0FFF1FEB51FD4F66
:103AB0008F7021E030E0A90102C0440F551F8A95A4
:103AC000E2F7CA0120813181822B932BD4CF0E944F
:103AD00026108F3F5FEF950709F4C7CE0CF416CF81
:103AE000803891050CF012CF86FD80688093DC0150
:103AF000082E000C990B9F938F938091DE01282F45
:103B0000082E000C330B3F938F938CE591E09F932D
:103B10008F930E94F1051B821C821D828091DD0122
:103B200089838091DE018A838091DC018B83CE01C1
:103B300001960E94E50F8FE891E00197F1F700C030
:103B4000000083E30E94F51B81E08093E1010F9068
:103B50000F900F900F900F900F9087CE78941F9238
:103B60000F920FB60F9211248F939F93AF93BF9331
:103B70008091080490910904A0910A04B0910B046B
:103B80000196A11DB11D8093080490930904A09390
:103B90000A04B0930B04BF91AF919F918F910F9046
:103BA0000FBE0F901F9018951F920F920FB60F9295
:103BB00011248F939F93AF93BF938091FE03811144
:103BC00013C08091080490910904A0910A04B09157
:103BD0000B044196A11DB11D809308049093090424
:103BE000A0930A04B0930B04BF91AF919F918F9162
:103BF0000F900FBE0F901F9018951F920F920FB647
:103C00000F9211242F933F934F935F936F937F9362
:103C10008F939F93AF93BF93EF93FF938091E100B6
:103C200082FF09C08091E20082FF05C08091E1001F
:103C30008B7F8093E1008091E10080FF21C0809123
:103C4000E20080FF1DC08091E2008E7F8093E20041
:103C50008091E20080618093E2008091D8008062D0
:103C60008093D80019BC85E08093370380910B03C3
:103C700080930A0310920B030E94570E0E94681152
:103C80008091E10084FF2FC08091E20084FF2BC06F
:103C900084E089BD86E089BD09B400FEFDCF809136
:103CA000D8008F7D8093D8008091E1008F7E809333
:103CB000E1008091E2008F7E8093E2008091E2003B
:103CC00081608093E20080912E03882309F45AC01A
:103CD00084E0809337030E94570E0E946811809100
:103CE0000A0380930B038091E10083FF3AC0809127
:103CF000E20083FF36C08091E100877F8093E1007E
:103D000082E08093370310922E038091E1008E7F32
:103D10008093E1008091E2008E7F8093E2008091A9
:103D2000E20080618093E20042E060E080E00E9477
:103D3000F80981E08093120110920C0410920B0399
:103D400080E2ECE0F3E0DF011D928A95E9F7EDEB0C
:103D5000F1E01192B1E0EC3DFB07D9F781E08093EF
:103D60001001FF91EF91BF91AF919F918F917F9142
:103D70006F915F914F913F912F910F900FBE0F90D8
:103D80001F9018958091E30087FD02C081E0A1CFCC
:103D900083E09FCFCF93DF93CDB7DEB72B970FB6DE
:103DA000F894DEBF0FBECDBF84B7877F84BF0FB648
:103DB000F894A895809160008861809360001092CB
:103DC00060000FBE80E890E00FB6F8948093610029
:103DD000909361000FBE8EE69DE090933B0180932F
:103DE0003A0186E091E09093FA038093F90384EE20
:103DF00091E00E9458050E941809809163008E7F0F
:103E00008093630081E0809309031092E200109296
:103E1000E1008091D8008F778093D8008091D800FE
:103E200080688093D8008091D8008F7D8093D800DF
:103E300084E089BD86E089BD09B400FEFDCF109203
:103E4000370310922E0310922D0310922C0342E0A0
:103E500060E080E00E94F8098091E1008E7F80930D
:103E6000E1008091E20081608093E2008091E200B5
:103E700088608093E2008091E0008E7F8093E00074
:103E8000789482E084BD93E095BD9AEF97BD8093CE
:103E90006E000E94570E529A5198599A809169006B
:103EA0008C6080936900E99A7894539A5B9883E7D1
:103EB00091E00E94580580913703843009F04AC18F
:103EC0000E94560D882309F445C182ED91E00E94BD
:103ED000580584EC91E00E94580549E1242E41E008
:103EE000342E80913703853009F437C10E94221C9B
:103EF00007EF12E035EE432E32E0532E912CF20103
:103F0000A190B1902F01F801C080D180CA14DB04C8
:103F100009F461C080910E0481FF2FC083E991E014
:103F20000E94580525EE622E22E0722EF12CE12C23
:103F3000F3018081F181FB8722E0620E711C0E94F7
:103F4000AA07882E8B850E94AA073F922F928F92F4
:103F50008F93FF92EF9287E891E09F938F930E9457
:103F6000F105FFEFEF1AFF0A0FB6F894DEBF0FBEA0
:103F7000CDBF98E0E916F104D9F6812CEE24E39444
:103F8000F12CCA24DB24C6018E219F21892BE9F064
:103F90008E829F8221E0C7018A219B21892B09F40F
:103FA00020E028870E949E078160782F9A87898762
:103FB0004E815F8168858A850E946B1AF801808135
:103FC00091818E259F25918380838394EE0CFF1C25
:103FD000F0E18F12D8CF93940E5F1F4F28E092121A
:103FE0008ECF8FEF89838A831B820E949E07816018
:103FF000782F9D838C8349815A816B818D810E94AA
:104000006B1A80910104909102042FB7F8944091AB
:1040100008045091090460910A0470910B042FBFA9
:10402000FA01E81BF90B209100048091170190E040
:10403000211107C08091180190E06AE070E00E94B1
:104040002F23E817F90780F080910404F09005040D
:1040500010910604009107048111BBC0F1107FC1CB
:1040600011117DC101117BC10E940C099091F602D2
:104070008917D9F10E940C098093F60290910E04E1
:104080009570953061F41F928F9389EB91E09F9327
:104090008F930E94F1050F900F900F900F908091D9
:1040A000F60280FD04C11092F50281FF05C09091D7
:1040B000F50291609093F50282FF05C09091F502A0
:1040C00094609093F5029091F5021F929F931F9236
:1040D0008F9388EA91E09F938F930E94F1050F9050
:1040E0000F900F900F900F900F902091E40030915F
:1040F000E50080910703909108032817390739F1EB
:104100008091E4009091E500909308038093070369
:104110000E94560D8823D9F0809137038430B9F47A
:104120008091E9008F709091EC0090FFC4C090E8FE
:10413000892B93E09093E9009091EB0090FF04C0ED
:104140009091EE0097FDD5C08F708093E9000E949A
:104150002A0AC7CE0E942A0AAECE80913703843045
:1041600021F11092FE0388E190E020E40FB6F8946C
:10417000A895809360000FBE2093600083B7817F75
:10418000846083BF83B7816083BF7894889583B749
:104190008E7F83BF0FB6F894A895809160008861E8
:1041A00080936000109260000FBE80912D038823E1
:1041B00009F497CE0E94221CE5EEF2E081919191E4
:1041C000892B09F0B6C085EF92E08E179F07B1F7F3
:1041D00088CE2F3F19F02F5F20930004181624F487
:1041E0000E94B906809304048091040487FF05C0EF
:1041F0000E94B9068195809304041F1424F40E9440
:10420000B906809305048091050487FF05C00E94CC
:10421000B90681958093050460910404662331F109
:10422000F0900504FF2011F1062E000C770B880B8F
:10423000990B0E942E2223E333E343E35FE30E94C2
:1042400092220E94F621609304046F2DFF0C770BDD
:10425000880B990B0E942E2223E333E343E35FE3B1
:104260000E9492220E94F62160930504111624F404
:104270000E947E06809306048091060487FF05C095
:104280000E947E06819580930604101624F40E94F5
:104290007E06809307048091070487FF05C00E9473
:1042A0007E068195809307040E946610DDCE92E021
:1042B0009093F502FACE90E03BCFE0910101F091AE
:1042C0000201E90FF11D20819F5F309105019323C9
:1042D000909304012093F1009091E80095FD09C0AE
:1042E0009091E80090FF05C09091E8009E77909330
:1042F000E8009091040120910301291721F02091F9
:10430000E80025FDDACF9091F200992309F41CCF43
:104310009091E80090FF18CF9091E80095FD06C0BD
:104320009091E8009E779093E8000ECF1092F100F4
:10433000F3CF84E089BD86E089BD09B400FEFDCFDE
:104340008091D8008F7D8093D8008091E0008260BA
:104350008093E0008091E00081FDFCCFC2CD2F3F33
:1043600009F039CF4ACF1F920F920FB60F92112446
:104370002F933F934F938F939F93EF93FF934A9A7B
:10438000499B28C040E54A95F1F74A9A28E030E079
:1043900081E090E045EA4A95F1F700004A9A499B8E
:1043A000982B880F21503109A9F785EA8A95F1F7F2
:1043B00000008091E302E82FF0E08F5F2091E2029D
:1043C000281729F0EE51FE4F90838093E30282E09C
:1043D0008CBB4A9AFF91EF919F918F914F913F91A2
:1043E0002F910F900FBE0F901F9018950E94FD21E6
:1043F0006894B1110C948C2208950E94712288F067
:104400009F5798F0B92F9927B751B0F0E1F0660F98
:10441000771F881F991F1AF0BA95C9F714C0B130D9
:1044200091F00E948B22B1E008950C948B22672FAB
:10443000782F8827B85F39F0B93FCCF38695779508
:104440006795B395D9F73EF49095809570956195F1
:104450007F4F8F4F9F4F0895E89409C097FB3EF41C
:1044600090958095709561957F4F8F4F9F4F9923C1
:10447000A9F0F92F96E9BB279395F695879577953F
:104480006795B795F111F8CFFAF4BB0F11F460FFFF
:104490001BC06F5F7F4F8F4F9F4F16C0882311F057
:1044A00096E911C0772321F09EE8872F762F05C06B
:1044B000662371F096E8862F70E060E02AF09A9506
:1044C000660F771F881FDAF7880F9695879597F9FB
:1044D000089557FD9058440F551F59F05F3F71F0F4
:1044E0004795880F97FB991F61F09F3F79F087955B
:1044F0000895121613061406551FF2CF4695F1DFE4
:1045000008C0161617061806991FF1CF8695710573
:10451000610508940895E894BB2766277727CB01A7
:1045200097F908950E94A4220C941E230E94102340
:1045300038F00E94172320F0952311F00C940723E4
:104540000C940D230C948C220E94692278F39923F9
:10455000C9F35523B9F3950F50E0551FAA27EE274D
:10456000FF27BB2700240894679520F4E20FF31F70
:10457000B41F0A1E220F331F441FAA1F6695A9F7F6
:10458000779530F4F30FB41F0A1E121E08F46395DA
:10459000330F441FAA1F221F769599F7879520F4A1
:1045A000B40F0A1E121E631F440FAA1F221F331FBF
:1045B0008695A9F7862F712D602D11249F575040A5
:1045C0009AF0F1F088234AF0EE0FFF1FBB1F661F21
:1045D000771F881F91505040A9F79E3F510580F0EA
:1045E0000C9407230C948C225F3FE4F3983ED4F3A1
:1045F000869577956795B795F795E7959F5FC1F78E
:10460000FE2B880F911D9695879597F9089597F938
:104610009F6780E870E060E008959FEF80EC089568
:1046200000240A9416161706180609060895002491
:104630000A9412161306140605060895092E03940B
:10464000000C11F4882352F0BB0F40F4BF2B11F47F
:1046500060FF04C06F5F7F4F8F4F9F4F089500240E
:10466000552704C0080E591F880F991F009729F07D
:1046700076956795B8F37105B9F7802D952F089554
:1046800097FB072E16F4009407D077FD09D00E94FF
:104690005A2307FC05D03EF4909581959F4F0895CD
:1046A000709561957F4F0895EE0FFF1F0590F4916F
:1046B000E02D0994AA1BBB1B51E107C0AA1FBB1F19
:1046C000A617B70710F0A61BB70B881F991F5A959E
:1046D000A9F780959095BC01CD010895F894FFCF7E
:1046E000053C0100007F530DA21B741B341BFC1AF8
:1046F0000101012808140A321E00397F2215019693
:104700000074000F0228024102010203040506079B
:0A4710000809000008000400020080
:106800008800EA44E944E244040005000600070069
:10681000080009000A000B000C000D000E000F001C
:1068200010001100120013001400150016001700CC
:10683000180019001A001B001C001D001E001F007C
:10684000200021002200230024002500260027002C
:10685000280029002A002B002C002D002E002F00DC
:10686000300031003200330034003500360037008C
:10687000380039003A003B003C003D003E003F003C
:1068800040004100420043004400450046004700EC
:10689000480049004A004B004C004D004E004F009C
:1068A000500051005200530054005500560057004C
:1068B000580059005A005B005C005D005E005F00FC
:1068C000600061006200630064006500850067008D
:1068D000680069006A006B006C006D006E006F005C
:1068E0007000710072007300890087008A008B00BD
:1068F000E000E100E200E300F1A1E500E600E700CE
:106900000100010001000100EA4401000100E2442D
:106910000100010001000100460001004A004B0097
:10692000010001004700480001000100E9440100A6
:106930000100010001000100010001003A003B00DC
:106940003C003D003E003F0040004100420043004B
:10695000010035004C0039000100440045005200A0
:1069600049000100010050004F0029004D004E0079
:1069700051000100010001000100010001000100BF
:1069800001000100010001000100010001000100FF
:1069900001000100010001000100010001004D00A3
:1069A0004A004E004B0001000100010001000100FF
:1069B000F6000100F1000100F2000100F300010007
:1069C000F0000100F400F5000100010001000100E9
:1069D00001000100010001000100010001000100AF
:1069E0000100010001000100490001000100010057
:1069F000010001000100010001000100010001008F
:00000001FF
